:020000040800F2
:1000000000000120B52E000831130008331300084A
:1000100035130008371300083913000800000000EA
:100020000000000000000000000000003B1300087A
:100030003D130008000000003F13000841130008B2
:10004000052F0008052F0008052F0008052F0008C0
:10005000052F0008052F0008052F0008052F0008B0
:10006000052F0008052F0008052F0008052F0008A0
:10007000052F0008052F0008052F0008052F000890
:10008000052F0008052F0008052F0008052F000880
:10009000052F0008052F0008052F0008052F000870
:1000A000052F0008052F0008052F0008052F000860
:1000B000052F0008052F0008052F0008052F000850
:1000C000052F0008052F0008052F0008052F000840
:1000D000052F0008052F000851130008052F000800
:1000E000052F0008052F0008052F0008052F000820
:1000F000052F0008052F0008052F0008052F000810
:10010000052F000849130008052F0008052F0008D7
:10011000052F0008052F0008052F0008052F0008EF
:10012000052F0008052F0008052F0008052F0008DF
:1001300010B5054C237833B9044B13B10448AFF321
:1001400000800123237010BDF0010020000000009A
:10015000E056000808B5034B1BB103490348AFF351
:10016000008008BD00000000F4010020E0560008F7
:10017000034613F8012B002AFBD1181A01387047E7
:1001800001F0FF01102A2BDB10F0070F08D010F848
:10019000013B013A8B422DD010F0070F42B3F6D14C
:1001A000F0B441EA012141EA014122F007047FF065
:1001B00000070023F0E80256083C85EA010586EABC
:1001C000010685FA47F5A3FA87F586FA47F6A5FAF8
:1001D00087F68EB9EED1F0BC01F0FF0102F0070204
:1001E00032B110F8013B013A83EA010313B1F8D1AF
:1001F0000020704701387047002D06BF3546033890
:10020000073815F0010F07D1013015F4807F02BFC8
:10021000013015F4C03F0130F0BC0138704700BF19
:1002200081F0004102E000BF83F0004330B54FEAA7
:1002300041044FEA430594EA050F08BF90EA020F14
:100240001FBF54EA000C55EA020C7FEA645C7FEAA7
:10025000655C00F0E2804FEA5454D4EB5555B8BFCA
:100260006D420CDD2C4480EA020281EA030382EA3B
:10027000000083EA010180EA020281EA0303362DCD
:1002800088BF30BD11F0004F4FEA01314FF4801CA0
:100290004CEA113102D0404261EB410113F0004FB2
:1002A0004FEA03334CEA133302D0524263EB430369
:1002B00094EA050F00F0A780A4F10104D5F1200E07
:1002C0000DDB02FA0EFC22FA05F2801841F1000162
:1002D00003FA0EF2801843FA05F359410EE0A5F136
:1002E00020050EF1200E012A03FA0EFC28BF4CF067
:1002F000020C43FA05F3C01851EBE37101F000451D
:1003000007D54FF0000EDCF1000C7EEB00006EEB29
:100310000101B1F5801F1BD3B1F5001F0CD34908B3
:100320005FEA30004FEA3C0C04F101044FEA44520A
:1003300012F5800F80F09A80BCF1004F08BF5FEA91
:10034000500C50F1000041EB045141EA050130BD71
:100350005FEA4C0C404141EB010111F4801FA4F114
:100360000104E9D191F0000F04BF01460020B1FA69
:1003700081F308BF2033A3F10B03B3F120020CDAA1
:100380000C3208DD02F1140CC2F10C0201FA0CF07F
:1003900021FA02F10CE002F11402D8BFC2F1200CE4
:1003A00001FA02F120FA0CFCDCBF41EA0C0190409A
:1003B000E41AA2BF01EB0451294330BD6FEA0404E3
:1003C0001F3C1CDA0C340EDC04F11404C4F12002CE
:1003D00020FA04F001FA02F340EA030021FA04F3E0
:1003E00045EA030130BDC4F10C04C4F1200220FA37
:1003F00002F001FA04F340EA0300294630BD21FA75
:1004000004F0294630BD94F0000F83F4801306BF3A
:1004100081F480110134013D4EE77FEA645C18BF2E
:100420007FEA655C29D094EA050F08BF90EA020FC5
:1004300005D054EA000C04BF1946104630BD91EABD
:10044000030F1EBF0021002030BD5FEA545C05D1C0
:100450004000494128BF41F0004130BD14F58004FF
:100460003CBF01F5801130BD01F0004545F0FE4173
:1004700041F470014FF0000030BD7FEA645C1ABFA8
:10048000194610467FEA655C1CBF0B46024650EADF
:10049000013406BF52EA033591EA030F41F400210B
:1004A00030BD00BF90F0000F04BF0021704730B591
:1004B0004FF4806404F132044FF000054FF0000166
:1004C00050E700BF90F0000F04BF0021704730B527
:1004D0004FF4806404F1320410F0004548BF4042FC
:1004E0004FF000013EE700BF42004FEAE2014FEA51
:1004F00031014FEA02701FBF12F07F4393F07F4F2C
:1005000081F06051704732F07F4208BF704793F02E
:100510007F4F04BF41F40021704730B54FF4607441
:1005200001F0004521F000411CE700BF50EA010244
:1005300008BF704730B54FF000050AE050EA0102ED
:1005400008BF704730B511F0004502D5404261EB5D
:1005500041014FF4806404F132045FEA915C3FF49E
:10056000D8AE4FF003025FEADC0C18BF03325FEA3B
:10057000DC0C18BF033202EBDC02C2F1200300FAEC
:1005800003FC20FA02F001FA03FE40EA0E0021FA11
:1005900002F11444BDE600BF70B54FF0FF0C4CF4FF
:1005A000E06C1CEA11541DBF1CEA135594EA0C0FB1
:1005B00095EA0C0F00F0DEF82C4481EA030621EAEC
:1005C0004C5123EA4C5350EA013518BF52EA033527
:1005D00041F4801143F4801338D0A0FB02CE4FF0D9
:1005E0000005E1FB02E506F00042E0FB03E54FF009
:1005F0000006E1FB03569CF0000F18BF4EF0010E01
:10060000A4F1FF04B6F5007F64F5407404D25FEAFC
:100610004E0E6D4146EB060642EAC62141EA5551AF
:100620004FEAC52040EA5E504FEACE2EB4F1FD0CF1
:1006300088BFBCF5E06F1ED8BEF1004F08BF5FEA6F
:10064000500E50F1000041EB045170BD06F0004621
:1006500046EA010140EA020081EA0301B4EB5C04CE
:10066000C2BFD4EB0C0541EA045170BD41F48011C6
:100670004FF0000E013C00F3AB8014F1360FDEBFEB
:10068000002001F0004170BDC4F10004203C35DAC7
:100690000C341BDC04F11404C4F1200500FA05F34A
:1006A00020FA04F001FA05F240EA020001F00042EB
:1006B00021F0004110EBD37021FA04F642EB060161
:1006C0005EEA430E08BF20EAD37070BDC4F10C048B
:1006D000C4F1200500FA04F320FA05F001FA04F24F
:1006E00040EA020001F0004110EBD37041F100013B
:1006F0005EEA430E08BF20EAD37070BDC4F1200546
:1007000000FA05F24EEA020E20FA04F301FA05F2AD
:1007100043EA020321FA04F001F0004121FA04F255
:1007200020EA020000EBD3705EEA430E08BF20EA25
:10073000D37070BD94F0000F0FD101F0004640005F
:1007400041EB010111F4801F08BF013CF7D041EAE1
:10075000060195F0000F18BF704703F000465200E5
:1007600043EB030313F4801F08BF013DF7D043EAB6
:100770000603704794EA0C0F0CEA135518BF95EA6C
:100780000C0F0CD050EA410618BF52EA4306D1D1F3
:1007900081EA030101F000414FF0000070BD50EA12
:1007A000410606BF1046194652EA430619D094EA9C
:1007B0000C0F02D150EA013613D195EA0C0F05D186
:1007C00052EA03361CBF104619460AD181EA0301DA
:1007D00001F0004141F0FE4141F470014FF0000092
:1007E00070BD41F0FE4141F4780170BD70B54FF02D
:1007F000FF0C4CF4E06C1CEA11541DBF1CEA1355AD
:1008000094EA0C0F95EA0C0F00F0A7F8A4EB05048E
:1008100081EA030E52EA03354FEA013100F0888085
:100820004FEA03334FF0805545EA131343EA12634E
:100830004FEA022245EA111545EA10654FEA002603
:100840000EF000419D4208BF964244F1FD0404F5BC
:10085000407402D25B084FEA3202B61A65EB030518
:100860005B084FEA32024FF480104FF4002CB6EBD5
:10087000020E75EB030E22BFB61A754640EA0C0055
:100880005B084FEA3202B6EB020E75EB030E22BF95
:10089000B61A754640EA5C005B084FEA3202B6EBD6
:1008A000020E75EB030E22BFB61A754640EA9C0095
:1008B0005B084FEA3202B6EB020E75EB030E22BF65
:1008C000B61A754640EADC0055EA060E18D04FEA23
:1008D000051545EA16754FEA06164FEAC30343EAC3
:1008E00052734FEAC2025FEA1C1CC0D111F4801F90
:1008F0000BD141EA00014FF000004FF0004CB6E789
:1009000011F4801F04BF01430020B4F1FD0C88BF27
:10091000BCF5E06F3FF6AFAEB5EB030C04BFB6EB32
:10092000020C5FEA500C50F1000041EB045170BD25
:100930000EF0004E4EEA113114EB5C04C2BFD4EB52
:100940000C0541EA045170BD41F480114FF0000ED6
:10095000013C90E645EA060E8DE60CEA135594EA52
:100960000C0F08BF95EA0C0F3FF43BAF94EA0C0F55
:100970000AD150EA01347FF434AF95EA0C0F7FF4CA
:1009800025AF104619462CE795EA0C0F06D152EA1E
:1009900003353FF4FDAE1046194622E750EA410602
:1009A00018BF52EA43067FF4C5AE50EA41047FF413
:1009B0000DAF52EA43057FF4EBAE12E74FF0FF3C78
:1009C00006E000BF4FF0010C02E000BF4FF0010C49
:1009D0004DF804CD4FEA410C7FEA6C5C4FEA430CC2
:1009E00018BF7FEA6C5C1BD001B050EA410C0CBF11
:1009F00052EA430C91EA030F02BF90EA020F002073
:100A0000704710F1000F91EA030F58BF994208BFD9
:100A100090422CBFD8176FEAE37040F00100704796
:100A20004FEA410C7FEA6C5C02D150EA013C07D1ED
:100A30004FEA430C7FEA6C5CD6D152EA033CD3D038
:100A40005DF8040B704700BF8446104662468C4632
:100A50001946634600E000BF01B5FFF7B7FF002865
:100A600048BF10F1000F01BD4DF808EDFFF7F4FF8E
:100A70000CBF012000205DF808FB00BF4DF808ED19
:100A8000FFF7EAFF34BF012000205DF808FB00BF3C
:100A90004DF808EDFFF7E0FF94BF012000205DF85E
:100AA00008FB00BF4DF808EDFFF7CEFF94BF012013
:100AB00000205DF808FB00BF4DF808EDFFF7C4FF0C
:100AC00034BF012000205DF808FB00BF4FEA410C55
:100AD0007FEA6C5C02D150EA013C0AD14FEA430C38
:100AE0007FEA6C5C02D152EA033C02D14FF0000075
:100AF00070474FF0010070474FEA410212F50012B3
:100B000015D211D56FF47873B3EB625212D94FEA54
:100B1000C12343F0004343EA505311F0004F23FA3E
:100B200002F018BF404270474FF00000704750EA93
:100B3000013005D111F0004008BF6FF00040704750
:100B40004FF00000704700BF40F0BF6040F400303D
:100B5000014BD860704700BF00ED00E070B505465E
:100B60000E461446274BDB6803F4E063B3F5E06FF1
:100B700022D0244BDB6803F4E063B3F5C06F35D0BB
:100B8000204BDB6803F4E063B3F5A06F31D01D4B5D
:100B9000DB6803F4E063B3F5806F2DD0194BDB689D
:100BA00003F4E063B3F5407F29D04FF4A060FFF772
:100BB000CBFF02231A4601E004230022C2F1040203
:100BC0009640C3F104030F2222FA03F31C4034437E
:100BD0002401E4B20C4A531983F8004305F01F01C5
:100BE0006D0901238B4042F8253070BD032301229B
:100BF000E4E702231A46E1E701230322DEE70023AC
:100C00000422DBE700ED00E000E100E008B5204B46
:100C100098422AD010D8A3F5006398421CD003F55F
:100C20008063984217D140F2124000F0DDFA40F2A2
:100C3000124000F0E7FA0EE0164B98421ED003F582
:100C40006843984207D140F20E3000F0CDFA40F2EE
:100C50000E3000F0D7FA08BD40F2114000F0C4FA9F
:100C600040F2114000F0CEFAF5E740F2134000F0F8
:100C7000BBFA40F2134000F0C5FAECE740F2144032
:100C800000F0B2FA40F2144000F0BCFAE3E700BF13
:100C9000004C00400050004038B504460D46174B4C
:100CA000984221D00BD8A3F50063984218D003F5E1
:100CB0008063984220D1022000F0B4FA09E0104B82
:100CC000984215D003F56843984215D1032000F0EF
:100CD000A9FA00EB5500B0FBF5F080B2A06038BD7A
:100CE000022000F09FFAF4E7022000F09BFAF0E700
:100CF000022000F097FAECE70020EAE7004C004001
:100D000000500040C36843F40053C3607047C36899
:100D100023F008031943C1607047C36823F004033C
:100D20001943C1607047C1F30801416070474068D2
:100D3000C0F3080070478B091B5801F01F0123FA0C
:100D400001F111F0010F01D100207047012070471F
:100D500010B48C09235801F01F01012202FA01F19D
:100D600023EA010121505DF8044B704710B4C1F330
:100D700089131C5801F01F02012303FA02F22240DA
:100D80008C0D2058C1F3044103FA01F1084202D04E
:100D90002AB9002000E000205DF8044B70470120D4
:100DA000FAE700000023094A13600432136004329A
:100DB000136004321360183213600432136004327B
:100DC00013600C32136004321360704700800140DE
:100DD00030B4094C2568094C2C40FF2B04D944F051
:100DE0000044A3F580739BB208430243134323439B
:100DF000014A136030BC70470480014000D9FF7F76
:100E0000024A136823F48043136070470480014052
:100E1000044B1A6822F4C0521A601A681043186012
:100E2000704700BF04800140014B1860704700BF4D
:100E300000800140014B1868704700BF00800140EE
:100E4000024A136843F480731360704704800140C2
:100E500010B4074B1C6800241C60196005490B681E
:100E600023F0FF0302431A430A605DF8044B704706
:100E7000088001400C800140044B1A6822F4407243
:100E80001A601A6810431860704700BF0C80014058
:100E9000024A136843F48063136070470C8001407A
:100EA000014B1868C0B270471080014003280FD86A
:100EB000DFE800F00205080B064B18687047064B88
:100EC00018687047054B18687047054B18687047DD
:100ED0000020704714800140188001401C800140B0
:100EE0002080014070B40A4D2B6800232B60094C10
:100EF000236803F07E432360074B1E6826F0F0064C
:100F00001E602860216019680A431A6070BC70472F
:100F100024800140288001402C800140034A13684E
:100F200023F0060301431943116070472C800140F0
:100F3000024A136843F00103136070472C8001409C
:100F4000014B1868704700BF80800140034B1B684D
:100F5000034201D1002070470120704734800140D6
:100F6000014B1860704700BF38800140024A136887
:100F700023EA0000106070473C800140034B1B686F
:100F8000034201D1002070470120704734800140A6
:100F9000014B1860704700BF38800140F0B401F089
:100FA0000F0611F0100F02D0042A02D016430022BF
:100FB00009E046F00306C26B1A43C263F7E74461D7
:100FC0000560013292B2072A14D8012494401C40D3
:100FD000F7D0076895004FF00F0C0CFA05FC27EAD4
:100FE0000C0706FA05F53D432829E8D04829E7D142
:100FF0000461E5E7082203E044614560013292B2F2
:101000000F2A17D8012494401C40F7D0476802F1FA
:101010008045083DAD004FF00F0C0CFA05FC27EAA7
:101020000C0706FA05F53D432829E5D04829E4D107
:101030000461E2E7F0BC70470161704741617047AD
:1010400083680B4201D100207047012070470000E7
:1010500010B401F003039B000F229A4003290ED91C
:10106000072919D90B2922D916490C6824EA02024A
:101070000A600A6800FA03F313430B6009E012499F
:101080000C6824EA02020A600A6800FA03F31343B8
:101090000B605DF8044B70470C490C6824EA0202AF
:1010A0000A600A6800FA03F313430B60F1E708498A
:1010B0000C6824EA02020A600A6800FA03F3134388
:1010C0000B60E6E714000140080001400C000140FD
:1010D0001000014030B4204D2C68C3431C402C60EC
:1010E00004352C681C402C6004352C681C402C6096
:1010F00004352C681C402C6041B101290BD0012A19
:1011000017D06AB1022A1DD030BC7047124C21683A
:1011100001432160F3E7114C216801432160EEE7B0
:101120000F490A681043086004310A6813400B60D5
:10113000EAE70B4A11680B40136004321368184346
:101140001060E1E7064A1368034313600432136832
:1011500018431060D8E700BF0004014004040140B8
:1011600008040140014B1860704700BF140401409F
:10117000026802F441520B681A434B681A438B68A9
:101180001A43CB681A430B691A434B691A438B699C
:1011900013430360C36923F40063C36170470368AA
:1011A00043F0400303607047C1607047C06880B27D
:1011B0007047036843F4005303600161704783681C
:1011C0000B4201D10020704701207047830903F1D1
:1011D000804303F504331A6800F01F00012101FA6F
:1011E00000F0104318607047830903F1804303F552
:1011F00004331A6800F01F00012101FA00F01043C7
:1012000018607047830903F1804303F504331A68BB
:1012100000F01F00012101FA00F022EA000018602E
:101220007047000030B488B005463B4C94E80F008E
:101230000DF1200C0CE90F0002AB103494E8030010
:1012400083E803006B4683E80300344B1B68C3F359
:101250008103022B54D1314B1B6813F4803F0ED015
:101260002F4B1B6813F0804F07D12E482B4B1B6868
:1012700013F4003F04D02C4802E02C48F6E72A483B
:10128000264A1368C3F38343126812F0006F01D03B
:1012900043F01003214A126812F0804F01D043F04E
:1012A00020030E2B24D8023300FB03F01B490B68EC
:1012B000C3F3031308AA134413F8102C20FA02F204
:1012C0000B68C3F3022308AC234413F8183C22FA3A
:1012D00003F40B68C3F3C22308A90B4413F8203CA2
:1012E00022FA03F3032D0DD8DFE805F00D101214D8
:1012F000A3F10F022F2A01D80133D5E73F23D3E70B
:101300000848D3E7002008B030BC70471046FAE721
:101310002046F8E71846F6E7F856000804100240A1
:101320002C10024000127A0000093D00006CDC0223
:101330007047FEE7FEE7FEE7FEE77047704770473D
:1013400008B500F017FA08BD08B500F03BFE08BD6F
:1013500010B51C491C48FFF709FD28B91B491A485C
:10136000FFF704FDB8B910BD1748FFF7E0FC184AB5
:1013700013889BB2591C89B211801649C85413882E
:101380009BB2154A12689342E8D340F205310E48E9
:10139000FFF7DEFCE2E7114C23889BB25A1C92B2A5
:1013A00022800F4AD15C0848FFF7BDFC23889BB21E
:1013B0000C4A12689342D6D340F207310248FFF735
:1013C000C7FCD0E705030500004400400703070001
:1013D00014020020680200200800002016020020ED
:1013E000000000200C00002000B583B0002108465A
:1013F00001F0F6FB0021012001F0F2FB1D4B0193EF
:1014000018230093F0226421002001F01FF903E06B
:10141000012001F025FCC0B1002001F021FC0028D2
:10142000F6D1642000F09CF9002001F019FC00289E
:10143000EED101F0BDFB104B019318230093F02275
:101440009621002001F002F9E2E7642000F088F91B
:10145000012001F005FC0028DED101F0B5FB074BAF
:10146000019318230093F0229621002001F0EEF85A
:10147000D2E700BF1057000828570008345700086B
:1014800008B54FF4C060FFF75FFB00221146312022
:10149000FFF764FB08BD000000B583B00023019393
:1014A00000F0E6FC1D280FD01D2811D001A800F087
:1014B00059FD019B13F0007F10D11D2812D01D286B
:1014C00014D003B05DF804FB0A4800F017FEEBE708
:1014D000084BB3F8440000F035FDE7E7064802F09A
:1014E0009BF9FEE7002000F0E3FCE8E7002000F0B5
:1014F0001FFDE6E76C0C00209458000810B582B080
:101500000524FFF7C9FF1D2803D0013CA4B2002C1D
:10151000F7D16CB90D4802F0F3F90D4B0193182384
:101520000093F0223221002001F090F802B010BDAB
:10153000084802F0E5F9084B019318230093F022C4
:101540003221002001F082F8F0E700BF7057000858
:10155000885700084057000858570008531E9BB290
:1015600092B130B4441C00784D1C09781A46884268
:1015700008D129462046013B9BB2002AF2D1012026
:1015800030BC70470020FBE70120704710B582B0E7
:1015900001F068F901F0F2F90146424C206042483E
:1015A00002F03AF92268414B9A420DD0404802F0CD
:1015B00033F9404B019318230093F0220021084691
:1015C00001F044F802B010BD3B4802F025F93B4B56
:1015D00000221A8003E0394A138801331380374B05
:1015E0001B88FF2B0FD8D9B2354AD154354802F0A9
:1015F00013F9324B1B8803F00F030F2BEBD132484A
:1016000002F00AF9E7E7314802F006F9002001F09C
:1016100001FA4FF480720021294801F04BFA0A20A8
:1016200000F09EF84FF480720021294801F07CF907
:10163000224B00221A8003E0204A138801331380D2
:101640001E4B1B88FF2B0ED8214AD15C1D4802F08F
:10165000E3F81A4B1B8803F00F030F2BECD11A4849
:1016600002F0DAF8E8E74FF4807219491448FFF7FE
:1016700075FF80B1174B1B78002BA3D1164802F0E1
:10168000CBF8164B019318230093F0220021084653
:1016900000F0DCFF96E7124802F0BEF80D4B012285
:1016A0001A70E7E70C0200209C5700081740EF0073
:1016B0005C5800087C580008B4570008100200204D
:1016C000680B0020D057000820580008D8570008A1
:1016D0006802002012020020245800084458000824
:1016E000F857000808B500F01BF8FFF7C9FE0A48D4
:1016F00001F0C4FA094801F0C1FA002001F03CFAF7
:1017000000F0CEFF4FF6FF7000F0DDFEFFF73EFF6A
:10171000FFF7F4FEFFF768FE003801400044004088
:101720000B4B1B680B4AA2FB03239B09013BB3F144
:10173000807F0CD2084A5360084BF02183F82310B5
:10174000002191600720106083F823107047FEE7A6
:101750001C000020D34D621010E000E000ED00E01E
:10176000034B1860024B1B68002BFBD1704700BF76
:1017700018020020034B1B681BB1024A1368013B8F
:101780001360704718020020002831DB10F0804FF2
:1017900030D110F0005F2FD110F0805F2ED110F00B
:1017A000006F2DD110F0806F2CD110F0807F2BD1E5
:1017B00010F4000F2AD110F4800F29D110F4001F6B
:1017C00028D110F4801F27D110F4002F26D110F457
:1017D000803F25D110F4004F24D110F4804F23D145
:1017E00010F4005F22D110F0080F21D11C207047A7
:1017F0000020704701207047022070470320704787
:101800000420704705207047062070470720704766
:1018100008207047092070470A2070470B20704746
:101820000C2070470D2070470E2070470F20704726
:101830001020704708B540F20460FFF7C7FC40F283
:101840000560FFF7C3FC4FF4C060FFF7BFFC40F238
:101850000A50FFF7BBFC40F20150FFF7B7FC08BD90
:1018600008B54FF48853032218210548FFF796FB6B
:101870000423032218210348FFF790FB08BD00BF93
:10188000001001400014014008B50E4B1B6801E038
:101890000C4B1B6813F0450FFAD013F0010F07D162
:1018A00013F0040F09D10848FFF75AFB1D2008BDAB
:1018B0000120FFF755FB1120F9E70420FFF750FB4B
:1018C0001320F4E734800140FF07C00008B50F4B38
:1018D0001A6842F2107312F0450F04D11BB10B4A83
:1018E0001268013BF7E712F0040F05D123B112F0A3
:1018F000400F06D11C2003E00420FFF731FB13202A
:1019000008BD4020FFF72CFB1D20F9E73480014083
:1019100008B50A4B1B6801E0084B1B6813F0450F24
:10192000FAD013F0040F04D10548FFF719FB1D206E
:1019300008BD0420FFF714FB1320F9E734800140B1
:10194000FF07C00038B504460D461E4B1B6801E07A
:101950001C4B1B6813F0450FFAD013F0010F08D190
:1019600013F0040F0AD1FFF79BFAA0420BD0082016
:1019700008E00120FFF7F4FA112003E00420FFF74C
:10198000EFFA132038BD1048FFF7EAFA0020FFF7FE
:101990008DFA10F4604F0AD010F4004F0DD110F4FE
:1019A000804F0CD110F4005F05D00B20EAE7000C4B
:1019B00028801D20E6E71D20E4E70720E2E7082055
:1019C000E0E700BF34800140FF07C00010B50446C7
:1019D000154B1B6801E0144B1B6813F0450FFAD040
:1019E00013F0010F08D113F0040F0AD1FFF758FAD2
:1019F000A0420BD0082010BD0120FFF7B1FA112042
:101A0000F9E70420FFF7ACFA1320F4E70748FFF7E3
:101A1000A7FA0020FFF74AFA054B034013B1FFF77E
:101A2000B3FEE8E71D20E6E734800140FF07C00071
:101A300008E0F9FD10B542F210748020FFF786FA35
:101A400010B90CB1013CF8E70CB9132010BD0248E5
:101A5000FFF786FA1D20F9E7FF07C00070B582B0D6
:101A600005460E46002400940194402208211020CF
:101A7000FFF7EEF92046FFF7FFF91020FFF7A6FF6A
:101A800004461D2802D0204602B070BD4022290421
:101A90003720FFF7DDF90020FFF7EEF9FFF7F8F93F
:101AA0003720FFF793FF04461D28ECD13022082190
:101AB0004FF0FF30FFF716FA02210020FFF72EFA51
:101AC000FFF736FA402200213320FFF7C1F900204A
:101AD000FFF7D2F9FFF7DCF93320FFF777FF044671
:101AE0001D28D0D1002540F22A60FFF72FFA58B9FF
:101AF0004FF40010FFF72AFA0028F4D0FFF720FA7D
:101B00004DF825000135EEE70220FFF71FFA50BB24
:101B10000820FFF71BFA58BB2020FFF717FA60BB1D
:101B20004FF40070FFF712FA60BB1948FFF718FA7C
:101B3000019A130203F47F0343EA0263110A01F4DA
:101B40007F410B4343EA12633360009A130203F4AC
:101B50007F0343EA0263110A01F47F410B4343EA26
:101B6000126373608FE70220FFF7FAF912248AE705
:101B70000820FFF7F5F9142485E72020FFF7F0F996
:101B8000162480E74FF40070FFF7EAF917247AE78C
:101B9000FF07C00010B504460020FFF787F910F0DA
:101BA000007F52D12D492E4B1888FFF757FF1D2873
:101BB0004CD1B4F5803F25D0B4F5802F49D1274BC7
:101BC0005B68234247D0264B1988402209043720FE
:101BD000FFF73EF90020FFF74FF9FFF759F93720DB
:101BE000FFF7F4FE1D2831D1402202210620FFF725
:101BF0002FF90020FFF740F9FFF74AF90620FFF719
:101C0000E5FE23E0154B5B68234220D0144B198876
:101C1000402209043720FFF71BF90020FFF72CF9B9
:101C2000FFF736F93720FFF7D1FE1D280ED14022ED
:101C300000210620FFF70CF90020FFF71DF9FFF740
:101C400027F90620FFF7C2FE00E0062010BD1A208B
:101C5000FCE71920FAE71A20F8E700BF4802002045
:101C60004402002030B583B00123ADF80630FFF701
:101C7000E1F8002867D0364B1B78032B2FD11D24A9
:101C8000334B1B78022B4BD9042B49D0304B1B789C
:101C9000032B59D0BDF806102E4B1980C022090421
:101CA0000920FFF7D5F80020FFF7E6F8FFF7F0F876
:101CB000FFF7EAFD04461D2846D10020FFF7F6F89D
:101CC000254D28600120FFF7F1F868600220FFF73A
:101CD000EDF8A8600320FFF7E9F8E86034E0C022DF
:101CE00000210220FFF7B4F80020FFF7C5F8FFF746
:101CF000CFF8FFF7C9FD04461D2825D10020FFF7C6
:101D0000D5F8164D28600120FFF7D0F86860022052
:101D1000FFF7CCF8A8600320FFF7C8F8E860AFE74A
:101D2000402200210320FFF793F80020FFF7A4F8DA
:101D3000FFF7AEF80DF106010320FFF703FE04469E
:101D40001D2801D1A2E71A24204603B030BD00BFF0
:101D50001C02002044020020340200202402002043
:101D600070B57623002211461046FFF731F80020A7
:101D7000FFF74EF8FFF744F80320FFF755F8FFF799
:101D80005FF8002211461046FFF762F80020FFF7C7
:101D900073F8FFF77DF8FFF74DFE04461D2801D0CC
:101DA000204670BD40224FF4D5710820FFF750F84F
:101DB0000020FFF761F8FFF76BF8FFF787FD1D289C
:101DC00013D00026402200213720FFF741F80020E1
:101DD000FFF752F8FFF75CF83720FFF7F7FD1D28F3
:101DE000DED100231D4618460AE0204B01221A705E
:101DF0004FF08046E6E70020FFF758F8C30F0135A3
:101E000033BB4FF6FE739D4222D84022002137207B
:101E1000FFF71EF80020FFF72FF8FFF739F83720FB
:101E2000FFF7D4FD04461D28BAD1402246F00041F8
:101E300041F480112920FFF70BF80020FFF71CF870
:101E4000FFF726F8FFF764FD04461D28D3D0A7E767
:101E50004FF6FE739D4206D810F0804FA0D0034B82
:101E600002221A709CE718249AE700BF1C02002087
:101E700010B5FFF7DFFCFFF7F3FCFEF793FFFFF76A
:101E80006FFF04461D2801D0204610BDFFF7EAFE73
:101E900004461D28F8D10223002211461046FEF701
:101EA00097FF0020FEF7B4FFFEF7AAFFECE7000063
:101EB00038B51E4B1B78052B2FD0022B2FD8B0F531
:101EC000805F2FD00446B0F5006F13D060BB4FF495
:101ED0008030FFF75FFE05461D2821D10223002236
:101EE00011461046FEF774FF2046FEF791FFFEF7FD
:101EF00087FF15E04FF48020FFF74CFE05461D28B4
:101F00000ED10223002211461046FEF761FF204643
:101F1000FEF77EFFFEF774FF02E01B2500E01D25A3
:101F2000284638BD1B25FBE71925F9E71C020020D0
:101F3000012801D919207047014B18601D207047F6
:101F40001400002008B5402201040720FEF780FF9E
:101F50000020FEF791FFFEF79BFF0720FFF736FDFD
:101F600008BD000038B5C8B105460D4B19884022A0
:101F700009040D20FEF76CFF0020FEF77DFFFEF741
:101F800087FF0D20FFF722FD04461D2801D02046C3
:101F900038BD0020FEF78AFF2860F8E71924F6E72D
:101FA0004402002008B5402200210C20FEF750FF1B
:101FB0000020FEF761FFFEF76BFF0C20FFF706FD28
:101FC00008BD000008B5494B1D221A704FF48070FF
:101FD000FEF7D4FFE8B1464B1B68012B14D0434BEE
:101FE0001D221A704FF48070FEF7D2FF4CF23A3087
:101FF000FEF7BCFF3F4B01221A603F4B00221A60E4
:102000003A4B1878C0B208BDFFF7CCFF374B1870B9
:10201000E8E70220FEF7B2FFB0B90820FEF7AEFFF6
:1020200010BB4FF40070FEF7A9FF68BB1020FEF74D
:10203000A5FF002839D12020FEF7A0FF002844D1B9
:102040002A4B1878C0B2DEE70220FEF7A1FF4CF25F
:102050003A30FEF78BFF284B00221A60234B1222E6
:102060001A701878C0B2CEE70820FEF791FF4CF244
:102070003A30FEF77BFF204B00221A601B4B1422E4
:102080001A701878C0B2BEE74FF40070FEF780FFF8
:102090004CF23A30FEF76AFF174B00221A60134BDE
:1020A00017221A701878C0B2ADE71020FEF770FF43
:1020B0004CF23A30FEF75AFF0F4B00221A600B4BDE
:1020C00015221A701878C0B29DE72020FEF760FF35
:1020D0004CF23A30FEF74AFF074B00221A60034BDE
:1020E00016221A701878C0B28DE700BF10000020C9
:1020F000500200205402002020020020002800F09E
:102100001E8130B403468F4A117880F838108E4A09
:102110001288A0F844208D4C2268100E1870C2F36B
:10212000074000025880C2F307205D88284358808A
:1021300012065A606268150E586840EA05405860F9
:10214000100C5D68000280B2284358605D68C2F3DD
:10215000072028435860D2B21A72A268100E587233
:10216000100C0006D860100ADD68000400F47F003F
:102170002843D860D868D2B20243DA60E268D868EF
:1021800040EA1260D860C2F30740000200F47060B9
:102190001882C2F307201C8A20431882C2F3460229
:1021A0009A746B480268940F1C75C2F307445C75FF
:1021B000C2F307249C75D2B2DA754068020E120190
:1021C0001A83C0F307421C8B44EA12141C8302F0EA
:1021D0000F029A76040AE2B2D509DD76C4F38015BF
:1021E0001D77C4F340155D77C4F300159D77012971
:1021F0004DD9022900F08B80C2F3801183F8291099
:10220000520002F07E0283F82A205148027A93F8A5
:102210002A1041EAD21183F82A1002F07F0283F8D3
:102220002B20C1680A0ED00983F82C00C2F382006B
:1022300083F82D00920002F00C0283F82E200A0C85
:1022400093F82E00C2F38114204383F82E00C2F3CA
:10225000401283F82F200A0AC2F3C01083F830001E
:10226000C2F3801083F83100C2F3401083F83200CB
:10227000C2F3001083F83300C2F3810283F83420E4
:10228000C1F3460183F835101D2030BC7047A4020D
:1022900004F440641C621A6A800000F47F701043EA
:1022A00018622B4A9268100EC1B21C6A44EA91145B
:1022B0001C62C0F3C20083F8240001F0070183F818
:1022C0002510110CC1F3421083F82600C1F38200DF
:1022D00083F82700490001F0060183F82810C2F3B3
:1022E000072293F8281041EAD21183F82810987E2B
:1022F000C0B2012101FA00F01864196A013193F8A3
:1023000028400234A14001FB00F1D96374E70004C6
:1023100000F47C1018620E4A9268100E196A41EAA5
:1023200000211962C2F30742196A114319624FF47E
:1023300000711964196A0131C904D9635CE7192075
:10234000704700BF1C02002044020020240200202D
:102350003402002008B501460748FEF725FF022198
:102360000548FEF72CFF0028F9D0002301E00133D7
:10237000DBB2092BFBD908BD0030014010B5044683
:1023800040210348FEF758FE2046FFF7E3FF10BD4B
:102390000008014010B5044640210348FEF74EFEF8
:1023A0002046FFF7D7FF10BD0008014030B589B0C7
:1023B00040F20260FEF70AFF40F20460FEF706FFFB
:1023C00040F20C60FEF702FF214DA02303221821EA
:1023D0002846FEF7E3FD1F4CC023032210212046B0
:1023E000FEF7DCFD4023032210212846FEF7D6FD30
:1023F000002302934FF48272019203930222069209
:102400004FF40072049210220792059305F52055AF
:1024100001A92846FEF7ACFE08212846FEF7C9FEB2
:102420002846FEF7BCFE40212046FEF705FE64204C
:10243000FFF796F940212046FEF700FE6420FFF7E3
:102440008FF940212046FEF7F7FD09B030BD00BFEF
:10245000000801400010014010B504464021054825
:10246000FEF7EAFD200AFFF789FFE0B2FFF786FFDB
:1024700010BD00BF00080140F8B507460D461646DE
:102480001C462A20FFF786FF380AFFF777FFF8B2CD
:10249000FFF774FF300AFFF771FFF0B2FFF76EFF2E
:1024A0002B20FFF777FF280AFFF768FFE8B2FFF756
:1024B00065FF200AFFF762FFE0B2FFF75FFF2C2005
:1024C000FFF768FFF8BD70B50546002606E0284610
:1024D000FFF7C2FF0134EF2CF9DD0136EF2E01DCEE
:1024E0000024F8E770BD00002DE9F843203A5FFAB8
:1024F00082F85C08C4F1F002904203DCC3F1F00200
:10250000914201DDBDE8F8831E46021992B2CB1854
:102510009BB2013B013A9BB292B2FFF7ADFF102E86
:102520000BD0202E09D00C2E36D0182EEAD1360131
:10253000C6F3C7064FF000096BE016F0070318BF9B
:10254000012303EBD60313FB04F45FFA84F900279D
:1025500016E0384B03EB0813DD5D1BE0364B1888A3
:10256000FFF77AFF6D00EDB20134E4B2072C05D815
:1025700015F0800FF2D1314B1888F1E70137FFB227
:102580004F45BFD2102EE4D0202EBBD12C4B03EBF5
:10259000C813DD5D0024E9E716F0070318BF012327
:1025A00003EBD60313FB04F4E7B2002611E0224B41
:1025B0001888FFF751FF6D00EDB20134E4B2052C2D
:1025C00005D815F0800FF2D11C4B1888F1E70136C1
:1025D000F6B2BE4296D208EB48039A00194B134458
:1025E0009D5D0024EBE7042721E0134B1888FFF7DB
:1025F00033FF6D00EDB20134E4B2BC4205D215F0F8
:10260000800FF2D10D4B1888F1E709F101095FFA4B
:1026100089F9B145BFF476AF08EB48031A010A4BBC
:10262000134413F8095019F0010FDCD108270024D6
:10263000E3E700BF205D00085802002018000020DA
:10264000E0740008AC580008106300082DE9F0475A
:1026500082460D469DF82070099E02441FFA82F9B9
:102660000B441FFA83F804460AE0454515D23B4661
:1026700029462046FFF738FF04EB5704A4B2013681
:102680003278A2F12003DBB25E2B06D84C45ECD3A6
:102690005FFA8AF43D44ADB2E7E7BDE8F087000099
:1026A00010B5FFF783FE6E4C80212046FEF7C6FC76
:1026B00040212046FEF7C2FC7820FFF751F8402168
:1026C0002046FEF7B9FC7820FFF74AF81120FFF703
:1026D00061FE7820FFF744F83620FFF75BFE00200C
:1026E000FFF74CFE3A20FFF755FE6520FFF746FE48
:1026F000B220FFF74FFE0C20FFF740FE0C20FFF743
:102700003DFE0020FFF73AFE3320FFF737FE33206F
:10271000FFF734FEB720FFF73DFE7220FFF72EFED5
:10272000BB20FFF737FE3D20FFF728FEC020FFF754
:1027300031FE2C20FFF722FEC220FFF72BFE0120E6
:10274000FFF71CFEC320FFF725FE1920FFF716FE3A
:10275000C420FFF71FFE2020FFF710FEC620FFF762
:1027600019FE0F20FFF70AFED020FFF713FEA4206A
:10277000FFF704FEA120FFF701FEE020FFF70AFEAD
:10278000D020FFF7FBFD0420FFF7F8FD0D20FFF739
:10279000F5FD1120FFF7F2FD1320FFF7EFFD2B20D1
:1027A000FFF7ECFD3F20FFF7E9FD5420FFF7E6FDC2
:1027B0004C20FFF7E3FD1820FFF7E0FD0D20FFF7A9
:1027C000DDFD0B20FFF7DAFD1F20FFF7D7FD2320EB
:1027D000FFF7D4FDE120FFF7DDFDD020FFF7CEFDB0
:1027E0000420FFF7CBFD0C20FFF7C8FD1120FFF7F9
:1027F000C5FD1320FFF7C2FD2C20FFF7BFFD3F20D2
:10280000FFF7BCFD4420FFF7B9FD5120FFF7B6FDEF
:102810002F20FFF7B3FD1F20FFF7B0FD1F20FFF7AC
:10282000ADFD2020FFF7AAFD2320FFF7A7FD212003
:10283000FFF7B0FD2920FFF7ADFDEF231A46002179
:102840000846FFF719FE4FF6FF70FFF73CFE8021A8
:102850002046FEF7F1FBC820FEF782FF10BD00BF47
:102860000010014010B588B040F20360FEF7AEFCE6
:1028700040F20260FEF7AAFC40F20F70FEF7A6FCE1
:102880001B4C2823032218212046FEF787FB102328
:10289000032204212046FEF781FBA4F580644FF457
:1028A0008053032210212046FEF778FB4FF480511D
:1028B0002046FEF7C1FB002302934FF4827201927F
:1028C000039306934FF4007204921022079205932B
:1028D000A4F54C4401A92046FEF74AFC07212046F6
:1028E000FEF767FC2046FEF75AFC08B010BD00BF9B
:1028F000000C014010B5044602210A48FEF75FFCB7
:102900000028F9D021460748FEF74EFC0121054872
:10291000FEF755FC0028F9D00248FEF747FCC0B28C
:1029200010BD00BF003C004070B506460C46154681
:102930004FF480511048FEF781FB0320FFF7DAFFC8
:10294000C4F30740FFF7D6FFC4F30720FFF7D2FF19
:10295000E0B2FFF7CFFF05E0A520FFF7CBFF06F8B9
:10296000010B25466B1E9CB2002DF5D14FF4805112
:102970000148FEF761FB70BD00080140F8B50F4D3E
:102980004FF480512846FEF759FB9F20FFF7B2FF16
:10299000A520FFF7AFFF0746A520FFF7ABFF0446D2
:1029A000A520FFF7A7FF06464FF480512846FEF703
:1029B00043FB200240EA07403043F8BD00080140D5
:1029C00010B5074C4FF480512046FEF737FB062028
:1029D000FFF790FF4FF480512046FEF72DFB10BD0E
:1029E0000008014008B54FF480510948FEF726FB66
:1029F0000520FFF77FFFA520FFF77CFF10F0010FF8
:102A0000F9D14FF480510248FEF716FB08BD00BF14
:102A10000008014038B50446FFF7D2FF0D4D4FF4D2
:102A200080512846FEF70AFB2020FFF763FFC4F31E
:102A30000740FFF75FFFC4F30720FFF75BFFE0B23B
:102A4000FFF758FF4FF480512846FEF7F5FAFFF7DD
:102A5000C9FF38BD0008014070B506460C46154652
:102A6000FFF7AEFF4FF480511148FEF7E7FA02205E
:102A7000FFF740FFC4F30740FFF73CFFC4F3072014
:102A8000FFF738FFE0B2FFF735FF04E016F8010B5F
:102A9000FFF730FF25466B1E9CB2002DF6D14FF498
:102AA00080510348FEF7C8FAFFF79CFF70BD00BFD6
:102AB000000801402DE9F84305460C469046CBB28C
:102AC000110ADBB971B92146FFF7C6FF14E04FF4D4
:102AD000807221462846FFF7BFFF04F5807405F594
:102AE000807531464B1EDEB20029F0D15FFA88F2C4
:102AF00021462846FFF7B0FFBDE8F8835F42FFB2EA
:102B0000D6B289B9B7420BD23344DEB23A46214637
:102B1000FFF7A2FF32463919E819FFF79DFFEBE7EF
:102B20002146FFF799FFE7E7BAB2A8EB0206B6B273
:102B30004FEA16285FFA86F92146FFF78DFF3C44DD
:102B40003D440AE04FF4807221462846FFF784FF97
:102B500004F5807405F58075B84608F1FF33DFB2DF
:102B6000B8F1000FEED1B9F1000FC5D0F2B2214695
:102B70002846FFF771FFBFE738B50446094B33F825
:102B80001000FEF723FB084B53F82450074B53F873
:102B900024402B46032210212046FEF7FFF96561F1
:102BA00038BD00BF80A4000888A4000898A40008CD
:102BB000034B53F82030034A52F820201A61704723
:102BC00098A4000888A40008034B53F82030034A57
:102BD00052F820205A61704798A4000888A4000881
:102BE00038B504460D46174B33F81000FEF7EEFAE1
:102BF0004FF4C060FEF7EAFA134B53F82430032277
:102C00004821124850F82400FEF7C8F9012D00D0E1
:102C100038BD002202210E4B185DFDF79FFF0D4BC2
:102C2000195D0D4B185DFEF713FA0C4B53F8244059
:102C3000012200212046FEF74DFA2046FEF792FAC7
:102C4000E6E700BFA8A40008C0A40008D0A40008BC
:102C5000BCA40008CCA40008DCA40008B0A40008B0
:102C600008B5044B53F82010034B53F82000FEF72F
:102C7000E7F908BDC0A40008D0A4000870B5044658
:102C8000244B984236D0A3F57443984234D00025A3
:102C9000214B33F81500FEF799FA204B33F8150055
:102CA000FEF794FA1E4B53F825601E4B53F825305F
:102CB000032218213046FEF771F91B4B53F82530DB
:102CC000032204213046FEF769F92046FDF79EFFF6
:102CD000104B9C4212D0154B9C4215D0042120462B
:102CE000FEF71BF808212046FEF711F82046FEF7F4
:102CF00009F870BD0025CBE70125C9E74FF4E131A4
:102D00002046FDF7C9FFE9E74FF416512046FDF7CD
:102D1000C3FFE3E70038014064A4000860A4000892
:102D200068A4000878A4000870A4000800440040CB
:102D300010B50446C1B20548FDF7F5FF0721034869
:102D4000FDF7F9FF0028F9D0204610BD00380140FA
:102D500070B50E461546002403E0305DFFF7E8FF2E
:102D60000134A542F9D8284670BD0000344A1368E2
:102D700043F48033136000230133314A126812F4A4
:102D8000003F03D14FF6FF729342F5D12C4B1B68E5
:102D900013F4003F00D1FEE72A4A136843F0805342
:102DA0001360294A136843F440431360274B1A68A1
:102DB0001A601A681A601A6842F480621A601A6807
:102DC00022F440321A601A6842F440321A601A68DB
:102DD00022F0904222F470121A601A6842F00362E4
:102DE00042F480221A60164A136843F0807313601D
:102DF000134B1B6813F0007FFAD0134A136843F497
:102E000080331360124B1B6813F4803FFAD00E4AD4
:102E1000136843F4003313600D4B1B6813F4003F39
:102E2000FAD00A4B1A6822F003021A601A6842F0BC
:102E300002021A60054B1B6813F0080FFAD07047A6
:102E4000001002401C1002400070004004100240BC
:102E50000470004008B5FFF789FF08BD08B5114AA6
:102E6000D2F8883043F47003C2F888300E4B1A68E9
:102E700042F001021A6000220C490A6028310A60FF
:102E80001A6822F0847222F480321A60084A4FF4E1
:102E90001F0111601A6822F480221A60FFF7DAFF1E
:102EA00008BD00BF00ED00E0001002400410024029
:102EB00008100240DFF834D0002103E00C4B5B58CF
:102EC000435004310B480C4B42189A42F6D30B4A3C
:102ED00002E0002342F8043B094B9A42F9D3FFF782
:102EE000BDFF00F011F8FEF7FDFBFEE7000001203A
:102EF000B0A7000800000020F0010020F001002031
:102F0000C8140020FEE7000070B50D4E0D4CA41B48
:102F1000A4100025A54209D10B4E0C4C02F0E0FB99
:102F2000A41BA4100025A54205D170BD56F825307C
:102F300098470135EEE756F8253098470135F2E716
:102F4000A0A70008A0A70008A0A70008A4A7000841
:102F500002440346934200D1704703F8011BF9E78E
:102F60002DE9FF4755EC104B0D9FDDF830A0002DEB
:102F70000E4691461946B8BF22462B4627F0200739
:102F8000BBBF05F100431D4600232D23B8BF1446E7
:102F9000462F0B7004D0452F00D10136022100E0EE
:102FA000032103AB019302AB00933246534645EC39
:102FB000104B00F0F9FD472F804602D119F0010FA8
:102FC00026D0462F08EB060911D198F80030302B97
:102FD0000AD10022002320462946FDF745FD18B9F5
:102FE000C6F10106CAF80060DAF800309944002200
:102FF000002320462946FDF737FD38B93022039BD0
:103000004B4505D2591C03911A70F8E7CDF80C9086
:10301000039B0E9AA3EB08034046136004B0BDE87F
:10302000F087F7B500290446BABF49422D232B2368
:10303000092904F8022B437020DD0DF107031F4618
:103040000A2691FBF6F506FB15113031092D03F820
:10305000011C03F1FF32294609DC3031023B02F842
:10306000011CBB42224604D3101A03B0F0BD134624
:10307000E7E713F8012B04F8012BF2E7302319449A
:103080008370021DC170EFE72DE9F04F8DB00C4643
:10309000DDF8588016461F46054601F0B7FC036868
:1030A00004931846FDF764F800230A93D8F800301B
:1030B0000590073323F0070303F1080294F818A0E2
:1030C000D4F800B0C8F80020D3E90023C4E91223E3
:1030D000D4E9128929F000430793CDF818804FF006
:1030E000FF32A74BDDE90601FDF7F0FC70BB4FF0A6
:1030F000FF32A34BDDE90601FDF7CAFC30BB00221D
:10310000002340464946FDF7B9FC10B12D2384F851
:1031100043309C4A9C4BBAF1470F8CBF904698466F
:1031200003232BF00402236122604FF00009009773
:1031300033460BAA2146284600F0E6F9013040F05C
:103140008D804FF0FF300DB0BDE8F08F42464B460A
:1031500040464946FDF7BAFC10B18C4A8C4BDAE781
:1031600061684B1C4BF480620AA83ED10623636061
:103170000023CDE9020309AB009349EC108B0DF15C
:1031800023032260CDF804A061682846FFF7E8FE1B
:103190000AF0DF03472B804609D1099BD81C02DBCC
:1031A0006268934247DDAAF1020A5FFA8AFABAF12D
:1031B000650F099924D80139524604F1500009914C
:1031C000FFF72FFF0A9A1318012A8146236102DCB8
:1031D0002268D10701D5013323619DF82330002BEC
:1031E000A5D02D2384F84330A1E7BAF1670F00F092
:1031F0007781BAF1470FBBD10029B9D10123B6E7D6
:10320000BAF1660F19D1002963680CDD216113B989
:103210002268D20702D501330B442361099BA365C1
:103220004FF00009D9E713B92268D00701D502335E
:10323000F3E70123F1E74FF0670ADDE90932934232
:1032400005DB22682361D107E8D50133E5E7002BD0
:10325000D4BFC3F1020301231344DEE723685A05F8
:1032600007D42369424631462846B84701302BD15E
:1032700067E7BAF1650F40F2DC8000220023D4E951
:103280001201FDF7F1FB002833D00123414A3146FA
:103290002846B84701303FF454AFDDE909239A428C
:1032A00002DB2368D8070FD5DDE904233146284621
:1032B000B84701303FF445AF4FF0000804F11A0958
:1032C0000A9B013B434509DC23689B0700F103810E
:1032D000E0680B9B9842B8BF184634E701234A4682
:1032E00031462846B84701303FF42BAF08F10108BA
:1032F000E6E7099B002B2BDC0123264A31462846B2
:10330000B84701303FF41DAF099B23B90A9B13B99D
:103310002368D907D8D5DDE9042331462846B847C4
:1033200001303FF40EAF4FF0000904F11A0A099B77
:103330005B424B4501DC0A9B94E701235246314630
:103340002846B84701303FF4FCAE09F10109EEE729
:103350000A9AA36D9A42A8BF1A46002A914607DD31
:103360001346314642462846B84701303FF4E9AE9D
:1033700004F11A034FF0000B29EAE979069315E0EE
:10338000FFFFEF7FE8A40008E4A40008F0A4000811
:10339000ECA40008F4A400080123069A314628464C
:1033A000B84701303FF4CDAE0BF1010BD4F858A073
:1033B000AAEB09035B45EFDCDDE909239A42D0441F
:1033C00015DB2368DA0712D40A9B0999A3EB0A02DA
:1033D000A3EB010A9245A8BF9246BAF1000F0EDC9A
:1033E0004FF000082AEAEA7A04F11A0919E0DDE947
:1033F000042331462846B8470130E5D1A1E65346BB
:10340000424631462846B8470130E9D199E60123C2
:103410004A4631462846B84701303FF492AE08F19B
:103420000108DDE909239B1AA3EB0A034345EEDCFF
:103430004AE70A9A012A01DCDB073AD50123424612
:1034400031462846B84701303FF47BAEDDE904231E
:1034500031462846B847013008F101083FF471AE03
:103460000A9B002203F1FF3AD4E912010023FDF781
:10347000FBFAC8B95346424631462846B8470130A0
:103480000ED15EE60123524631462846B847013048
:103490003FF457AE08F101080A9B013B4345F1DCBC
:1034A0004B4604F15002DEE64FF0000804F11A0A20
:1034B000F2E70123DFE701234A4631462846B847B1
:1034C00001303FF43EAE08F10108E3680B9A9B1A05
:1034D0004345F0DCFCE64FF0000804F11909F4E77D
:1034E00000293FF48BAE0023CDE9020309AB009322
:1034F00049EC108B2260CDF804A00DF1230328467F
:10350000FFF72EFD804648E62DE9F04791461F461D
:103510008A680B69DDF820809342B8BF1346C9F86A
:10352000003091F8432006460C4612B10133C9F829
:1035300000302368990642BFD9F800300233C9F839
:103540000030256815F0060507D104F1190AE36873
:10355000D9F800209B1AAB4228DC94F8433022684B
:10356000003318BF012392062DD404F143023946DB
:103570003046C047013020D02368E568D9F80020E4
:1035800003F00603042B08BFAD1AA36822690CBF21
:1035900025EAE57500259342C4BF9B1AED184FF04C
:1035A00000091A344D451AD1002008E00123524683
:1035B00039463046C047013003D14FF0FF30BDE8F7
:1035C000F0870135C3E7E1185A1C302081F8430029
:1035D000224494F8451082F843100233C5E70123D2
:1035E000224639463046C0470130E6D009F101098C
:1035F000D8E700002DE9F04301F1430C0C46097EA9
:1036000085B06E291746064698460C9A00F0B3809E
:1036100022D8632936D00AD8002900F0B980582969
:1036200000F0838004F1420584F8421032E06429FE
:1036300001D06929F6D120681368050603F1040159
:103640002AD51B681160002B03DA2D225B4284F817
:1036500043206F480A2239E0732900F09D8008D882
:103660006F2920D07029DDD1236843F02003236027
:1036700003E0752917D07829D4D1782384F8453010
:10368000644855E01368191D1B68116004F1420578
:1036900084F8423001238CE01B68116010F0400F69
:1036A00018BF1BB2CFE713682568181D10602806E5
:1036B00001D51B6802E06806FBD51B8854486F29BA
:1036C00014BF0A220822002184F843106568A5600F
:1036D000002DC0F29580216821F004012160002BAB
:1036E0003DD1002D40F08E806546082A0BD123681D
:1036F000DB0708D5236962689A42DEBF302305F8EC
:10370000013C05F1FF35ACEB05032361CDF80080EA
:103710003B4603AA21463046FFF7F6FE01304DD165
:103720004FF0FF3005B0BDE8F083394884F845100C
:10373000136821681D1D1B6815600A060BD5CA0792
:1037400044BF41F0200121601BB9226822F0200211
:1037500022601022B7E74D0648BF9BB2EFE76546EF
:10376000B3FBF2F102FB1133C35C05F8013D0B46DC
:103770000029F5D1B9E7136825686169181D106043
:1037800028061B6801D5196002E06A06FBD519807E
:10379000002323616546B9E71368191D11601D6890
:1037A000626800212846FCF7EBFC08B1401B606012
:1037B00063682361002384F84330A7E723692A461E
:1037C00039463046C0470130AAD023689B0713D43E
:1037D000E068039B9842B8BF1846A3E701234A4616
:1037E00039463046C04701309AD00135E368039A24
:1037F0009B1AAB42F2DCEBE7002504F11909F5E76F
:10380000002BACD1037884F8423004F142056CE718
:10381000F6A4000807A500080FB40A4B13B51C68EE
:1038200024B1A36913B9204601F066F805AB049AE8
:10383000A1680193204601F029FD02B0BDE81040C7
:1038400004B070472000002070B50E46054618B140
:1038500083690BB901F050F8AB69AC6813B928461D
:1038600001F04AF8234B9C4217D16C68A3891B07CF
:103870001DD52369DBB1013EA36816F8011F013B8A
:10388000A360E9B9002B2EDA22460A21284600F06F
:103890003FF8013011D00A2011E0174B9C4201D1B2
:1038A000AC68E3E7154B9C4208BFEC68DEE72146B5
:1038B000284600F07FF80028DDD04FF0FF3070BDC3
:1038C000002B04DAA2699A4206DC0A2904D0236894
:1038D0005A1C22601970CFE72246284600F018F8DB
:1038E0000130C9D1E9E723680A205A1C2260187008
:1038F000E5E700BF48A5000868A5000828A500085E
:10390000024B01461868FFF79FBF00BF2000002050
:10391000F8B50E461446054618B183690BB900F098
:10392000EBFF214B9C422AD16C68A369A360A38959
:103930001A072ED5236963B323692068C01A636907
:10394000F6B28342374604DC2146284600F06AFF7F
:1039500028BBA368013BA36023685A1C22601E7029
:1039600063690130834204D0A389DB0719D50A2E8D
:1039700017D12146284600F055FF90B10FE00B4BC0
:103980009C4201D1AC68D0E7094B9C4208BFEC686F
:10399000CBE72146284600F00DF80028CCD04FF0A8
:1039A000FF373846F8BD00BF48A5000868A50008E5
:1039B00028A50008324B70B51D6806460C4625B197
:1039C000AB6913B9284600F097FF2E4B9C420FD1EC
:1039D0006C68B4F90C309AB215072CD4D00611D407
:1039E0000922326043F04003A3814FF0FF303EE0F4
:1039F000254B9C4201D1AC68EBE7244B9C4208BFAD
:103A0000EC68E6E7510712D5616B41B104F144035C
:103A1000994202D0304601F067FB00236363A3891B
:103A200023F02403A3810023636023692360A38917
:103A300043F00803A38123694BB9A38903F42073DE
:103A4000B3F5007F03D02146304601F011F8A2897A
:103A500012F001030CD00023A36063695B42A361F1
:103A6000236953B9B4F90C3013F08000BAD170BD9A
:103A7000920758BF6369A360F2E70020F7E700BF31
:103A80002000002048A5000868A5000828A5000817
:103A90002DE9F74F03690C69A3428046C0F282808A
:103AA000013C01F114074FEA840C00F1140657F8A9
:103AB000245056F8240006EB0C03013507EB0C09E3
:103AC0000193B0FBF5F595B34FF0000A3846B646C2
:103AD000D34650F8042B93B205FB03A34FEA134AD5
:103AE0009BB2ABEB0303120CDEF800B005FB02A2A5
:103AF00013FA8BF34FEA124A1FFA82FBDEF800201A
:103B0000CBEB124202EB23429BB243EA02438145D4
:103B10004FEA224B4EF8043BDBD256F80C3033B957
:103B2000019B043B9E421A4630D3C8F810404046E1
:103B300001F006FA002825DB013530464FF0000C75
:103B400057F8042BD0F800E093B2ACEB0303120C4F
:103B500013FA8EF3C2EB1E4202EB23429BB243EAFE
:103B60000243B9454FEA224C40F8043BE8D256F8EC
:103B7000242006EB84032AB9043B9E421A460BD349
:103B8000C8F81040284603B0BDE8F08F1268043B27
:103B9000002ACAD1013CC5E71268043B002AEFD1D4
:103BA000013CEAE70020EEE72DE9F04F57EC106BFF
:103BB00097B0456A069104460B921293DDF8808017
:103BC000CDE900673DB9102000F092FF6062C0E9C6
:103BD00001550560C560636A196851B15A684A6049
:103BE000012393408B60204600F0C9FF636A0022E6
:103BF0001A603B1EBBBF23F0004301930023012248
:103C0000ACBFC8F80030C8F80020AF4BDDF8048026
:103C100033EA080314D1129A42F20F731360009B27
:103C200023B9C8F31300002800F04285219BDFF878
:103C3000ACB2002B00F044850BF1030300F03EBD55
:103C4000DDE900670022002330463946FCF70CFF0F
:103C5000814668B1129A01231360219B002B00F06A
:103C600024859A4B219A03F1FF3B136000F028BD95
:103C700014AA15A947EC106B204601F0D8F9C8F337
:103C80000A550490002D7CD0C7F3130343F07F5BEB
:103C9000B2464BF4401BA5F2FF35CDF84C90002204
:103CA0008B4B50465946FCF7BFFA81A3D3E900235A
:103CB000FCF772FC80A3D3E90023FCF7B7FA0646B1
:103CC00028460F46FCF7FEFB7DA3D3E90023FCF753
:103CD00063FC02460B4630463946FCF7A7FA064617
:103CE0000F46FCF709FF0022824600233046394682
:103CF000FCF7C4FE48B15046FCF7E4FB32463B46B5
:103D0000FCF7B2FE08B90AF1FF3ABAF1160F59D81A
:103D1000704901EBCA01DDE90023D1E90001FCF79C
:103D2000CBFE002850D00AF1FF3A00230F93149BDA
:103D30005D1BB5F1010849BFC5F1010300230593DF
:103D40004FF0000858BF0593BAF1000F3EDB002387
:103D5000D044CDF838A00793069B092B00F2908041
:103D6000052BC4BF043B0693069BA3F10203CCBF03
:103D700000250125032B00F28F80DFE803F07D7F13
:103D80003171DDE914531D4405F23240202813DD62
:103D9000C0F14000009B08FA00F805F2124023FA37
:103DA00000F048EA0000FCF77DFB01238246A1F108
:103DB000F87B013D139372E7009BC0F1200003FAEA
:103DC00000F0F0E70123B1E70F90B0E7059BA3EB0C
:103DD0000A030593CAF10003079300230E93BBE780
:103DE00001230A930B9B002B59DD02939946666AC7
:103DF00000227260042202F114009842716853D9C3
:103E0000204600F088FE636A3060B9F10E0FD3F8E7
:103E100000B000F2E680002D00F0E3809DED007B15
:103E2000BAF1000F8DED107B74DD2A4A0AF00F0302
:103E300002EBC30393ED007B4FEA2A16F0068DEDEB
:103E4000087B65D5244BDDE91001D3E90823FCF795
:103E5000CDFCCDE9000106F00F0603251E4F4CE016
:103E600001230A930B9B534403F1010902934B4630
:103E7000012BB8BF0123BAE70023B2E70023F0E724
:103E80000125002306930A954FF0FF3302939946CC
:103E9000002212230B92AAE701230A93F4E70123DD
:103EA000029399461A46F5E7013171605200A2E784
:103EB00061436F63A787D23FB3C8608B288AC63F30
:103EC000FB799F501344D33F0000F07FF5A4000816
:103ED0000000F83FB0A5000888A5000821A500084B
:103EE000F10708D5DDE90801D7E90023FCF754FB09
:103EF000CDE90801013576100837002EF0D1DDE953
:103F00000823DDE90001FCF771FCCDE900011AE0AE
:103F10000225A3E700F0A080CAF100069F4BA04F46
:103F200006F00F0203EBC203D3E90023DDE9100121
:103F3000FCF732FBCDE90001361100230225002EEB
:103F40007FD1002BE1D10F9B002B00F08780DDE9B2
:103F500000670022934B30463946FCF78FFD00285E
:103F60007CD0B9F1000F79D0029B002B35DD0AF12E
:103F7000FF330893394600228B4B3046FCF70CFB8D
:103F8000CDE90001029F01352846FCF79BFADDE9E7
:103F90000023FCF701FB0022844BFCF747F90546A0
:103FA000A1F15076002F5DD10022814BDDE90001A7
:103FB000FCF73AF92A463346CDE90001FCF77CFDCF
:103FC000002840F088822A4606F10043DDE900011E
:103FD000FCF754FD002840F07C82DDE91023CDE998
:103FE0000023159B002BC0F25081BAF10E0F00F395
:103FF0004C816A4B03EBCA0393ED007B0B9B002BB8
:104000008DED027B80F2D880B9F1000F00F3D480EF
:1040100040F05E820022664B51EC170BFCF7BCFAB5
:10402000DDE90023FCF73EFD4F464E46002840F0F8
:10403000348231230BF101058BF800300AF1010ABB
:104040002FE2F20705D5D7E90023FCF7A5FA0135E1
:1040500001237610083772E7022574E7CDF820A017
:104060004F4691E74D4B03EBC70353E902010A9B0F
:10407000002B47D002460B4600204E49FCF7B6FB0A
:104080002A463346FCF7D0F8CDE90C015D46DDE960
:104090000001FCF731FD0646FCF714FA02460B4618
:1040A000DDE90001FCF7C0F8303605F8016BDDE909
:1040B0000C23CDE90001FCF7E1FC002863D1DDE928
:1040C000002300203749FCF7AFF8DDE90C23FCF7AB
:1040D000D5FC002840F0B780A5EB0B039F427FF78B
:1040E0007CAF0022304BDDE90C01FCF755FA0022D1
:1040F000CDE90C012C4BDDE90001FCF74DFACDE9CF
:104100000001C4E72A463346FCF746FACDE90C0124
:104110000BEB07055E46DDE90001FCF7EDFC074609
:10412000FCF7D0F9303702460B46DDE90001FCF719
:104130007BF806F8017BAE42CDE900014FF00002AA
:1041400026D11C4BDDE90C01FCF770F802460B464A
:10415000DDE90001FCF7B0FC002874D1DDE90C2397
:1041600000201449FCF760F802460B46DDE9000127
:10417000FCF784FC00283FF430AF15F8013C302BED
:1041800005F1FF3202D0DDF820A04AE01546F4E741
:10419000054BFCF701FACDE90001BCE7B0A500082A
:1041A00088A500080000F03F0000244000001C40EB
:1041B000000014400000E03FDDE900675D46DDE9F6
:1041C000022330463946FCF711FBFCF795FC80468C
:1041D000FCF778F9DDE90223FCF7DEF902460B462D
:1041E0003046394608F13006FCF71EF805F8016B39
:1041F000A5EB0B06B14502460B4639D1FCF716F884
:10420000DDE9022306460F46FCF756FCC8B9DDE996
:10421000022330463946FCF727FC10B118F0010F95
:104220000FD10499204600F0AAFC0023129A2B70AB
:104230000AF101031360219B002B00F041821D60F5
:104240003EE2CDF820A015F8012C392A05F1FF3304
:1042500008D19B450AD1089B0133089330238BF882
:1042600000305B461A7801321A708CE71D46EAE787
:1042700000229B4BFCF790F90022002306460F46D4
:10428000FCF7F2FB00289AD0CBE70A9A002A00F04C
:104290008B80069A012A6EDC139A002A67D003F2FB
:1042A0003343079F059D059A01211A442046059234
:1042B000984400F004FD0646002D0CDDB8F1000F17
:1042C00009DD4545059A2B46A8BF4346D21A0592FB
:1042D000ED1AA8EB0308079BEBB10A9B002B67D0F4
:1042E0008FB131463A46204600F088FD049A0146D7
:1042F0000646204600F0ECFC04990890204600F0A9
:104300003EFC089B0493079BDA1B04D004992046CB
:1043100000F074FD04900121204600F0D0FC0E9BBB
:104320000746002B00F0D0811A460146204600F0D7
:1043300065FD069B012B074640DC009B002B39D115
:10434000019BC3F31303002B36D1019B23F00043E1
:104350001B0D1B052BB1059B0133059308F10108CB
:10436000012307930E9B002B2AD1012030E0149BE0
:10437000C3F1360395E7079B09F1FF37BB42BFBF87
:10438000079B0797FA1A0E9BBBBF9B180E93DF1B68
:104390000027B9F1000FB5BF059B059DA3EB0905EB
:1043A0004B46B8BF00237EE7079F059D0A9E83E723
:1043B000079AABE70023D4E7009BD2E700230793DB
:1043C0003B6907EB8303186900F02BFCC0F1200068
:1043D000404410F01F0047D0C0F12003042B3BDD08
:1043E000059BC0F11C000344059305448044059BD4
:1043F000002B05DD1A460499204600F04DFD04907F
:10440000B8F1000F05DD39464246204600F044FD74
:1044100007460F9B53B33946049800F091FD0028DE
:1044200024DA00230A220499204600F0BFFB0A9BED
:1044300004900AF1FF3A002B00F04D810023314631
:104440000A22204600F0B2FB029B002B06464FDCFE
:10445000069B022B4CDD11E0C9D0059A1C331A448F
:1044600005921D449844C2E70346F6E7B9F1000FF0
:1044700038DC069B022B35DDCDF80890029B63B932
:1044800039460522204600F091FB01460746049874
:1044900000F056FD00283FF7CCAD0B9B5D466FEA60
:1044A000030A4FF000093946204600F068FB002E51
:1044B0003FF4B7AEB9F1000F05D0B14503D049467E
:1044C000204600F05CFB3146204600F058FBA8E691
:1044D00000273E46E1E7DDF820A03E46A9E500BF03
:1044E000000024400A9BCDF80890002B00F0FA80D1
:1044F000002D05DD31462A46204600F0CDFC06465B
:10450000079B002B4CD07168204600F004FB3269F9
:1045100002320546920006F10C010C3000F0F0FA70
:1045200001222946204600F0B7FC009BCDF814B0CC
:1045300003F00103B1460793064639460498FFF796
:10454000A7FA4946054600F13008049800F0F8FC47
:10455000324600903946204600F00CFDC368024602
:1045600003BB01460890049800F0EAFC089A034651
:1045700011462046089300F002FB089BA3B9069A57
:1045800092B9079A82B9B8F1390F29D0009B002B54
:1045900001DD05F13108059B5D1C83F8008082E791
:1045A0003046C2E70123E3E7009A002A04DB25D165
:1045B000069A1ABB079A0ABB002BECDD012204996C
:1045C000204600F069FC3946049000F0B9FC002850
:1045D00003DCE0D118F0010FDDD0B8F1390FD8D1EC
:1045E000059B059A5D1C3923137015F8013C392B86
:1045F00005F1FF324FD00133137054E7059A002BB9
:1046000002F1010506DDB8F1390FE9D008F1010822
:10461000059BC2E7029A05F8018CA5EB0B039342B8
:1046200021D000230A220499204600F0BFFAB145A8
:1046300004904FF000034FF00A024946204605D18E
:1046400000F0B4FA81460646059576E700F0AEFA2A
:104650003146814600230A22204600F0A7FA06468A
:10466000F2E74FF0000901220499204600F014FC03
:104670003946049000F064FC0028B6DC02D118F042
:10468000010FB2D115F8013C302B05F1FF327FF458
:104690000AAF1546F6E7934505D131230AF1010A21
:1046A0008BF80030FFE615469FE7DFF864B007E0BF
:1046B000219BDFF860B01BB10BF10803219A136056
:1046C000584617B0BDE8F08F069B012B7FF735AE3B
:1046D0000E9B079349E6029B002B03DC069B022BF3
:1046E0003FF7CCAE5D4639460498FFF7D1F900F1AB
:1046F000300805F8018B029AA5EB0B039A42B0DD56
:1047000000230A220499204600F050FA0490EAE7B8
:10471000F4A4000818A500088A892DE9F04105468F
:1047200010070C4658D44B68002B05DC0B6C002B93
:1047300002DC0020BDE8F081E66A002EF9D00023FB
:1047400012F480522F68216A2B6032D0606DA389E9
:104750005A0705D56368C01A636B0BB1236CC01A86
:1047600000230246E66A216A2846B047431CA38913
:1047700006D129681D2948D8294ACA40D60744D5F8
:1047800000226260D9042269226004D5421C01D152
:104790002B6803B96065616B2F600029C9D004F1F3
:1047A0004403994202D0284600F09EFC002060633A
:1047B000C0E701232846B047411CC8D12B68002B15
:1047C000C5D01D2B01D0162B01D12F60B1E7A389D5
:1047D00043F04003A381ADE70F69002FA9D09307F1
:1047E0000E6808BF4B690F6018BF0023A6EB0708CF
:1047F0008B60B8F1000F9CDD43463A46216AA66AF9
:104800002846B047002806DCA38943F04003A38173
:104810004FF0FF308EE70744A8EB0008E9E700BF40
:104820000100402038B50B6905460C46DBB118B1D4
:1048300083690BB900F060F80C4B9C4209D16C689D
:10484000B4F90C307BB121462846BDE83840FFF76B
:1048500063BF074B9C4201D1AC68F1E7054B9C421A
:1048600008BFEC68ECE7002038BD00BF48A5000891
:1048700068A5000828A50008002310B50446C0E973
:104880000033836081814366C281C0E90433836160
:10489000194608225C30FEF75BFB054B6362054B53
:1048A000A362054BE362054B2462236310BD00BF86
:1048B000D9540008FB540008335500085755000828
:1048C000014900F085B800BF2548000870B54A1EB0
:1048D000682555430E4605F1740100F053FC04466B
:1048E00040B10021C0E900160C30A06005F168025B
:1048F000FEF72EFB204670BD836910B5044633BB1E
:10490000C0E912330365124B124A1B688262984257
:1049100004BF0123836100F01FF86060204600F0AF
:104920001BF8A060204600F017F80022E060042188
:104930006068FFF7A1FF01220921A068FFF79CFF33
:1049400002221221E068FFF797FF0123A36110BD47
:10495000E0A40008C1480008F8B51B4B1E68B36905
:10496000074613B93046FFF7C7FF4836D6E901348A
:10497000013B03D5336833B13668F7E7B4F90C501F
:104980006DB16834F4E704213846FFF79FFF3060CB
:104990000028F1D10C233B6004462046F8BD0B4BA8
:1049A0006566C4E90055A560C4E90335C4E9055549
:1049B0000822294604F15C00FEF7CAFAC4E90D5545
:1049C000C4E91255E9E700BFE0A400080100FFFFB9
:1049D0002DE9F8438046894600F14804002614B9C1
:1049E0003046BDE8F883D4E90175013F01D524685C
:1049F000F5E7AB89012B07D9B5F90E30013303D0A8
:104A000029464046C84706436835EEE7044B1B6815
:104A1000186A044B002808BF1846F030704700BFE2
:104A2000200000208400002070B50E46B1F90E1061
:104A3000002996B014461D4607DA00232B60B3897F
:104A40001A0610D44FF480630EE06A4600F0AAFD07
:104A50000028F2DB019A02F47042A2F500535A4298
:104A60005A412A60EEE740230020236016B070BD53
:104A70008B8973B59D0706460C4607D504F147039D
:104A8000236023610123636102B070BD01AB6A46FC
:104A9000FFF7CAFF00990546304600F073FB48B99E
:104AA000B4F90C309A05EFD423F0030343F002036A
:104AB000A381E3E70D4BB362A389206043F0800339
:104AC000A381009B6361019B20615BB1B4F90E106F
:104AD000304600F079FD28B1A38923F0030343F0A9
:104AE0000103A381A3891D43A581CDE7C148000827
:104AF000024B0146186800F045BB00BF20000020B3
:104B000010B5431E0A44914200D110BD11F8014B6B
:104B100003F8014FF7E770B5456A04460E463DB904
:104B20001020FFF7E5FF6062C0E901550560C56030
:104B3000656AEB6883B1636ADB6853F82600B8B92D
:104B4000012101FA06F56A1D9200204600F0BEFA26
:104B500060B1C0E901650EE021220421204600F089
:104B6000B5FA636AE860DB68002BE4D1002070BD11
:104B7000026843F826200023C0E90333F7E770B545
:104B8000446A06460D463CB91020FFF7B1FF70623B
:104B9000C0E901440460C4603DB1736A6A68DB68BF
:104BA00053F82210296043F8225070BD2DE9F041DE
:104BB0000D691F4606460C4601F1140C0023DCF873
:104BC000000081B202FB01710F0C000C02FB0070AF
:104BD00089B2013301EB00419D424FEA10474CF886
:104BE000041BECDCD7B1A368AB4212DC6168304631
:104BF0000131FFF790FF2269023204F10C01804677
:104C000092000C30FFF77CFF21463046FFF7B7FFDC
:104C1000444604EB850301355F6125612046BDE80C
:104C2000F081020C12040346B2B90304102013F001
:104C30007F4F04BF1B02083013F0704F04BF1B01ED
:104C4000043013F0404F04BF9B000230002B06DB02
:104C50005B0003D5013070470020E8E72020704753
:104C6000036813F0070201460BD0DA0723D4980734
:104C700049BF5B089B0801200B605CBF0B600220F2
:104C8000704798B2A8B91B0C102013F0FF0F04BF97
:104C90001B0A08301A0704BF1B0904309A0704BF17
:104CA0009B080230DA0702D45B0806D001300B60A3
:104CB00070471046E9E7002070472020704710B584
:104CC0000C460121FFF727FF01224461026110BD5C
:104CD0002DE9F74F14460A6923699A42B8BF0B467B
:104CE0008846BCBFA0461C46D8F81070D4F8109077
:104CF000D8F80830D8F8041007EB0906B342B8BF5B
:104D00000131FFF708FF00F1140505EB860E2B4675
:104D10000022734516D304F1140208F1140102EBCA
:104D2000890301EB87070093009B019293420CD803
:104D3000002E03DD5EF8043D002B5DD0066103B05C
:104D4000BDE8F08F43F8042BE3E7B2F800B0BBF105
:104D5000000F23D08946AC464FF0000859F8044BA9
:104D6000DCF800A0A3B21FFA8AFA0BFB03A34FEAF8
:104D7000144ADCF8004043444FEA14480BFB0A8411
:104D800004EB1344E2469BB243EA04434F454FEA27
:104D900014484AF8043B2BD8CCF80480019BB3F8A4
:104DA00002A00432BAF1000F20D02B688946A84631
:104DB0004FF0000BB9F800C0B8F802400AFB0C44F1
:104DC0005C44C4469BB243EA04434CF8043B59F8A4
:104DD000043BB8F804B01B0C0AFB03B303EB144309
:104DE0004F454FEA134B05D8C8F8043004359BE70C
:104DF000D446B3E7E046DDE7013E99E72DE9F84305
:104E0000154612F0030206460F4607D0013A214C20
:104E1000002354F82220FFF7C9FE0746AD1035D015
:104E2000746A3CB91020FFF763FE7062C0E9014468
:104E30000460C460D6F82480D8F808404CB940F229
:104E400071213046FFF73BFF0023C8F808000446F5
:104E500003604FF00008EB070AD53946224630467A
:104E6000FFF736FF394681463046FFF788FE4F464A
:104E70006D100BD0206838B9224621463046FFF726
:104E800027FF2060C0F800800446E4E73846BDE80C
:104E9000F88300BF78A600082DE9F0470C464FEADA
:104EA000621A236949680AEB0309A3680746164694
:104EB00009F10105AB4232DB3846FFF72CFE002337
:104EC000804600F114011A4653452BDB20692AEA7B
:104ED000EA7A04F1140316F01F0201EB8A0103EBD6
:104EE000800C25D0C2F1200E00201E688A46964014
:104EF00030434AF8040B53F8040B9C4520FA0EF09B
:104F000014D8486008B109F10205013D3846C8F8D7
:104F100010502146FFF733FE4046BDE8F0870131CF
:104F20005B00C7E741F823200133CDE75146DCE7BA
:104F3000043953F8042B41F8042F9C45F9D8E4E7D1
:104F400003690A699B1A30B50CD1920014301431F0
:104F50008418114454F8045D51F8042D954203D08F
:104F600005D30123184630BDA042F3D3FAE74FF032
:104F7000FF33F7E72DE9F0470D460746114628466F
:104F80001446FFF7DDFF061E08D131463846FFF70D
:104F9000C2FD0123C0E90436BDE8F087A4BF234663
:104FA0002C4638466168A6BF1D4600260126FFF73D
:104FB000B2FD2B69C660266905F1140904F11402DB
:104FC00002EB860709EB830800F114054FF0000E91
:104FD00052F804AB59F8044B1EFA8AF1A3B2C91A6D
:104FE000230CC3EB1A4303EB214389B24FEA234E50
:104FF000C84541EA0343944645F8043BE8D8BC451C
:1050000004D355F8043D83B10661C5E75CF8041B81
:105010001EFA81F31A1402EB11429BB243EA0243D7
:105020004FEA224E45F8043BE9E7013EE9E72DE966
:10503000F7430E46012159EC108B1546FFF76BFD27
:10504000C9F30A540746C9F3130334BB0193B8F1FB
:10505000000327D002A840F8083DFFF701FE0099A1
:10506000F0B1019AC0F1200302FA03F30B43C240EE
:105070007B610192019BBB61002B14BF02210121C6
:105080003961C4B1A4F2334404443460C0F1350042
:105090002860384603B0BDE8F08343F48013D5E7B9
:1050A0007961E7E701A8FFF7DBFD019B7B61012147
:1050B00039612030E5E707EB8103A0F23240306030
:1050C0001869FFF7AEFDC0EB4110E1E738B502FB10
:1050D00001F4214600F056F8054618B12246002199
:1050E000FDF736FF284638BD38B50546002945D0BE
:1050F00051F8043C0C1F002BB8BFE41800F098FADC
:105100001F4A1368104633B9636014602846BDE82F
:10511000384000F08EBAA3420CD92168621893423D
:1051200004BF1A685B68636004BF521822600460A1
:10513000ECE713465A680AB1A242FAD9196858181E
:10514000A0420BD120680144581882421960DDD179
:10515000106852685A6001441960D7E702D90C23DD
:105160002B60D3E7206821188A4204BF1168526877
:10517000626004BF091821605C60C7E738BD00BFEA
:105180005C02002070B5CD1C25F0030508350C2D00
:1051900038BF0C25002D064601DBA94203D90C239C
:1051A0003360002070BD00F043FA214A14682146A4
:1051B00091B9204C23681BB9304600F07DF920607E
:1051C0002946304600F078F9431C24D10C23336083
:1051D000304600F02EFAE4E70B685B1B18D40B2B6B
:1051E0000FD90B60CD50CC18304600F022FA04F1F4
:1051F0000B00231D20F00700C31AD3D05A42E250FF
:10520000D0E78C424B6816BF636013600C46EBE737
:105210000C464968CCE7C41C24F00304A04205D026
:10522000211A304600F048F90130CFD02560DBE785
:105230005C020020600200209368013B002B10B448
:10524000936008DA9469A34201DB0A2903D15DF86F
:10525000044BFEF75DBB1368581C106019700846BC
:105260005DF8044B7047F8B506460F461446D5184E
:10527000AC4201D1002007E03A4614F8011B304649
:10528000FFF7DAFF431CF3D1F8BD00002DE9F04F22
:105290000C469DB017461D46064618B183690BB9EA
:1052A000FFF72AFB7C4B9C4258D17468A3891807EE
:1052B0005ED52369002B5BD00023099320238DF852
:1052C000293030238DF82A3003954FF0010BB84672
:1052D000454615F8013B0BB1252B54D1B8EB070A15
:1052E0000BD053463A4621463046FFF7BCFF01300B
:1052F00000F0C280099B5344099398F80030002BBA
:1053000000F0BA8000234FF0FF32CDE9052304936B
:1053100007938DF853301A93A846052218F8011BFD
:105320005E48FAF72DFF049B78BBD90644BF2022C4
:105330008DF853201A0744BF2B228DF853202A786A
:105340002A2A2AD0079AA84600200A25414611F8A1
:10535000013B303B092B69D960B324E0504B9C42A0
:1053600001D1B468A2E74F4B9C4208BFF4689DE7A7
:1053700021463046FEF71EFB00289DD04FF0FF303F
:105380001DB0BDE8F08FA846A2E7444A801A0BFA88
:1053900000F0184304904546BEE7039A111D1268B9
:1053A0000391002A01DB079204E0524243F002031A
:1053B0000792049398F800302E2B0ED198F8013004
:1053C0002A2B38D1039B1A1D1B680392002BB8BFF0
:1053D0004FF0FF3308F102080593334D98F80010A1
:1053E00003222846FAF7CCFE40B14023401B03FAC3
:1053F00000F0049B034308F10108049398F800109F
:105400002A488DF82810062208F10107FAF7B8FE9D
:10541000002837D0264B1BBB039B073323F0070321
:1054200008330393099B4B44099350E705FB023271
:10543000012088468AE7002308F1010805931946F0
:105440000A25404610F8012B303A092A03D9002BCF
:10545000C3D00591C1E705FB012101238046F0E798
:1054600003AB00932246134B04A93046FDF70CFE14
:10547000B0F1FF3F8146D5D1A3895B063FF57EAFF2
:1054800009987DE703AB009322460A4B04A93046F6
:10549000FEF7B0F8ECE700BF48A5000884A60008B6
:1054A00068A5000828A500088AA600088EA600089E
:1054B000893000086752000838B5064C00230546BD
:1054C0000846236000F0FEF8431C02D1236803B1B4
:1054D0002B6038BDC414002010B50C46B1F90E1075
:1054E00000F0A8F80028ABBF636DA3891B1823F454
:1054F0008053ACBF6365A38110BD2DE9F0411F4609
:105500008B89DB0505460C46164605D5022300228D
:10551000B1F90E1000F068F8A389B4F90E1023F465
:105520008053A38132463B462846BDE8F04100F057
:1055300017B810B50C46B1F90E1000F055F8431C21
:10554000A38915BF606523F4805343F48053A3817E
:1055500018BFA38110BDB1F90E1000F013B8000000
:1055600038B5074C054608461146002222601A4607
:10557000FDF7EEFB431C02D1236803B12B6038BD5D
:10558000C414002038B5064C0023054608462360A5
:1055900000F070F8431C02D1236803B12B6038BDC2
:1055A000C414002038B5074C0023054608461146B0
:1055B000236000F067F8431C02D1236803B12B601D
:1055C00038BD00BFC414002038B5064C0023054682
:1055D0000846236000F05EF8431C02D1236803B143
:1055E0002B6038BDC414002038B5074C054608466A
:1055F0001146002222601A4600F054F8431C02D1E2
:10560000236803B12B6038BDC414002082B001B9F7
:1056100001A942B14BB113780B601278101C18BF6E
:10562000012002B070471046FBE76FF00100F8E779
:105630007047704738B5074C0546084611460022AA
:1056400022601A4600F036F8431C02D1236803B1E9
:105650002B6038BDC414002049B1FF2A85BF8A23BE
:1056600003600A704FF0FF3098BF01207047084672
:1056700070470000024B58221A604FF0FF3070470D
:10568000C4140020024B58221A604FF0FF307047BC
:10569000C4140020024B58221A600020704700BF3B
:1056A000C4140020024B58221A604FF0FF3070479C
:1056B000C4140020024B58221A604FF0FF3070478C
:1056C000C4140020044A05491368002B08BF0B4688
:1056D000184410601846704764020020C814002067
:1056E000F8B500BFF8BC08BC9E467047F8B500BFCF
:0856F000F8BC08BC9E4670479F
:1056F800000000000000000001020304060708097A
:105708000000000001020304506C6561736520709D
:105718007265737320427574746F6E210000000007
:10572800546869732069732046312100546869738D
:1057380020697320463221000D0A204361726420DB
:10574800696E69742073756363657373210D000056
:10575800534420436172642054657374205061730C
:1057680073656421000000000D0A20436172642003
:10577800696E6974206661696C6564210D000000BA
:10578800446F6E27742046696E6420534420436139
:10579800726421000A0D54686520466C6173685F65
:1057A80049443A307825580A0D0000000A0D0A0DC0
:1057B800577269746520746F2074785F62756666C5
:1057C80065723A0A0D0A0D003078253032582000EB
:1057D8000A0D0A0D526561642066726F6D20727839
:1057E8005F6275666665723A0A0D0A0D0000000070
:1057F8004572723A44617461205265616420616E39
:1058080064205772697465206172656E2774204D33
:1058180061746368696E672E0A0D00000A0D5350A3
:10582800492D474432355131362054657374205020
:105838006173736564210A0D000000004744323526
:105848005131362054657374205061737365642137
:10585800000000000A0D53504920466C6173683AF5
:105868002052656164204944204661696C210A0D13
:1058780000000000474432355131362054657374B6
:10588800204661696C656421000000000D0A2074DF
:1058980068652063617264206973206C6F636B654F
:1058A800642100000000000000000000000000006B
:1058B8000000202020202000002000002828500080
:1058C800000000000000000000005050F85050F8A0
:1058D80050500000002070A8A0603028A870200058
:1058E800000048A8B0A874345448000000002050B4
:1058F800506CA8A894680000404080000000000098
:10590800000000000810102020202020101008009F
:10591800402020101010101020204000000000200F
:10592800A87070A82000000000000010107C101063
:10593800000000000000000000000000404080005F
:105948000000000000FC0000000000000000000053
:10595800000000000040000000040808101020208B
:10596800404080000000708888888888887000001F
:105978000000206020202020207000000000708897
:105988008810204080F8000000007088083008085F
:105998008870000000001030305090F81038000077
:1059A8000000F88080F08808887000000000304807
:1059B80080B0C88888700000000078081010202087
:1059C8002020000000007088887088888870000097
:1059D8000000708888986808906000000000000047
:1059E800200000000020000000000000002000004F
:1059F800002020000000081020404020100800006F
:105A080000000000FC00FC00000000000000402036
:105A1800100808102040000000007088881020201E
:105A2800002000000000384494B4B4B844380000A2
:105A3800000020203050507848CC00000000F0488A
:105A48004870484848F000000000788880808080CE
:105A5800887000000000F0484848484848F00000B6
:105A68000000F8485070504048F800000000F8481E
:105A78005070504040E000000000384880809C880A
:105A8800483000000000CC484878484848CC00001E
:105A98000000F8202020202020F8000000007C10C2
:105AA80010101010101090E00000EC4850605048A2
:105AB80048EC00000000E0404040404044FC00004A
:105AC8000000DCD8D8D8A8A8A8AC00000000DC48A2
