:020000040800F2
:1000000000000120AD340008D9120008DB120008FE
:10001000DD120008DF120008E112000800000000F5
:10002000000000000000000000000000E3120008D3
:10003000E512000800000000E7120008E9120008BD
:10004000FD340008FD340008FD340008FD340008CC
:10005000FD340008FD340008FD340008FD340008BC
:10006000FD340008FD340008FD340008FD340008AC
:10007000FD340008FD340008FD340008FD3400089C
:10008000FD340008FD340008FD340008FD3400088C
:10009000FD340008FD340008FD340008FD3400087C
:1000A000FD340008FD340008FD340008FD3400086C
:1000B000FD340008FD340008FD340008FD3400085C
:1000C000FD340008FD340008FD340008FD3400084C
:1000D000FD340008FD340008FD340008FD3400083C
:1000E000FD340008FD340008FD340008FD3400082C
:1000F000FD340008FD340008FD340008FD3400081C
:10010000FD340008F1120008FD340008FD34000839
:10011000FD340008FD340008FD340008FD340008FB
:10012000FD340008FD340008FD340008FD340008EB
:1001300010B5054C237833B9044B13B10448AFF321
:1001400000800123237010BDD801002000000000B2
:10015000D85C000808B5034B1BB103490348AFF353
:10016000008008BD00000000DC010020D85C000811
:10017000034613F8012B002AFBD1181A01387047E7
:1001800001F0FF01102A2BDB10F0070F08D010F848
:10019000013B013A8B422DD010F0070F42B3F6D14C
:1001A000F0B441EA012141EA014122F007047FF065
:1001B00000070023F0E80256083C85EA010586EABC
:1001C000010685FA47F5A3FA87F586FA47F6A5FAF8
:1001D00087F68EB9EED1F0BC01F0FF0102F0070204
:1001E00032B110F8013B013A83EA010313B1F8D1AF
:1001F0000020704701387047002D06BF3546033890
:10020000073815F0010F07D1013015F4807F02BFC8
:10021000013015F4C03F0130F0BC0138704700BF19
:1002200081F0004102E000BF83F0004330B54FEAA7
:1002300041044FEA430594EA050F08BF90EA020F14
:100240001FBF54EA000C55EA020C7FEA645C7FEAA7
:10025000655C00F0E2804FEA5454D4EB5555B8BFCA
:100260006D420CDD2C4480EA020281EA030382EA3B
:10027000000083EA010180EA020281EA0303362DCD
:1002800088BF30BD11F0004F4FEA01314FF4801CA0
:100290004CEA113102D0404261EB410113F0004FB2
:1002A0004FEA03334CEA133302D0524263EB430369
:1002B00094EA050F00F0A780A4F10104D5F1200E07
:1002C0000DDB02FA0EFC22FA05F2801841F1000162
:1002D00003FA0EF2801843FA05F359410EE0A5F136
:1002E00020050EF1200E012A03FA0EFC28BF4CF067
:1002F000020C43FA05F3C01851EBE37101F000451D
:1003000007D54FF0000EDCF1000C7EEB00006EEB29
:100310000101B1F5801F1BD3B1F5001F0CD34908B3
:100320005FEA30004FEA3C0C04F101044FEA44520A
:1003300012F5800F80F09A80BCF1004F08BF5FEA91
:10034000500C50F1000041EB045141EA050130BD71
:100350005FEA4C0C404141EB010111F4801FA4F114
:100360000104E9D191F0000F04BF01460020B1FA69
:1003700081F308BF2033A3F10B03B3F120020CDAA1
:100380000C3208DD02F1140CC2F10C0201FA0CF07F
:1003900021FA02F10CE002F11402D8BFC2F1200CE4
:1003A00001FA02F120FA0CFCDCBF41EA0C0190409A
:1003B000E41AA2BF01EB0451294330BD6FEA0404E3
:1003C0001F3C1CDA0C340EDC04F11404C4F12002CE
:1003D00020FA04F001FA02F340EA030021FA04F3E0
:1003E00045EA030130BDC4F10C04C4F1200220FA37
:1003F00002F001FA04F340EA0300294630BD21FA75
:1004000004F0294630BD94F0000F83F4801306BF3A
:1004100081F480110134013D4EE77FEA645C18BF2E
:100420007FEA655C29D094EA050F08BF90EA020FC5
:1004300005D054EA000C04BF1946104630BD91EABD
:10044000030F1EBF0021002030BD5FEA545C05D1C0
:100450004000494128BF41F0004130BD14F58004FF
:100460003CBF01F5801130BD01F0004545F0FE4173
:1004700041F470014FF0000030BD7FEA645C1ABFA8
:10048000194610467FEA655C1CBF0B46024650EADF
:10049000013406BF52EA033591EA030F41F400210B
:1004A00030BD00BF90F0000F04BF0021704730B591
:1004B0004FF4806404F132044FF000054FF0000166
:1004C00050E700BF90F0000F04BF0021704730B527
:1004D0004FF4806404F1320410F0004548BF4042FC
:1004E0004FF000013EE700BF42004FEAE2014FEA51
:1004F00031014FEA02701FBF12F07F4393F07F4F2C
:1005000081F06051704732F07F4208BF704793F02E
:100510007F4F04BF41F40021704730B54FF4607441
:1005200001F0004521F000411CE700BF50EA010244
:1005300008BF704730B54FF000050AE050EA0102ED
:1005400008BF704730B511F0004502D5404261EB5D
:1005500041014FF4806404F132045FEA915C3FF49E
:10056000D8AE4FF003025FEADC0C18BF03325FEA3B
:10057000DC0C18BF033202EBDC02C2F1200300FAEC
:1005800003FC20FA02F001FA03FE40EA0E0021FA11
:1005900002F11444BDE600BF70B54FF0FF0C4CF4FF
:1005A000E06C1CEA11541DBF1CEA135594EA0C0FB1
:1005B00095EA0C0F00F0DEF82C4481EA030621EAEC
:1005C0004C5123EA4C5350EA013518BF52EA033527
:1005D00041F4801143F4801338D0A0FB02CE4FF0D9
:1005E0000005E1FB02E506F00042E0FB03E54FF009
:1005F0000006E1FB03569CF0000F18BF4EF0010E01
:10060000A4F1FF04B6F5007F64F5407404D25FEAFC
:100610004E0E6D4146EB060642EAC62141EA5551AF
:100620004FEAC52040EA5E504FEACE2EB4F1FD0CF1
:1006300088BFBCF5E06F1ED8BEF1004F08BF5FEA6F
:10064000500E50F1000041EB045170BD06F0004621
:1006500046EA010140EA020081EA0301B4EB5C04CE
:10066000C2BFD4EB0C0541EA045170BD41F48011C6
:100670004FF0000E013C00F3AB8014F1360FDEBFEB
:10068000002001F0004170BDC4F10004203C35DAC7
:100690000C341BDC04F11404C4F1200500FA05F34A
:1006A00020FA04F001FA05F240EA020001F00042EB
:1006B00021F0004110EBD37021FA04F642EB060161
:1006C0005EEA430E08BF20EAD37070BDC4F10C048B
:1006D000C4F1200500FA04F320FA05F001FA04F24F
:1006E00040EA020001F0004110EBD37041F100013B
:1006F0005EEA430E08BF20EAD37070BDC4F1200546
:1007000000FA05F24EEA020E20FA04F301FA05F2AD
:1007100043EA020321FA04F001F0004121FA04F255
:1007200020EA020000EBD3705EEA430E08BF20EA25
:10073000D37070BD94F0000F0FD101F0004640005F
:1007400041EB010111F4801F08BF013CF7D041EAE1
:10075000060195F0000F18BF704703F000465200E5
:1007600043EB030313F4801F08BF013DF7D043EAB6
:100770000603704794EA0C0F0CEA135518BF95EA6C
:100780000C0F0CD050EA410618BF52EA4306D1D1F3
:1007900081EA030101F000414FF0000070BD50EA12
:1007A000410606BF1046194652EA430619D094EA9C
:1007B0000C0F02D150EA013613D195EA0C0F05D186
:1007C00052EA03361CBF104619460AD181EA0301DA
:1007D00001F0004141F0FE4141F470014FF0000092
:1007E00070BD41F0FE4141F4780170BD70B54FF02D
:1007F000FF0C4CF4E06C1CEA11541DBF1CEA1355AD
:1008000094EA0C0F95EA0C0F00F0A7F8A4EB05048E
:1008100081EA030E52EA03354FEA013100F0888085
:100820004FEA03334FF0805545EA131343EA12634E
:100830004FEA022245EA111545EA10654FEA002603
:100840000EF000419D4208BF964244F1FD0404F5BC
:10085000407402D25B084FEA3202B61A65EB030518
:100860005B084FEA32024FF480104FF4002CB6EBD5
:10087000020E75EB030E22BFB61A754640EA0C0055
:100880005B084FEA3202B6EB020E75EB030E22BF95
:10089000B61A754640EA5C005B084FEA3202B6EBD6
:1008A000020E75EB030E22BFB61A754640EA9C0095
:1008B0005B084FEA3202B6EB020E75EB030E22BF65
:1008C000B61A754640EADC0055EA060E18D04FEA23
:1008D000051545EA16754FEA06164FEAC30343EAC3
:1008E00052734FEAC2025FEA1C1CC0D111F4801F90
:1008F0000BD141EA00014FF000004FF0004CB6E789
:1009000011F4801F04BF01430020B4F1FD0C88BF27
:10091000BCF5E06F3FF6AFAEB5EB030C04BFB6EB32
:10092000020C5FEA500C50F1000041EB045170BD25
:100930000EF0004E4EEA113114EB5C04C2BFD4EB52
:100940000C0541EA045170BD41F480114FF0000ED6
:10095000013C90E645EA060E8DE60CEA135594EA52
:100960000C0F08BF95EA0C0F3FF43BAF94EA0C0F55
:100970000AD150EA01347FF434AF95EA0C0F7FF4CA
:1009800025AF104619462CE795EA0C0F06D152EA1E
:1009900003353FF4FDAE1046194622E750EA410602
:1009A00018BF52EA43067FF4C5AE50EA41047FF413
:1009B0000DAF52EA43057FF4EBAE12E74FF0FF3C78
:1009C00006E000BF4FF0010C02E000BF4FF0010C49
:1009D0004DF804CD4FEA410C7FEA6C5C4FEA430CC2
:1009E00018BF7FEA6C5C1BD001B050EA410C0CBF11
:1009F00052EA430C91EA030F02BF90EA020F002073
:100A0000704710F1000F91EA030F58BF994208BFD9
:100A100090422CBFD8176FEAE37040F00100704796
:100A20004FEA410C7FEA6C5C02D150EA013C07D1ED
:100A30004FEA430C7FEA6C5CD6D152EA033CD3D038
:100A40005DF8040B704700BF8446104662468C4632
:100A50001946634600E000BF01B5FFF7B7FF002865
:100A600048BF10F1000F01BD4DF808EDFFF7F4FF8E
:100A70000CBF012000205DF808FB00BF4DF808ED19
:100A8000FFF7EAFF34BF012000205DF808FB00BF3C
:100A90004DF808EDFFF7E0FF94BF012000205DF85E
:100AA00008FB00BF4DF808EDFFF7CEFF94BF012013
:100AB00000205DF808FB00BF4DF808EDFFF7C4FF0C
:100AC00034BF012000205DF808FB00BF4FEA410C55
:100AD0007FEA6C5C02D150EA013C0AD14FEA430C38
:100AE0007FEA6C5C02D152EA033C02D14FF0000075
:100AF00070474FF0010070474FEA410212F50012B3
:100B000015D211D56FF47873B3EB625212D94FEA54
:100B1000C12343F0004343EA505311F0004F23FA3E
:100B200002F018BF404270474FF00000704750EA93
:100B3000013005D111F0004008BF6FF00040704750
:100B40004FF00000704700BF40F0BF6040F400303D
:100B5000014BD860704700BF00ED00E070B505465E
:100B60000E461446274BDB6803F4E063B3F5E06FF1
:100B700022D0244BDB6803F4E063B3F5C06F35D0BB
:100B8000204BDB6803F4E063B3F5A06F31D01D4B5D
:100B9000DB6803F4E063B3F5806F2DD0194BDB689D
:100BA00003F4E063B3F5407F29D04FF4A060FFF772
:100BB000CBFF02231A4601E004230022C2F1040203
:100BC0009640C3F104030F2222FA03F31C4034437E
:100BD0002401E4B20C4A531983F8004305F01F01C5
:100BE0006D0901238B4042F8253070BD032301229B
:100BF000E4E702231A46E1E701230322DEE70023AC
:100C00000422DBE700ED00E000E100E008B5204B46
:100C100098422AD010D8A3F5006398421CD003F55F
:100C20008063984217D140F2124000F0B2FA40F2CD
:100C3000124000F0BCFA0EE0164B98421ED003F5AD
:100C40006843984207D140F20E3000F0A2FA40F219
:100C50000E3000F0ACFA08BD40F2114000F099FAF5
:100C600040F2114000F0A3FAF5E740F2134000F023
:100C700090FA40F2134000F09AFAECE740F2144088
:100C800000F087FA40F2144000F091FAE3E700BF69
:100C9000004C00400050004038B504460D46174B4C
:100CA000984221D00BD8A3F50063984218D003F5E1
:100CB0008063984220D1022000F088FA09E0104BAE
:100CC000984215D003F56843984215D1032000F0EF
:100CD0007DFA00EB5500B0FBF5F080B2A06038BDA6
:100CE000022000F073FAF4E7022000F06FFAF0E758
:100CF000022000F06BFAECE70020EAE7004C00402D
:100D000000500040C36843F40053C3607047C36899
:100D100023F008031943C1607047C36823F004033C
:100D20001943C1607047C1F30801416070478B09E6
:100D30001B5801F01F0123FA01F111F0010F01D13D
:100D400000207047012070470023094A13600432D5
:100D500013600432136004321360183213600432DB
:100D60001360043213600C32136004321360704756
:100D70000080014030B4094C2568094C2C40FF2B01
:100D800004D944F00044A3F580739BB208430243A6
:100D900013432343014A136030BC70470480014071
:100DA00000D9FF7F024A136823F480431360704721
:100DB00004800140044B1A6822F4C0521A601A6879
:100DC00010431860704700BF04800140014B186059
:100DD000704700BF00800140014B1868704700BF9A
:100DE00000800140024A136843F480731360704727
:100DF0000480014010B4074B1C6800241C6019607B
:100E000005490B6823F0FF0302431A430A605DF8AB
:100E1000044B7047088001400C800140044B1A6865
:100E200022F440721A601A6810431860704700BFBD
:100E30000C800140024A136843F4806313607047DA
:100E40000C800140014B1868C0B27047108001400F
:100E500003280FD8DFE800F00205080B064B1868DE
:100E60007047064B18687047054B18687047054B6C
:100E700018687047002070471480014018800140B6
:100E80001C8001402080014070B40A4D2B68002373
:100E90002B60094C236803F07E432360074B1E68D8
:100EA00026F0F0061E602860216019680A431A6067
:100EB00070BC704724800140288001402C80014094
:100EC000034A136823F00603014319431160704776
:100ED0002C800140024A136843F0010313607047FD
:100EE0002C800140024A136823F00103136070470D
:100EF0002C800140014B1860704700BF808001408A
:100F0000014B1868704700BF80800140024A136897
:100F100043F00803136070472C800140024A1368B5
:100F200023F00803136070472C800140034B1B68BB
:100F3000034201D1002070470120704734800140F6
:100F4000014B1860704700BF38800140024A1368A7
:100F500018431060704700BF3C800140024A13688C
:100F600023EA0000106070473C800140034B1B687F
:100F7000034201D1002070470120704734800140B6
:100F8000014B1860704700BF38800140F0B401F099
:100F90000F0611F0100F02D0042A02D016430022CF
:100FA00009E046F00306C26B1A43C263F7E74461E7
:100FB0000560013292B2072A14D8012494401C40E3
:100FC000F7D0076895004FF00F0C0CFA05FC27EAE4
:100FD0000C0706FA05F53D432829E8D04829E7D152
:100FE0000461E5E7082203E044614560013292B202
:100FF0000F2A17D8012494401C40F7D0476802F10B
:101000008045083DAD004FF00F0C0CFA05FC27EAB7
:101010000C0706FA05F53D432829E5D04829E4D117
:101020000461E2E7F0BC7047054B984201D0012013
:101030007047042901D9002070470120704700BF84
:101040000004024038B505460C46FFF7EDFF00B935
:10105000FEE7A1000C44A3002B449A6822F0010291
:101060009A6000229A60DA601A615A616B680F22F6
:101070008A4013436B6038BD70B506460D46144672
:10108000FFF7D2FF00B9FEE705EB8505AB0033445F
:1010900022681A61A2685A61228ADA60996821F48A
:1010A0007C516268E0680243606902430A439A60C7
:1010B000227E012A11D09A6822F040029A60627E54
:1010C000012A0FD09A6822F080029A60A27E72B143
:1010D0009A6842F010029A6070BD9A6842F040022D
:1010E0009A60ECE79A6842F080029A60EEE79A68AC
:1010F00022F010029A60EFE738B505460C46FFF77C
:1011000093FF00B9FEE704EB8404A3002B449A6824
:1011100022F020029A6038BD38B505460C46FFF72C
:1011200083FF00B9FEE704EB8404A3002B449A6814
:1011300042F001029A6038BD38B505460C46FFF70B
:1011400073FF00B9FEE704EB8404A3002B449A6804
:1011500022F001029A6038BD036889008A40134278
:1011600001D10020704701207047436889008A4000
:10117000134343607047830903F1804303F504334D
:101180001A6800F01F00012101FA00F010431860F6
:101190007047830903F1804303F504331A6800F0B4
:1011A0001F00012101FA00F0104318607047830905
:1011B00003F1804303F504331A6800F01F00012196
:1011C00001FA00F022EA00001860704730B488B0DD
:1011D00005463B4C94E80F000DF1200C0CE90F0084
:1011E00002AB103494E8030083E803006B4683E805
:1011F0000300344B1B68C3F38103022B54D1314BE2
:101200001B6813F4803F0ED02F4B1B6813F0804FE8
:1012100007D12E482B4B1B6813F4003F04D02C48F9
:1012200002E02C48F6E72A48264A1368C3F38343B2
:10123000126812F0006F01D043F01003214A1268C7
:1012400012F0804F01D043F020030E2B24D802333C
:1012500000FB03F01B490B68C3F3031308AA1344F4
:1012600013F8102C20FA02F20B68C3F3022308AC27
:10127000234413F8183C22FA03F40B68C3F3C22387
:1012800008A90B4413F8203C22FA03F3032D0DD8D0
:10129000DFE805F00D101214A3F10F022F2A01D878
:1012A0000133D5E73F23D3E70848D3E7002008B050
:1012B00030BC70471046FAE72046F8E71846F6E7D4
:1012C000F05C0008041002402C10024000127A006A
:1012D00000093D00006CDC027047FEE7FEE7FEE718
:1012E000FEE770477047704708B500F009FA08BD7F
:1012F00008B501F0BBFC08BD08B54FF4C060FFF7AE
:1013000023FC002211463120FFF728FC08BD000015
:1013100000B583B00023019300F072FE1D280FD0AA
:101320001D2811D001A801F071FC019B13F0007F72
:1013300010D11D2812D01D2814D003B05DF804FB75
:101340000A4801F037FEEBE7084BB3F8440001F020
:101350004DFCE7E7064802F05BFDFEE7002000F0E9
:101360006FFEE8E7002000F0ABFEE6E7440A00204D
:101370003C61000838B54D4802F04AFD4C4B5B68B3
:10138000C3F30362C3F3C031C3F38023022A46D000
:10139000012A52D0002A54D0454B5B68C3F3025354
:1013A000022B52D0032B54D0042B56D0414D2C6A23
:1013B0000134A40201F0C6FD01463F4802F028FDB9
:1013C0004FF400713D4802F023FD21463C4802F0F5
:1013D0001FFDEB7E002B44D1364B93F82F30002BB2
:1013E00043D1344B1C8BA4B22146364802F010FD89
:1013F00004F01403142B3CD014F0200F3DD114F052
:10140000400F3ED114F0800F3FD114F4807F40D1C3
:1014100014F4007F41D114F4806F42D138BD41B142
:101420001BB1294802F0F4FCB6E7284802F0F0FCB2
:10143000B2E7274802F0ECFCAEE7264802F0E8FCF1
:10144000AAE7254802F0E4FCA6E7244802F0E0FC05
:10145000ACE7234802F0DCFCA8E7224802F0D8FC05
:10146000A4E7214802F0D4FCB6E7204802F0D0FC03
:10147000B7E71F4802F0CCFCBEE71E4802F0C8FCEC
:10148000BDE71D4802F0C4FCBCE71C4802F0C0FCEC
:10149000BBE71B4802F0BCFCBAE71A4802F0B8FCF4
:1014A000B9E7194802F0B4FCB8E700BF085D0008CE
:1014B00024020020440A0020E85D0008045E0008C1
:1014C000205E0008905E0008205D00083C5D00087A
:1014D000585D0008745D0008905D0008AC5D000870
:1014E000C05D0008D45D00083C5E0008645E000832
:1014F000B45E0008D85E0008F05E0008145F0008C3
:10150000345F00085C5F0008785F000810B5FFF7E3
:10151000F3FE664801F0AEFE002001F077FE0524E0
:10152000FFF7F6FE1D2803D0013CA4B2002CF7D132
:1015300034B15F4802F0E0FCFFF71CFF002308E035
:101540005C4802F0D9FCF7E75B4A42F823300133EC
:101550009BB2B3F5007FF7D3584802F059FC4FF423
:1015600000724FF44841544800F0D2FF1D2806D0C5
:10157000534802F04DFC002001F070FEFEE7514898
:1015800002F046FC4FF400724FF448414E4800F020
:10159000A1FD1D2806D04D4802F03AFC002001F0C4
:1015A0005DFEFEE74A4802F033FC4A4B1B8B13F00A
:1015B000800F4ED0052001F0F5FB1D2806D04648CF
:1015C00002F026FC002001F049FEFEE7434802F04D
:1015D0001FFC4FF44A414FF4484001F087FA1D28A0
:1015E0000ED03F4802F014FC022001F0DBFB1D2866
:1015F0000AD03C4802F00CFC002001F02FFEFEE770
:10160000394802F005FCEFE7384802F001FC4FF4DE
:101610004A414FF4484001F069FA1D2812D0304881
:1016200002F0F6FB4FF400724FF44841264800F0F8
:1016300051FD1D280AD0254802F0EAFB002001F0E8
:101640000DFEFEE7284802F0E3FBEBE7204802F03E
:10165000DFFB03234FF400724FF4C831164801F04A
:10166000B9F81D2806D0224802F0D2FB002001F074
:10167000F5FDFEE71F4802F0CBFB03234FF4007299
:101680004FF4C831104800F017FE1D2806D01A4844
:1016900002F0BEFB002001F0E1FDFEE7174802F07A
:1016A000B7FB002001F0CEFDFEE700BF003801408F
:1016B0009C5F0008B45F000844020020CC5F000873
:1016C000DC5F0008F45F00088C0A00200C60000852
:1016D00020600008440A00203860000848600008C4
:1016E0006060000888600008746000089C60000862
:1016F000B8600008D8600008FC6000081C610008A1
:10170000034B1B681BB1024A1368013B136070470F
:10171000F4010020002831DB10F0804F30D110F0B0
:10172000005F2FD110F0805F2ED110F0006F2DD10F
:1017300010F0806F2CD110F0807F2BD110F4000FAF
:101740002AD110F4800F29D110F4001F28D110F4F1
:10175000801F27D110F4002F26D110F4803F25D10F
:1017600010F4004F24D110F4804F23D110F4005F07
:1017700022D110F0080F21D11C20704700207047A3
:1017800001207047022070470320704704207047F3
:1017900005207047062070470720704708207047D3
:1017A000092070470A2070470B2070470C207047B3
:1017B0000D2070470E2070470F2070471020704793
:1017C000002302E040080133DBB20128FAD11801FE
:1017D00000F0F000704708B540F20360FFF7CBFC63
:1017E00040F20460FFF7C7FC40F20560FFF7C3FC5E
:1017F0004FF4C060FFF7BFFC40F20A50FFF7BBFC9C
:1018000040F20150FFF7B7FC08BD000008B54FF4E7
:101810004073032218210848FFF7B8FB4FF4FE532A
:10182000032218210548FFF7B1FB042303221821E6
:101830000348FFF7ABFB08BD000C0140001001405E
:101840000014014008B50E4B1B6801E00C4B1B68EF
:1018500013F0450FFAD013F0010F07D113F0040F66
:1018600009D10848FFF76CFB1D2008BD0120FFF7D8
:1018700067FB1120F9E70420FFF762FB1320F4E770
:1018800034800140FF07C00008B50F4B1A6842F2D0
:10189000107312F0450F04D11BB10B4A1268013BC3
:1018A000F7E712F0040F05D123B112F0400F06D173
:1018B0001C2003E00420FFF743FB132008BD402059
:1018C000FFF73EFB1D20F9E73480014008B50A4BC5
:1018D0001B6801E0084B1B6813F0450FFAD013F0AA
:1018E000040F04D10548FFF72BFB1D2008BD042081
:1018F000FFF726FB1320F9E734800140FF07C00003
:1019000038B504460D461E4B1B6801E01C4B1B6896
:1019100013F0450FFAD013F0010F08D113F0040FA4
:101920000AD1FFF78FFAA0420BD0082008E001206F
:10193000FFF706FB112003E00420FFF701FB132053
:1019400038BD1048FFF7FCFA0020FFF781FA10F4C9
:10195000604F0AD010F4004F0DD110F4804F0CD11D
:1019600010F4005F05D00B20EAE7000C28801D2052
:10197000E6E71D20E4E70720E2E70820E0E700BFF4
:1019800034800140FF07C00010B50446154B1B68AA
:1019900001E0144B1B6813F0450FFAD013F0010F50
:1019A00008D113F0040F0AD1FFF74CFAA0420BD074
:1019B000082010BD0120FFF7C3FA1120F9E7042029
:1019C000FFF7BEFA1320F4E70748FFF7B9FA002043
:1019D000FFF73EFA054B034013B1FFF79BFEE8E724
:1019E0001D20E6E734800140FF07C00008E0F9FD54
:1019F00030B583B00546002401940094234B198828
:101A0000402209040D20FFF7F5F92046FFF706FAFA
:101A1000FFF710FA1E4B1B68019302E01C4B1B687A
:101A20000193019B13F0450FF8D0019B13F0010FB8
:101A30000CD1019B13F0040F0DD1FFF703FA0190B5
:101A4000019B0D2B0CD0082003B030BD0120FFF707
:101A500077FA1120F8E70420FFF772FA1320F3E772
:101A60000C48FFF76DFA0020FFF7F2F90090009B99
:101A7000C3F343232B70009A074B13401BB100980C
:101A8000FFF748FEE0E71D20DEE700BF2002002050
:101A900034800140FF07C00008E0F9FD10B542F2B4
:101AA00010748020FFF742FA10B90CB1013CF8E73E
:101AB0000CB9132010BD0248FFF742FA1D20F9E7C8
:101AC000FF07C00070B582B005460E4600240094A2
:101AD0000194402208211020FFF78CF92046FFF7DF
:101AE0009DF91020FFF750FF04461D2802D0204624
:101AF00002B070BD402229043720FFF77BF9002097
:101B0000FFF78CF9FFF796F93720FFF73DFF044602
:101B10001D28ECD1302208214FF0FF30FFF7B4F937
:101B200002210020FFF7CCF9FFF7D4F94022002171
:101B30003320FFF75FF90020FFF770F9FFF77AF91C
:101B40003320FFF721FF04461D28D0D1002540F2A5
:101B50002A60FFF7EBF958B94FF40010FFF7E6F9E8
:101B60000028F4D0FFF7CCF94DF825000135EEE759
:101B70000220FFF7DBF950BB0820FFF7D7F958BB6D
:101B80002020FFF7D3F960BB4FF40070FFF7CEF9C8
:101B900060BB1948FFF7D4F9019A130203F47F03DD
:101BA00043EA0263110A01F47F410B4343EA1263E3
:101BB0003360009A130203F47F0343EA0263110ABD
:101BC00001F47F410B4343EA126373608FE7022005
:101BD000FFF7B6F912248AE70820FFF7B1F91424B9
:101BE00085E72020FFF7ACF9162480E74FF400705A
:101BF000FFF7A6F917247AE7FF07C00010B50446DF
:101C00000020FFF725F910F0007F52D12D492E4B0F
:101C10001888FFF757FF1D284CD1B4F5803F25D019
:101C2000B4F5802F49D1274B5B68234247D0264B20
:101C30001988402209043720FFF7DCF80020FFF75D
:101C4000EDF8FFF7F7F83720FFF79EFE1D2831D19A
:101C5000402202210620FFF7CDF80020FFF7DEF832
:101C6000FFF7E8F80620FFF78FFE23E0154B5B68CF
:101C7000234220D0144B1988402209043720FFF753
:101C8000B9F80020FFF7CAF8FFF7D4F83720FFF7BC
:101C90007BFE1D280ED1402200210620FFF7AAF866
:101CA0000020FFF7BBF8FFF7C5F80620FFF76CFE32
:101CB00000E0062010BD1A20FCE71920FAE71A20E0
:101CC000F8E700BF240200202002002070B588B091
:101CD00006460D46204C012203212046FFF745FA17
:101CE000022203212046FFF740FA04220321204666
:101CF000FFF73BFA082203212046FFF736FA0321BB
:101D00002046FFF719FA03212046FFF79BF9134BF2
:101D10000193039600238DF81E30AD0805958DF8CC
:101D20001C3001238DF81D304FF4007302934FF4E3
:101D3000006304934FF44053069301AA0321204605
:101D4000FFF79AF903212046FFF7D6F90321204631
:101D5000FFF7E2F908B070BD000402408080014046
:101D600070B588B006460D46204C0122032120465E
:101D7000FFF7FBF9022203212046FFF7F6F90422C0
:101D800003212046FFF7F1F9082203212046FFF73F
:101D9000ECF903212046FFF7CFF903212046FFF796
:101DA00051F9134B0193039601238DF81E30AD08B2
:101DB000059500228DF81C208DF81D304FF400731E
:101DC00002934FF4006304934FF44053069301AA27
:101DD00003212046FFF750F903212046FFF78CF935
:101DE00003212046FFF798F908B070BD00040240B7
:101DF0008080014030B583B00123ADF80630FEF796
:101E0000EBFF002867D0364B1B78032B2FD11D2406
:101E1000334B1B78022B4BD9042B49D0304B1B780A
:101E2000032B59D0BDF806102E4B1980C02209048F
:101E30000920FEF7DFFF0020FEF7F0FFFEF7FAFFB4
:101E4000FFF700FD04461D2846D10020FFF700F8EB
:101E5000254D28600120FEF7FBFF68600220FEF799
:101E6000F7FFA8600320FEF7F3FFE86034E0C0222C
:101E700000210220FEF7BEFF0020FEF7CFFFFEF795
:101E8000D9FFFFF7DFFC04461D2825D10020FEF70F
:101E9000DFFF164D28600120FEF7DAFF68600220A0
:101EA000FEF7D6FFA8600320FEF7D2FFE860AFE799
:101EB000402200210320FEF79DFF0020FEF7AEFF29
:101EC000FEF7B8FF0DF106010320FFF719FD0446E8
:101ED0001D2801D1A2E71A24204603B030BD00BF5F
:101EE000F801002020020020100200200002002043
:101EF00070B57623002211461046FEF73BFF002006
:101F0000FEF758FFFEF74EFF0320FEF75FFFFEF7D8
:101F100069FF002211461046FEF76CFF0020FEF715
:101F20007DFFFEF787FFFFF7B9FD04461D2801D0AE
:101F3000204670BD40224FF4D5710820FEF75AFFAD
:101F40000020FEF76BFFFEF775FFFFF79DFC1D28D5
:101F500013D00026402200213720FEF74BFF00203F
:101F6000FEF75CFFFEF766FF3720FFF70DFD1D282B
:101F7000DED100231D4618460AE0204B01221A70CC
:101F80004FF08046E6E70020FEF762FFC30F013501
:101F900033BB4FF6FE739D4222D8402200213720EA
:101FA000FEF728FF0020FEF739FFFEF743FF37203A
:101FB000FFF7EAFC04461D28BAD1402246F0004152
:101FC00041F480112920FEF715FF0020FEF726FFBF
:101FD000FEF730FFFFF77AFC04461D28D3D0A7E7B1
:101FE0004FF6FE739D4206D810F0804FA0D0034BF1
:101FF00002221A709CE718249AE700BFF80100201B
:1020000010B5FFF7E8FBFFF701FCFEF79DFEFFF7B9
:102010006FFF04461D2801D0204610BDFFF7EAFEE1
:1020200004461D28F8D10223002211461046FEF76F
:10203000A1FE0020FEF7BEFEFEF7B4FEECE70000B6
:1020400038B51E4B1B78052B2FD0022B2FD8B0F59F
:10205000805F2FD00446B0F5006F13D060BB4FF403
:102060008030FFF7CBFD05461D2821D10223002239
:1020700011461046FEF77EFE2046FEF79BFEFEF759
:1020800091FE15E04FF48020FFF7B8FD05461D28AE
:102090000ED10223002211461046FEF76BFE2046A9
:1020A000FEF788FEFEF77EFE02E01B2500E01D2500
:1020B000284638BD1B25FBE71925F9E7F801002064
:1020C000012801D919207047014B18601D20704765
:1020D000040000202DE9F843002800F0D0800E46CF
:1020E000154607466C4B1D221A7000246B4B1C6072
:1020F0006B4B1C60224621462046FEF7C5FE21465A
:102100002046FEF7DDFEFEF7EDFEFEF707FF204658
:10211000FEF79EFE10F0007F40F0B580614B1B780B
:10212000022B5FD06B1E05EA03029BB2B3F5006F72
:1021300080F0AB80002A40F0AA802846FFF740FBE1
:102140008046402229461020FEF754FE0020FEF76C
:1021500065FEFEF76FFE1020FFF716FC04461D28F3
:1021600040F08E800024504B1C604D4B1D60424659
:1021700029464FF0FF30FEF787FE21460220FEF78A
:102180009FFEFEF7A7FE402231461120FEF732FEE9
:102190002046FEF743FEFEF74DFE1120FFF7F4FB4D
:1021A00004461D286CD1414B1B68012B26D0002B07
:1021B0006FD140F22930FEF7C9FEFEF7A7FE29468F
:1021C0003846FFF783FD42F210750222032138489A
:1021D000FEF7C2FF002853D1002D51D0013DF4D1AC
:1021E0001C244DE0760A4FF400759BE7FEF788FE4D
:1021F00047F825000135072DF8D9203740F22A602D
:10220000FEF794FE38B94FF40040FEF78FFE002829
:10221000F4D00025EFE70220FEF788FE90B90820F1
:10222000FEF784FE98B92020FEF780FEA0B94FF497
:102230000070FEF77BFEC0B14FF40070FEF780FE29
:1022400017241DE00220FEF77BFE122418E0082070
:10225000FEF776FE142413E02020FEF771FE16240C
:102260000EE0FEF74DFE47F8040B4FF40010FEF7AA
:102270005DFE0028F5D10F48FEF762FE00E019244C
:102280002046BDE8F8830624FAE71924F8E7192464
:10229000F6E71924F4E700BF000000203402002014
:1022A00030020020F80100202C0200200400002051
:1022B00000040240FF07C0002DE9F047002800F0AD
:1022C00008810E4615461F468046894B1D221A700E
:1022D0000024884B1C60884B1C6022462146204607
:1022E000FEF7D2FD21462046FEF7EAFDFEF7FAFD95
:1022F000FEF714FE2046FEF7ABFD10F0007F40F025
:10230000EC807E4B1B78022B6AD06B1E05EA030221
:102310009BB2B3F5006F80F0E280002A40F0E180CC
:102320002846FFF74DFA8246402229461020FEF744
:1023300061FD0020FEF772FDFEF77CFD1020FFF727
:1023400023FB04461D2840F0C580012F40F2C280C7
:1023500007FB05F1B1F1007F80F0C580684B0122D9
:102360001A60654B196052464FF0FF30FEF78CFD46
:1023700000210220FEF7A4FDFEF7ACFD402231460D
:102380001220FEF737FD0020FEF748FDFEF752FD54
:102390001220FFF7F9FA04461D2840F09B80594BA4
:1023A0001B68012B29D0002B40F09F8040F22A307F
:1023B000FEF7CCFDFEF7AAFD4F4B19684046FFF72C
:1023C00085FC42F21075022203214F48FEF7C4FE3D
:1023D00000286DD1002D6BD0013DF4D11C2479E093
:1023E000760A4FF4007590E7FEF78AFD48F825005D
:1023F0000135072DF8D908F1200840F22A30FEF700
:1024000095FD38B94FF40040FEF790FD0028F4D058
:102410000025EEE70220FEF789FD90B90820FEF7BF
:1024200085FD98B92020FEF781FDA0B94FF400701A
:10243000FEF77CFDC0B14FF40070FEF781FD17245C
:1024400048E00220FEF77CFD122443E00820FEF75E
:1024500077FD14243EE02020FEF772FD162439E0BB
:10246000FEF74EFD48F8040B4FF40010FEF75EFD3A
:102470000028F5D14FF48070FEF758FD18B11F4BBE
:102480001B78022B03D92148FEF75AFD22E0402297
:1024900000210C20FEF7AEFC0020FEF7BFFCFEF78B
:1024A000C9FC0C20FFF770FA04461D2812D1EAE798
:1024B000104B1B6823B90E4B1B78DBB21D2BF7D0DA
:1024C0000B4B1B78DBB21D2B04D0094B1C78E4B2FC
:1024D00000E019242046BDE8F0870624FAE7192415
:1024E000F8E71924F6E71924F4E71924F2E700BF06
:1024F000000000203402002030020020F8010020FB
:102500002C0200200400002000040240FF07C0004D
:102510002DE9F04383B000238DF80730002800F048
:1025200036810E4615460746A14B1D221A7000241F
:10253000A04B1C60A04B1C60224621462046FEF7A3
:10254000A3FC21462046FEF7BBFCFEF7CBFCFEF7C2
:10255000E5FC2046FEF77CFC10F0007F40F01B817C
:10256000964B1B78022B37D06B1E05EA03029BB2F9
:10257000B3F5006F80F01181002A40F010812846E9
:10258000FFF71EF98146A846402229461020FEF793
:1025900031FC0020FEF742FCFEF74CFC1020FFF758
:1025A000F3F91D2840F0F480854B19884022090476
:1025B0000D20FEF71FFC0020FEF730FCFEF73AFC72
:1025C0000D20FFF7E1F91D2840F0E2800020FEF722
:1025D0003FFC42F2107406E0760A4FF40075C3E740
:1025E0000020FEF735FC10F4807F13D194B1013C3C
:1025F000734B1988402209040D20FEF7FBFB0020D5
:10260000FEF70CFCFEF716FC0D20FFF7BDF91D28A8
:10261000E6D0BDE0002C00F0C480402231461820F6
:10262000FEF7E8FB0020FEF7F9FBFEF703FC18209D
:10263000FFF7AAF91D2840F0AB800024614B1C6015
:102640005D4BC3F800804A4641464FF0FF30FEF72D
:102650001BFC21462046FEF733FCFEF73BFC5A4BA1
:102660001B68012B24D0002B40F09D8040F21A30D3
:10267000FEF76CFC41463846FFF772FBFEF746FC5E
:1026800042F210745DE057F8040BFEF733FC04349B
:102690000136AE42F7D30CE057F82500FEF72AFCCE
:1026A0000135072DF8D92037203402E00025F8E75E
:1026B000002440F21A60FEF739FC90B94FF48040D4
:1026C000FEF734FC0028F4D03B4B1B681B1B1F2B70
:1026D000ECD813F0030218BF012202EB9305002689
:1026E000D7E70220FEF722FC20B10220FEF728FCEB
:1026F00012204DE00820FEF719FC80B91020FEF7EB
:1027000015FC88B94FF40070FEF710FC88B92F480B
:10271000FEF716FC0DF10700FFF76AF92EE008201E
:10272000FEF70EFC142033E01020FEF709FC152004
:102730002EE04FF40070FEF703FC172028E0013C68
:1027400033D0022203212248FEF706FD08B9002CEF
:10275000F5D1184B1B6823B9154B1B78DBB21D2B29
:10276000F7D0134B1B78DBB21D2BD0D0104B187851
:10277000C0B20DE00DF10700FFF73AF91D2807D1AF
:102780009DF80730063BDBB2012BF3D900E019209E
:1027900003B0BDE8F0830620FAE71920F8E7192016
:1027A000F6E71C20F4E71920F2E71C20F0E700BF51
:1027B000000000203402002030020020F801002038
:1027C000200200202C02002004000020FF07C0008F
:1027D000000402402DE9F04383B01F4600238DF82A
:1027E0000730002800F060810E4615468046B64B43
:1027F0001D221A700024B54B1C60B54B1C6022468C
:1028000021462046FEF740FB21462046FEF758FBB6
:10281000FEF768FBFEF782FB2046FEF719FB10F07F
:10282000007F40F04581AB4B1B78022B00F0978076
:102830006B1E05EA03029BB2B3F5006F80F03A818C
:10284000002A40F039812846FEF7BAFF81462C461F
:10285000402229461020FEF7CDFA0020FEF7DEFACE
:10286000FEF7E8FA1020FFF78FF81D2840F01D81D1
:10287000994B1988402209040D20FEF7BBFA00206D
:10288000FEF7CCFAFEF7D6FA0D20FFF77DF81D28EB
:1028900040F00B81012F40F2C18007FB04F4B4F13A
:1028A000007F80F00B818B4B1B78022B21D88A4B49
:1028B0001988402209043720FEF79CFA0020FEF711
:1028C000ADFAFEF7B7FA3720FFF75EF81D2840F0A3
:1028D000EC80402239461720FEF78CFA0020FEF7E4
:1028E0009DFAFEF7A7FA1720FFF74EF81D2840F0D3
:1028F000DC80402231461920FEF77CFA0020FEF7EA
:102900008DFAFEF797FA1920FFF73EF81D2840F0E0
:10291000CC80724B01221A606D4B1C604A462146E6
:102920004FF0FF30FEF7B0FA00210846FEF7C8FA74
:10293000FEF7D0FA6A4B1B68012B2AD0002B40F01F
:10294000BF8040F21A30FEF701FBFEF7DFFA604B62
:1029500019684046FFF704FA42F210747FE0760AE5
:102960004FF4007564E758F82500FEF7C3FA013507
:10297000072DF8D908F1200820340BE00025F7E7EF
:1029800058F8040BFEF7B6FA04340136AE42F7D31A
:1029900000E0002440F21A30FEF7C8FA90B94FF474
:1029A0008040FEF7C3FA0028F4D0494B1B681B1B7C
:1029B0001F2BE3D813F0030218BF012202EB93058B
:1029C0000026E3E70220FEF7B1FA40B90820FEF73F
:1029D000ADFA48B10820FEF7B3FA142065E00220F2
:1029E000FEF7AEFA122060E01020FEF79FFA20B149
:1029F0001020FEF7A5FA152057E04FF40070FEF7FF
:102A000095FA98B94FF48070FEF790FA18B1314BEF
:102A10001B78022B10D93348FEF792FA3148FEF7A3
:102A20008FFA0DF10700FEF7E3FF34E04FF400707A
:102A3000FEF786FA172038E0402200210C20FEF72E
:102A4000D9F90020FEF7EAF9FEF7F4F90C20FEF7B9
:102A50009BFF1D2829D1DEE744B1013C32D0022280
:102A600003212148FEF778FB0028F5D0174B1B689F
:102A700023B9154B1B78DBB21D2BF7D0124B1B78FB
:102A8000DBB21D2BCAD0104B1878C0B20DE00DF18F
:102A90000700FEF7ADFF1D2807D19DF80730063B64
:102AA000DBB2012BF3D900E0192003B0BDE8F083BD
:102AB0000620FAE71920F8E71920F6E71920F4E7CD
:102AC0001920F2E71C20F0E700000020340200206B
:102AD00030020020F8010020200200202C020020FB
:102AE00004000020FF07C0000004024030B583B09E
:102AF000002301938DF80330384B5B681A0EC3F343
:102B0000035343EA021313F0200F61D005460C462D
:102B1000334A13681268D20F120252FA83F3023357
:102B2000304AB2FBF3F301930020FEF791F910F065
:102B3000007F50D12C4B1B78022B30D0022B1DD89C
:102B4000402229462020FEF755F90020FEF766F9BD
:102B5000FEF770F92020FEF717FF1D2839D140221B
:102B600021462120FEF746F90020FEF757F9FEF72F
:102B700061F92120FEF708FF1D282AD140220021FB
:102B80002620FEF737F90020FEF748F9FEF752F944
:102B90002620FEF7F9FE1D281BD1002303E06D0A55
:102BA000640ACBE70133019A9A42FBD80DF1030086
:102BB000FEF71EFF03E00DF10300FEF719FF1D28CD
:102BC00007D19DF80330063BDBB2012BF3D900E0BF
:102BD0001B2003B030BD0620FBE700BF1002002021
:102BE0000480014040900200F801002008B5402216
:102BF00001040720FEF7FEF80020FEF70FF9FEF7AC
:102C000019F90720FEF7C0FE08BD000038B5C8B1AD
:102C100005460D4B1988402209040D20FEF7EAF8FD
:102C20000020FEF7FBF8FEF705F90D20FEF7ACFEDD
:102C300004461D2801D0204638BD0020FEF708F9C3
:102C40002860F8E71924F6E72002002008B54022A2
:102C500000210C20FEF7CEF80020FEF7DFF8FEF78B
:102C6000E9F80C20FEF790FE08BD000008B5494BBE
:102C70001D221A704FF48070FEF778F9E8B1464BC8
:102C80001B68012B14D0434B1D221A704FF4807027
:102C9000FEF776F94CF23A30FEF760F93F4B01222D
:102CA0001A603F4B00221A603A4B1878C0B208BD38
:102CB000FFF7CCFF374B1870E8E70220FEF756F914
:102CC000B0B90820FEF752F910BB4FF40070FEF7C0
:102CD0004DF968BB1020FEF749F9002839D12020B2
:102CE000FEF744F9002844D12A4B1878C0B2DEE739
:102CF0000220FEF745F94CF23A30FEF72FF9284B47
:102D000000221A60234B12221A701878C0B2CEE744
:102D10000820FEF735F94CF23A30FEF71FF9204B48
:102D200000221A601B4B14221A701878C0B2BEE73A
:102D30004FF40070FEF724F94CF23A30FEF70EF92A
:102D4000174B00221A60134B17221A701878C0B262
:102D5000ADE71020FEF714F94CF23A30FEF7FEF81A
:102D60000F4B00221A600B4B15221A701878C0B254
:102D70009DE72020FEF704F94CF23A30FEF7EEF81A
:102D8000074B00221A60034B16221A701878C0B243
:102D90008DE700BF000000202C020020340200203C
:102DA000FC01002030B583B000238DF80730614B63
:102DB0005B681A0EC3F3035343EA021313F0800F48
:102DC00000F0B38040F0817444F4C06400221146E6
:102DD0001046FEF759F800210846FEF771F8FEF795
:102DE00081F8FEF79BF8402208211020FEF702F838
:102DF0000020FEF713F8FEF71DF81020FEF7C4FDC3
:102E00001D2840F093804C4B1988402209040D2066
:102E1000FDF7F0FF0020FEF701F8FEF70BF80D209C
:102E2000FEF7B2FD1D2840F081800020FEF710F86B
:102E300042F2107510F4807F16D1ADB1013D3E4BCA
:102E40001988402209040D20FDF7D4FF0020FDF76A
:102E5000E5FFFDF7EFFF0D20FEF796FD1D2865D17C
:102E60000020FDF7F5FFE5E7002D61D040220021AD
:102E70002A20FDF7BFFF0020FDF7D0FFFDF7DAFFA6
:102E80002A20FEF781FD1D2850D10020FDF7E0FF2C
:102E9000302208214FF0FF30FDF7F6FF00210846F1
:102EA000FEF70EF8FEF716F82046FEF723F8234843
:102EB000FEF720F80220FEF739F8A0B90820FEF747
:102EC00035F8A8B91020FEF731F8B0B94FF400700A
:102ED000FEF72CF8B0B91A48FEF732F80DF10700EA
:102EE000FEF786FD18E00220FEF72AF812201DE00A
:102EF0000820FEF725F8142018E01020FEF720F82F
:102F0000152013E04FF40070FEF71AF817200DE0BB
:102F10000DF10700FEF76CFD1D2807D19DF8073065
:102F2000063BDBB2012BF3D900E01B2003B030BD20
:102F30001C20FBE7100200202002002006050403ED
:102F4000FF07C000194B1B78012B03D9022B1DD0A2
:102F50000020704716494A68100A800200F4406356
:102F6000900000F47F7018438B6840EA9370190C4E
:102F7000490001F00601C3F3C0330B43C2F303421F
:102F80000130023398409040800A7047084A5368E5
:102F9000180400F47C1093681A0E40EA0222C3F36E
:102FA0000740104301304002704700BFF801002085
:102FB00010020020002800F01E8130B403468F4A22
:102FC000117880F838108E4A1288A0F844208D4C71
:102FD0002268100E1870C2F3074000025880C2F336
:102FE00007205D882843588012065A606268150ED3
:102FF000586840EA05405860100C5D68000280B2D5
:10300000284358605D68C2F3072028435860D2B255
:103010001A72A268100E5872100C0006D860100ABE
:10302000DD68000400F47F002843D860D868D2B27D
:103030000243DA60E268D86840EA1260D860C2F3FE
:103040000740000200F470601882C2F307201C8A57
:1030500020431882C2F346029A746B480268940FA8
:103060001C75C2F307445C75C2F307249C75D2B289
:10307000DA754068020E12011A83C0F307421C8BF6
:1030800044EA12141C8302F00F029A76040AE2B298
:10309000D509DD76C4F380151D77C4F340155D773F
:1030A000C4F300159D7701294DD9022900F08B80CA
:1030B000C2F3801183F82910520002F07E0283F8D7
:1030C0002A205148027A93F82A1041EAD21183F853
:1030D0002A1002F07F0283F82B20C1680A0ED00963
:1030E00083F82C00C2F3820083F82D00920002F0D6
:1030F0000C0283F82E200A0C93F82E00C2F38114E0
:10310000204383F82E00C2F3401283F82F200A0ACE
:10311000C2F3C01083F83000C2F3801083F831008E
:10312000C2F3401083F83200C2F3001083F833007A
:10313000C2F3810283F83420C1F3460183F83510CD
:103140001D2030BC7047A40204F440641C621A6A5B
:10315000800000F47F70104318622B4A9268100EB2
:10316000C1B21C6A44EA91141C62C0F3C20083F825
:10317000240001F0070183F82510110CC1F342105F
:1031800083F82600C1F3820083F82700490001F08C
:10319000060183F82810C2F3072293F8281041EAA9
:1031A000D21183F82810987EC0B2012101FA00F0F4
:1031B0001864196A013193F828400234A14001FBD8
:1031C00000F1D96374E7000400F47C1018620E4A21
:1031D0009268100E196A41EA00211962C2F307428F
:1031E000196A114319624FF400711964196A0131A7
:1031F000C904D9635CE71920704700BFF8010020BB
:1032000020020020000200201002002038B50446F1
:10321000094B33F81000FDF7AEFF084B53F824506C
:10322000074B53F824402B46032210212046FDF77C
:10323000ADFE656138BD00BF746100087C610008A7
:103240008C610008034B53F82030034A52F82020C9
:103250001A6170478C6100087C610008034B53F8C9
:103260002030034A52F820205A6170478C610008D0
:103270007C61000870B50446244B984236D0A3F513
:103280007443984234D00025214B33F81500FDF7E4
:1032900072FF204B33F81500FDF76DFF1E4B53F8FE
:1032A00025601E4B53F82530032218213046FDF7C8
:1032B0006DFE1B4B53F82530032204213046FDF7E9
:1032C00065FE2046FDF7A2FC104B9C4212D0154B28
:1032D0009C4215D004212046FDF71FFD0821204601
:1032E000FDF715FD2046FDF70DFD70BD0025CBE770
:1032F0000125C9E74FF4E1312046FDF7CDFCE9E7B0
:103300004FF416512046FDF7C7FCE3E700380140B3
:1033100058610008546100085C6100086C61000895
:10332000646100080044004010B50446C1B205487D
:10333000FDF7F9FC07210348FDF7F9FC0028F9D057
:10334000204610BD0038014070B50E4615460024D9
:1033500003E0305DFFF7E8FF0134A542F9D82846C5
:1033600070BD0000344A136843F4803313600023B7
:103370000133314A126812F4003F03D14FF6FF7255
:103380009342F5D12C4B1B6813F4003F00D1FEE7AC
:103390002A4A136843F080531360294A136843F4A0
:1033A00040431360274B1A681A601A681A601A683B
:1033B00042F480621A601A6822F440321A601A6875
:1033C00042F440321A601A6822F0904222F47012DD
:1033D0001A601A6842F0036242F480221A60164AA8
:1033E000136843F080731360134B1B6813F0007F66
:1033F000FAD0134A136843F480331360124B1B68EE
:1034000013F4803FFAD00E4A136843F4003313607C
:103410000D4B1B6813F4003FFAD00A4B1A6822F0D8
:1034200003021A601A6842F002021A60054B1B6818
:1034300013F0080FFAD07047001002401C10024031
:1034400000700040041002400470004008B5FFF70F
:1034500089FF08BD08B5114AD2F8883043F47003DB
:10346000C2F888300E4B1A6842F001021A6000223E
:103470000C490A6028310A601A6822F0847222F42A
:1034800080321A60084A4FF41F0111601A6822F452
:1034900080221A60FFF7DAFF08BD00BF00ED00E0F0
:1034A000001002400410024008100240DFF834D03F
:1034B000002103E00C4B5B58435004310B480C4B8C
:1034C00042189A42F6D30B4A02E0002342F8043B2A
:1034D000094B9A42F9D3FFF7BDFF00F011F8FEF750
:1034E00015F8FEE7000001207064000800000020CD
:1034F000D8010020D801002090120020FEE7000033
:1035000070B50D4E0D4CA41BA4100025A54209D189
:103510000B4E0C4C02F0E0FBA41BA4100025A542AE
:1035200005D170BD56F8253098470135EEE756F8BD
:10353000253098470135F2E76064000860640008B0
:10354000606400086464000802440346934200D1AA
:10355000704703F8011BF9E72DE9FF4755EC104BC5
:103560000D9FDDF830A0002D0E4691461946B8BFDC
:1035700022462B4627F02007BBBF05F100431D461E
:1035800000232D23B8BF1446462F0B7004D0452FBF
:1035900000D10136022100E0032103AB019302AB0D
:1035A00000933246534645EC104B00F0F9FD472F8F
:1035B000804602D119F0010F26D0462F08EB0609EC
:1035C00011D198F80030302B0AD100220023204678
:1035D0002946FDF749FA18B9C6F10106CAF8006094
:1035E000DAF8003099440022002320462946FDF7EE
:1035F0003BFA38B93022039B4B4505D2591C039145
:103600001A70F8E7CDF80C90039B0E9AA3EB080311
:103610004046136004B0BDE8F087F7B500290446C2
:10362000BABF49422D232B23092904F8022B4370EA
:1036300020DD0DF107031F460A2691FBF6F506FB78
:1036400015113031092D03F8011C03F1FF32294611
:1036500009DC3031023B02F8011CBB42224604D394
:10366000101A03B0F0BD1346E7E713F8012B04F876
:10367000012BF2E7302319448370021DC170EFE77C
:103680002DE9F04F8DB00C46DDF8588016461F46E8
:10369000054601F0B7FC036804931846FCF768FD83
:1036A00000230A93D8F800300590073323F007036E
:1036B00003F1080294F818A0D4F800B0C8F800206C
:1036C000D3E90023C4E91223D4E9128929F0004385
:1036D0000793CDF818804FF0FF32A74BDDE90601C4
:1036E000FDF7F4F970BB4FF0FF32A34BDDE90601A3
:1036F000FDF7CEF930BB0022002340464946FDF7D6
:10370000BDF910B12D2384F843309C4A9C4BBAF18B
:10371000470F8CBF9046984603232BF00402236189
:1037200022604FF00009009733460BAA2146284635
:1037300000F0E6F9013040F08D804FF0FF300DB021
:10374000BDE8F08F42464B4640464946FDF7BEF97C
:1037500010B18C4A8C4BDAE761684B1C4BF48062E9
:103760000AA83ED1062363600023CDE9020309AB1A
:10377000009349EC108B0DF123032260CDF804A0D7
:1037800061682846FFF7E8FE0AF0DF03472B804612
:1037900009D1099BD81C02DB6268934247DDAAF17C
:1037A000020A5FFA8AFABAF1650F099924D8013939
:1037B000524604F150000991FFF72FFF0A9A13189F
:1037C000012A8146236102DC2268D10701D5013339
:1037D00023619DF82330002BA5D02D2384F843309E
:1037E000A1E7BAF1670F00F07781BAF1470FBBD1BB
:1037F0000029B9D10123B6E7BAF1660F19D1002922
:1038000063680CDD216113B92268D20702D5013348
:103810000B442361099BA3654FF00009D9E713B955
:103820002268D00701D50233F3E70123F1E74FF017
:10383000670ADDE90932934205DB22682361D1077B
:10384000E8D50133E5E7002BD4BFC3F10203012320
:103850001344DEE723685A0507D4236942463146FC
:103860002846B84701302BD167E7BAF1650F40F21F
:10387000DC8000220023D4E91201FDF7F5F80028CE
:1038800033D00123414A31462846B84701303FF43E
:1038900054AFDDE909239A4202DB2368D8070FD52C
:1038A000DDE9042331462846B84701303FF445AFEF
:1038B0004FF0000804F11A090A9B013B434509DC5B
:1038C00023689B0700F10381E0680B9B9842B8BF17
:1038D000184634E701234A4631462846B8470130A6
:1038E0003FF42BAF08F10108E6E7099B002B2BDC26
:1038F0000123264A31462846B84701303FF41DAF20
:10390000099B23B90A9B13B92368D907D8D5DDE9E8
:10391000042331462846B84701303FF40EAF4FF03C
:10392000000904F11A0A099B5B424B4501DC0A9B22
:1039300094E70123524631462846B84701303FF408
:10394000FCAE09F10109EEE70A9AA36D9A42A8BFFD
:103950001A46002A914607DD13463146424628465C
:10396000B84701303FF4E9AE04F11A034FF0000B01
:1039700029EAE979069315E0FFFFEF7FA4610008CB
:10398000A0610008AC610008A8610008B0610008EF
:103990000123069A31462846B84701303FF4CDAEA0
:1039A0000BF1010BD4F858A0AAEB09035B45EFDC3F
:1039B000DDE909239A42D04415DB2368DA0712D4E3
:1039C0000A9B0999A3EB0A02A3EB010A9245A8BF3F
:1039D0009246BAF1000F0EDC4FF000082AEAEA7AAC
:1039E00004F11A0919E0DDE9042331462846B847F5
:1039F0000130E5D1A1E65346424631462846B84754
:103A00000130E9D199E601234A4631462846B847B4
:103A100001303FF492AE08F10108DDE909239B1A59
:103A2000A3EB0A034345EEDC4AE70A9A012A01DCCC
:103A3000DB073AD50123424631462846B8470130D4
:103A40003FF47BAEDDE9042331462846B847013018
:103A500008F101083FF471AE0A9B002203F1FF3A1E
:103A6000D4E912010023FCF7FFFFC8B953464246D0
:103A700031462846B84701300ED15EE60123524652
:103A800031462846B84701303FF457AE08F10108E7
:103A90000A9B013B4345F1DC4B4604F15002DEE654
:103AA0004FF0000804F11A0AF2E70123DFE70123CF
:103AB0004A4631462846B84701303FF43EAE08F149
:103AC0000108E3680B9A9B1A4345F0DCFCE64FF0D3
:103AD000000804F11909F4E700293FF48BAE002334
:103AE000CDE9020309AB009349EC108B2260CDF8BD
:103AF00004A00DF123032846FFF72EFD804648E67B
:103B00002DE9F04791461F468A680B69DDF8208051
:103B10009342B8BF1346C9F8003091F843200646D7
:103B20000C4612B10133C9F800302368990642BF30
:103B3000D9F800300233C9F80030256815F00605C1
:103B400007D104F1190AE368D9F800209B1AAB42A7
:103B500028DC94F843302268003318BF0123920612
:103B60002DD404F1430239463046C047013020D0FD
:103B70002368E568D9F8002003F00603042B08BF8A
:103B8000AD1AA36822690CBF25EAE57500259342AA
:103B9000C4BF9B1AED184FF000091A344D451AD1D5
:103BA000002008E00123524639463046C047013024
:103BB00003D14FF0FF30BDE8F0870135C3E7E118CE
:103BC0005A1C302081F84300224494F8451082F8B2
:103BD00043100233C5E70123224639463046C04729
:103BE0000130E6D009F10109D8E700002DE9F043E2
:103BF00001F1430C0C46097E85B06E291746064636
:103C000098460C9A00F0B38022D8632936D00AD89F
:103C1000002900F0B980582900F0838004F14205A2
:103C200084F8421032E0642901D06929F6D1206875
:103C30001368050603F104012AD51B681160002BE7
:103C400003DA2D225B4284F843206F480A2239E0D0
:103C5000732900F09D8008D86F2920D07029DDD10C
:103C6000236843F02003236003E0752917D07829E7
:103C7000D4D1782384F84530644855E01368191D81
:103C80001B68116004F1420584F8423001238CE086
:103C90001B68116010F0400F18BF1BB2CFE713680C
:103CA0002568181D1060280601D51B6802E068060B
:103CB000FBD51B8854486F2914BF0A220822002113
:103CC00084F843106568A560002DC0F295802168D6
:103CD00021F004012160002B3DD1002D40F08E80A9
:103CE0006546082A0BD12368DB0708D5236962687B
:103CF0009A42DEBF302305F8013C05F1FF35ACEBFD
:103D000005032361CDF800803B4603AA21463046D7
:103D1000FFF7F6FE01304DD14FF0FF3005B0BDE8A2
:103D2000F083394884F84510136821681D1D1B680D
:103D300015600A060BD5CA0744BF41F02001216077
:103D40001BB9226822F0200222601022B7E74D063C
:103D500048BF9BB2EFE76546B3FBF2F102FB1133BC
:103D6000C35C05F8013D0B460029F5D1B9E713689E
:103D700025686169181D106028061B6801D5196047
:103D800002E06A06FBD51980002323616546B9E786
:103D90001368191D11601D68626800212846FCF730
:103DA000EFF908B1401B606063682361002384F869
:103DB0004330A7E723692A4639463046C0470130D9
:103DC000AAD023689B0713D4E068039B9842B8BF2E
:103DD0001846A3E701234A4639463046C04701301A
:103DE0009AD00135E368039A9B1AAB42F2DCEBE709
:103DF000002504F11909F5E7002BACD1037884F80C
:103E0000423004F142056CE7B2610008C36100086A
:103E10000FB40A4B13B51C6824B1A36913B920462B
:103E200001F066F805AB049AA1680193204601F001
:103E300029FD02B0BDE8104004B070470800002022
:103E400070B50E46054618B183690BB901F050F8FC
:103E5000AB69AC6813B9284601F04AF8234B9C4281
:103E600017D16C68A3891B071DD52369DBB1013EFF
:103E7000A36816F8011F013BA360E9B9002B2EDAF5
:103E800022460A21284600F03FF8013011D00A20CE
:103E900011E0174B9C4201D1AC68E3E7154B9C4203
:103EA00008BFEC68DEE72146284600F07FF80028CE
:103EB000DDD04FF0FF3070BD002B04DAA2699A42CA
:103EC00006DC0A2904D023685A1C22601970CFE747
:103ED0002246284600F018F80130C9D1E9E72368E6
:103EE0000A205A1C22601870E5E700BF046200082F
:103EF00024620008E4610008024B01461868FFF7DD
:103F00009FBF00BF08000020F8B50E4614460546C6
:103F100018B183690BB900F0EBFF214B9C422AD109
:103F20006C68A369A360A3891A072ED5236963B3BC
:103F300023692068C01A6369F6B28342374604DCFD
:103F40002146284600F06AFF28BBA368013BA36016
:103F500023685A1C22601E7063690130834204D0BA
:103F6000A389DB0719D50A2E17D12146284600F070
:103F700055FF90B10FE00B4B9C4201D1AC68D0E7EC
:103F8000094B9C4208BFEC68CBE72146284600F06D
:103F90000DF80028CCD04FF0FF373846F8BD00BFF1
:103FA0000462000824620008E4610008324B70B526
:103FB0001D6806460C4625B1AB6913B9284600F0CA
:103FC00097FF2E4B9C420FD16C68B4F90C309AB21B
:103FD00015072CD4D00611D40922326043F04003D7
:103FE000A3814FF0FF303EE0254B9C4201D1AC68ED
:103FF000EBE7244B9C4208BFEC68E6E7510712D57B
:10400000616B41B104F14403994202D0304601F0A2
:1040100067FB00236363A38923F02403A3810023A8
:10402000636023692360A38943F00803A3812369A4
:104030004BB9A38903F42073B3F5007F03D0214665
:10404000304601F011F8A28912F001030CD00023D0
:10405000A36063695B42A361236953B9B4F90C306F
:1040600013F08000BAD170BD920758BF6369A36096
:10407000F2E70020F7E700BF080000200462000814
:1040800024620008E46100082DE9F74F03690C6918
:10409000A3428046C0F28280013C01F114074FEA3E
:1040A000840C00F1140657F8245056F8240006EB4F
:1040B0000C03013507EB0C090193B0FBF5F595B343
:1040C0004FF0000A3846B646D34650F8042B93B258
:1040D00005FB03A34FEA134A9BB2ABEB0303120C9D
:1040E000DEF800B005FB02A213FA8BF34FEA124A86
:1040F0001FFA82FBDEF80020CBEB124202EB2342D8
:104100009BB243EA024381454FEA224B4EF8043BFF
:10411000DBD256F80C3033B9019B043B9E421A4661
:1041200030D3C8F81040404601F006FA002825DBDD
:10413000013530464FF0000C57F8042BD0F800E062
:1041400093B2ACEB0303120C13FA8EF3C2EB1E42D4
:1041500002EB23429BB243EA0243B9454FEA224CA9
:1041600040F8043BE8D256F8242006EB84032AB931
:10417000043B9E421A460BD3C8F81040284603B0B1
:10418000BDE8F08F1268043B002ACAD1013CC5E7A4
:104190001268043B002AEFD1013CEAE70020EEE779
:1041A0002DE9F04F57EC106B97B0456A0691044625
:1041B0000B921293DDF88080CDE900673DB91020A5
:1041C00000F092FF6062C0E901550560C560636A56
:1041D000196851B15A684A60012393408B602046A8
:1041E00000F0C9FF636A00221A603B1EBBBF23F0C8
:1041F0000043019300230122ACBFC8F80030C8F887
:104200000020AF4BDDF8048033EA080314D1129A82
:1042100042F20F731360009B23B9C8F31300002808
:1042200000F04285219BDFF8ACB2002B00F0448502
:104230000BF1030300F03EBDDDE90067002200231F
:1042400030463946FCF710FC814668B1129A0123CA
:104250001360219B002B00F024859A4B219A03F1D7
:10426000FF3B136000F028BD14AA15A947EC106BA2
:10427000204601F0D8F9C8F30A550490002D7CD0EF
:10428000C7F3130343F07F5BB2464BF4401BA5F228
:10429000FF35CDF84C9000228B4B50465946FBF72A
:1042A000C3FF81A3D3E90023FCF776F980A3D3E908
:1042B0000023FBF7BBFF064628460F46FCF702F932
:1042C0007DA3D3E90023FCF767F902460B4630468D
:1042D0003946FBF7ABFF06460F46FCF70DFC002204
:1042E0008246002330463946FCF7C8FB48B15046A9
:1042F000FCF7E8F832463B46FCF7B6FB08B90AF192
:10430000FF3ABAF1160F59D8704901EBCA01DDE93D
:104310000023D1E90001FCF7CFFB002850D00AF1BF
:10432000FF3A00230F93149B5D1BB5F1010849BFB1
:10433000C5F10103002305934FF0000858BF059312
:10434000BAF1000F3EDB0023D044CDF838A007932C
:10435000069B092B00F29080052BC4BF043B0693FB
:10436000069BA3F10203CCBF00250125032B00F21D
:104370008F80DFE803F07D7F3171DDE914531D4448
:1043800005F23240202813DDC0F14000009B08FAFE
:1043900000F805F2124023FA00F048EA0000FCF7AA
:1043A00081F801238246A1F1F87B013D139372E766
:1043B000009BC0F1200003FA00F0F0E70123B1E711
:1043C0000F90B0E7059BA3EB0A030593CAF1000326
:1043D000079300230E93BBE701230A930B9B002B4B
:1043E00059DD02939946666A00227260042202F146
:1043F00014009842716853D9204600F088FE636A21
:104400003060B9F10E0FD3F800B000F2E680002D55
:1044100000F0E3809DED007BBAF1000F8DED107B85
:1044200074DD2A4A0AF00F0302EBC30393ED007B0D
:104430004FEA2A16F0068DED087B65D5244BDDE9A1
:104440001001D3E90823FCF7D1F9CDE9000106F00A
:104450000F0603251E4F4CE001230A930B9B534488
:1044600003F1010902934B46012BB8BF0123BAE7C0
:104470000023B2E70023F0E70125002306930A9505
:104480004FF0FF3302939946002212230B92AAE7C2
:1044900001230A93F4E70123029399461A46F5E7AC
:1044A000013171605200A2E761436F63A787D23F79
:1044B000B3C8608B288AC63FFB799F501344D33F13
:1044C0000000F07FB16100080000F83F7062000852
:1044D00048620008DD610008F10708D5DDE9080140
:1044E000D7E90023FCF758F8CDE90801013576102B
:1044F0000837002EF0D1DDE90823DDE90001FCF7E3
:1045000075F9CDE900011AE00225A3E700F0A080CB
:10451000CAF100069F4BA04F06F00F0203EBC20347
:10452000D3E90023DDE91001FCF736F8CDE90001FD
:10453000361100230225002E7FD1002BE1D10F9BE5
:10454000002B00F08780DDE900670022934B3046A6
:104550003946FCF793FA00287CD0B9F1000F79D0E6
:10456000029B002B35DD0AF1FF3308933946002208
:104570008B4B3046FCF710F8CDE90001029F013566
:104580002846FBF79FFFDDE90023FCF705F8002232
:10459000844BFBF74BFE0546A1F15076002F5DD111
:1045A0000022814BDDE90001FBF73EFE2A4633463F
:1045B000CDE90001FCF780FA002840F088822A4605
:1045C00006F10043DDE90001FCF758FA002840F04D
:1045D0007C82DDE91023CDE90023159B002BC0F27E
:1045E0005081BAF10E0F00F34C816A4B03EBCA0302
:1045F00093ED007B0B9B002B8DED027B80F2D8802E
:10460000B9F1000F00F3D48040F05E820022664BC7
:1046100051EC170BFBF7C0FFDDE90023FCF742FA72
:104620004F464E46002840F0348231230BF10105FD
:104630008BF800300AF1010A2FE2F20705D5D7E91D
:104640000023FBF7A9FF013501237610083772E735
:10465000022574E7CDF820A04F4691E74D4B03EBC0
:10466000C70353E902010A9B002B47D002460B46C1
:1046700000204E49FCF7BAF82A463346FBF7D4FD32
:10468000CDE90C015D46DDE90001FCF735FA06468F
:10469000FBF718FF02460B46DDE90001FBF7C4FDFE
:1046A000303605F8016BDDE90C23CDE90001FCF79C
:1046B000E5F9002863D1DDE9002300203749FBF745
:1046C000B3FDDDE90C23FCF7D9F9002840F0B780F1
:1046D000A5EB0B039F427FF77CAF0022304BDDE957
:1046E0000C01FBF759FF0022CDE90C012C4BDDE951
:1046F0000001FBF751FFCDE90001C4E72A4633462C
:10470000FBF74AFFCDE90C010BEB07055E46DDE93F
:104710000001FCF7F1F90746FBF7D4FE30370246FB
:104720000B46DDE90001FBF77FFD06F8017BAE4299
:10473000CDE900014FF0000226D11C4BDDE90C0150
:10474000FBF774FD02460B46DDE90001FCF7B4F906
:10475000002874D1DDE90C2300201449FBF764FD27
:1047600002460B46DDE90001FCF788F900283FF41A
:1047700030AF15F8013C302B05F1FF3202D0DDF8E7
:1047800020A04AE01546F4E7054BFBF705FFCDE90D
:104790000001BCE770620008486200080000F03FBA
:1047A0000000244000001C40000014400000E03FD6
:1047B000DDE900675D46DDE9022330463946FCF756
:1047C00015F8FCF799F98046FBF77CFEDDE902233A
:1047D000FBF7E2FE02460B463046394608F130064A
:1047E000FBF722FD05F8016BA5EB0B06B145024670
:1047F0000B4639D1FBF71AFDDDE9022306460F46C9
:10480000FCF75AF9C8B9DDE9022330463946FCF70E
:104810002BF910B118F0010F0FD10499204600F0C8
:10482000AAFC0023129A2B700AF101031360219B4A
:10483000002B00F041821D603EE2CDF820A015F86B
:10484000012C392A05F1FF3308D19B450AD1089B79
:104850000133089330238BF800305B461A7801321D
:104860001A708CE71D46EAE700229B4BFBF794FE8B
:104870000022002306460F46FCF7F6F800289AD0DF
:10488000CBE70A9A002A00F08B80069A012A6EDC98
:10489000139A002A67D003F23343079F059D059AB8
:1048A00001211A4420460592984400F004FD064672
:1048B000002D0CDDB8F1000F09DD4545059A2B46AA
:1048C000A8BF4346D21A0592ED1AA8EB0308079B2E
:1048D000EBB10A9B002B67D08FB131463A46204698
:1048E00000F088FD049A01460646204600F0ECFCE4
:1048F00004990890204600F03EFC089B0493079B17
:10490000DA1B04D00499204600F074FD04900121C4
:10491000204600F0D0FC0E9B0746002B00F0D08113
:104920001A460146204600F065FD069B012B07460E
:1049300040DC009B002B39D1019BC3F31303002BF8
:1049400036D1019B23F000431B0D1B052BB1059BAA
:104950000133059308F10108012307930E9B002BF7
:104960002AD1012030E0149BC3F1360395E7079B61
:1049700009F1FF37BB42BFBF079B0797FA1A0E9B8F
:10498000BBBF9B180E93DF1B0027B9F1000FB5BF0B
:10499000059B059DA3EB09054B46B8BF00237EE7A9
:1049A000079F059D0A9E83E7079AABE70023D4E79C
:1049B000009BD2E7002307933B6907EB8303186949
:1049C00000F02BFCC0F12000404410F01F0047D045
:1049D000C0F12003042B3BDD059BC0F11C00034408
:1049E000059305448044059B002B05DD1A46049978
:1049F000204600F04DFD0490B8F1000F05DD39466A
:104A00004246204600F044FD07460F9B53B339460B
:104A1000049800F091FD002824DA00230A2204996A
:104A2000204600F0BFFB0A9B04900AF1FF3A002BDE
:104A300000F04D81002331460A22204600F0B2FBEF
:104A4000029B002B06464FDC069B022B4CDD11E03F
:104A5000C9D0059A1C331A4405921D449844C2E7F4
:104A60000346F6E7B9F1000F38DC069B022B35DD73
:104A7000CDF80890029B63B939460522204600F024
:104A800091FB01460746049800F056FD00283FF7C9
:104A9000CCAD0B9B5D466FEA030A4FF00009394627
:104AA000204600F068FB002E3FF4B7AEB9F1000FCE
:104AB00005D0B14503D04946204600F05CFB3146A5
:104AC000204600F058FBA8E600273E46E1E7DDF867
:104AD00020A03E46A9E500BF000024400A9BCDF877
:104AE0000890002B00F0FA80002D05DD31462A46A3
:104AF000204600F0CDFC0646079B002B4CD0716889
:104B0000204600F004FB326902320546920006F1AD
:104B10000C010C3000F0F0FA01222946204600F08A
:104B2000B7FC009BCDF814B003F00103B146079326
:104B3000064639460498FFF7A7FA4946054600F1AC
:104B40003008049800F0F8FC3246009039462046C0
:104B500000F00CFDC368024603BB014608900498B0
:104B600000F0EAFC089A034611462046089300F03C
:104B700002FB089BA3B9069A92B9079A82B9B8F1C9
:104B8000390F29D0009B002B01DD05F13108059B71
:104B90005D1C83F8008082E73046C2E70123E3E72B
:104BA000009A002A04DB25D1069A1ABB079A0ABB91
:104BB000002BECDD01220499204600F069FC394607
:104BC000049000F0B9FC002803DCE0D118F0010FDC
:104BD000DDD0B8F1390FD8D1059B059A5D1C39237A
:104BE000137015F8013C392B05F1FF324FD001331A
:104BF000137054E7059A002B02F1010506DDB8F1A8
:104C0000390FE9D008F10108059BC2E7029A05F8BF
:104C1000018CA5EB0B03934221D000230A220499B7
:104C2000204600F0BFFAB14504904FF000034FF06A
:104C30000A024946204605D100F0B4FA81460646EC
:104C4000059576E700F0AEFA3146814600230A2248
:104C5000204600F0A7FA0646F2E74FF000090122CD
:104C60000499204600F014FC3946049000F064FCDE
:104C70000028B6DC02D118F0010FB2D115F8013CC2
:104C8000302B05F1FF327FF40AAF1546F6E7934566
:104C900005D131230AF1010A8BF80030FFE61546F1
:104CA0009FE7DFF864B007E0219BDFF860B01BB13D
:104CB0000BF10803219A1360584617B0BDE8F08F36
:104CC000069B012B7FF735AE0E9B079349E6029BAF
:104CD000002B03DC069B022B3FF7CCAE5D4639462A
:104CE0000498FFF7D1F900F1300805F8018B029A1A
:104CF000A5EB0B039A42B0DD00230A22049920465B
:104D000000F050FA0490EAE7B0610008D4610008AE
:104D10008A892DE9F041054610070C4658D44B68A6
:104D2000002B05DC0B6C002B02DC0020BDE8F081C1
:104D3000E66A002EF9D0002312F480522F68216A0F
:104D40002B6032D0606DA3895A0705D56368C01AFD
:104D5000636B0BB1236CC01A00230246E66A216A1A
:104D60002846B047431CA38906D129681D2948D885
:104D7000294ACA40D60744D500226260D904226974
:104D8000226004D5421C01D12B6803B96065616BB8
:104D90002F600029C9D004F14403994202D028466B
:104DA00000F09EFC00206063C0E701232846B04766
:104DB000411CC8D12B68002BC5D01D2B01D0162B50
:104DC00001D12F60B1E7A38943F04003A381ADE790
:104DD0000F69002FA9D093070E6808BF4B690F60B9
:104DE00018BF0023A6EB07088B60B8F1000F9CDD0D
:104DF00043463A46216AA66A2846B047002806DCA0
:104E0000A38943F04003A3814FF0FF308EE70744AE
:104E1000A8EB0008E9E700BF0100402038B50B69A6
:104E200005460C46DBB118B183690BB900F060F898
:104E30000C4B9C4209D16C68B4F90C307BB1214613
:104E40002846BDE83840FFF763BF074B9C4201D1BD
:104E5000AC68F1E7054B9C4208BFEC68ECE700202A
:104E600038BD00BF0462000824620008E461000845
:104E7000002310B50446C0E9003383608181436696
:104E8000C281C0E904338361194608225C30FEF711
:104E90005BFB054B6362054BA362054BE362054B6D
:104EA0002462236310BD00BFD15A0008F35A0008E2
:104EB0002B5B00084F5B0008014900F085B800BF7C
:104EC0001D4E000870B54A1E682555430E4605F173
:104ED000740100F053FC044640B10021C0E9001603
:104EE0000C30A06005F16802FEF72EFB204670BD75
:104EF000836910B5044633BBC0E912330365124B16
:104F0000124A1B688262984204BF0123836100F049
:104F10001FF86060204600F01BF8A060204600F0FB
:104F200017F80022E06004216068FFF7A1FF01226A
:104F30000921A068FFF79CFF02221221E068FFF719
:104F400097FF0123A36110BD9C610008B94E0008C2
:104F5000F8B51B4B1E68B369074613B93046FFF717
:104F6000C7FF4836D6E90134013B03D5336833B176
:104F70003668F7E7B4F90C506DB16834F4E70421F2
:104F80003846FFF79FFF30600028F1D10C233B60CB
:104F900004462046F8BD0B4B6566C4E90055A56084
:104FA000C4E90335C4E905550822294604F15C002B
:104FB000FEF7CAFAC4E90D55C4E91255E9E700BF86
:104FC0009C6100080100FFFF2DE9F84380468946F7
:104FD00000F14804002614B93046BDE8F883D4E94E
:104FE0000175013F01D52468F5E7AB89012B07D98D
:104FF000B5F90E30013303D029464046C847064371
:105000006835EEE7044B1B68186A044B002808BF9C
:105010001846F030704700BF080000206C000020E8
:1050200070B50E46B1F90E10002996B014461D4613
:1050300007DA00232B60B3891A0610D44FF480637B
:105040000EE06A4600F0AAFD0028F2DB019A02F4A5
:105050007042A2F500535A425A412A60EEE74023BB
:105060000020236016B070BD8B8973B59D0706467E
:105070000C4607D504F147032360236101236361D4
:1050800002B070BD01AB6A46FFF7CAFF0099054642
:10509000304600F073FB48B9B4F90C309A05EFD4F0
:1050A00023F0030343F00203A381E3E70D4BB36254
:1050B000A389206043F08003A381009B6361019B6F
:1050C00020615BB1B4F90E10304600F079FD28B1D3
:1050D000A38923F0030343F00103A381A3891D43A4
:1050E000A581CDE7B94E0008024B0146186800F0D3
:1050F00045BB00BF0800002010B5431E0A44914282
:1051000000D110BD11F8014B03F8014FF7E770B55E
:10511000456A04460E463DB91020FFF7E5FF606280
:10512000C0E901550560C560656AEB6883B1636AD3
:10513000DB6853F82600B8B9012101FA06F56A1DAB
:105140009200204600F0BEFA60B1C0E901650EE0B1
:1051500021220421204600F0B5FA636AE860DB688A
:10516000002BE4D1002070BD026843F82620002304
:10517000C0E90333F7E770B5446A06460D463CB90B
:105180001020FFF7B1FF7062C0E901440460C46001
:105190003DB1736A6A68DB6853F82210296043F8EE
:1051A000225070BD2DE9F0410D691F4606460C46A0
:1051B00001F1140C0023DCF8000081B202FB017144
:1051C0000F0C000C02FB007089B2013301EB0041AF
:1051D0009D424FEA10474CF8041BECDCD7B1A368A2
:1051E000AB4212DC616830460131FFF790FF226963
:1051F000023204F10C01804692000C30FFF77CFF74
:1052000021463046FFF7B7FF444604EB85030135DE
:105210005F6125612046BDE8F081020C120403465F
:10522000B2B90304102013F07F4F04BF1B020830F3
:1052300013F0704F04BF1B01043013F0404F04BF44
:105240009B000230002B06DB5B0003D5013070476A
:105250000020E8E720207047036813F007020146AA
:105260000BD0DA0723D4980749BF5B089B080120BD
:105270000B605CBF0B600220704798B2A8B91B0C92
:10528000102013F0FF0F04BF1B0A08301A0704BFD9
:105290001B0904309A0704BF9B080230DA0702D4C6
:1052A0005B0806D001300B6070471046E9E700202C
:1052B00070472020704710B50C460121FFF727FFEB
:1052C00001224461026110BD2DE9F74F14460A69BD
:1052D00023699A42B8BF0B468846BCBFA0461C460D
:1052E000D8F81070D4F81090D8F80830D8F8041016
:1052F00007EB0906B342B8BF0131FFF708FF00F121
:10530000140505EB860E2B460022734516D304F1D7
:10531000140208F1140102EB890301EB87070093E3
:10532000009B019293420CD8002E03DD5EF8043DF1
:10533000002B5DD0066103B0BDE8F08F43F8042B6D
:10534000E3E7B2F800B0BBF1000F23D08946AC46CA
:105350004FF0000859F8044BDCF800A0A3B21FFA84
:105360008AFA0BFB03A34FEA144ADCF800404344DB
:105370004FEA14480BFB0A8404EB1344E2469BB249
:1053800043EA04434F454FEA14484AF8043B2BD8FC
:10539000CCF80480019BB3F802A00432BAF1000FEC
:1053A00020D02B688946A8464FF0000BB9F800C002
:1053B000B8F802400AFB0C445C44C4469BB243EA82
:1053C00004434CF8043B59F8043BB8F804B01B0CF8
:1053D0000AFB03B303EB14434F454FEA134B05D8C5
:1053E000C8F8043004359BE7D446B3E7E046DDE770
:1053F000013E99E72DE9F843154612F003020646EF
:105400000F4607D0013A214C002354F82220FFF721
:10541000C9FE0746AD1035D0746A3CB91020FFF7BD
:1054200063FE7062C0E901440460C460D6F8248061
:10543000D8F808404CB940F271213046FFF73BFFE5
:105440000023C8F80800044603604FF00008EB078B
:105450000AD5394622463046FFF736FF394681469F
:105460003046FFF788FE4F466D100BD0206838B9E4
:10547000224621463046FFF727FF2060C0F8008013
:105480000446E4E73846BDE8F88300BF3863000807
:105490002DE9F0470C464FEA621A236949680AEB86
:1054A0000309A3680746164609F10105AB4232DB42
:1054B0003846FFF72CFE0023804600F114011A46FF
:1054C00053452BDB20692AEAEA7A04F1140316F02B
:1054D0001F0201EB8A0103EB800C25D0C2F1200EE4
:1054E00000201E688A46964030434AF8040B53F861
:1054F000040B9C4520FA0EF014D8486008B109F15D
:105500000205013D3846C8F810502146FFF733FE2A
:105510004046BDE8F08701315B00C7E741F8232032
:105520000133CDE75146DCE7043953F8042B41F849
:10553000042F9C45F9D8E4E703690A699B1A30B542
:105540000CD19200143014318418114454F8045DC5
:1055500051F8042D954203D005D30123184630BDE0
:10556000A042F3D3FAE74FF0FF33F7E72DE9F04716
:105570000D460746114628461446FFF7DDFF061E76
:1055800008D131463846FFF7C2FD0123C0E9043691
:10559000BDE8F087A4BF23462C4638466168A6BF05
:1055A0001D4600260126FFF7B2FD2B69C66026695D
:1055B00005F1140904F1140202EB860709EB8308D4
:1055C00000F114054FF0000E52F804AB59F8044BEB
:1055D0001EFA8AF1A3B2C91A230CC3EB1A4303EBD8
:1055E000214389B24FEA234EC84541EA034394461A
:1055F00045F8043BE8D8BC4504D355F8043D83B1D5
:105600000661C5E75CF8041B1EFA81F31A1402EB6D
:1056100011429BB243EA02434FEA224E45F8043B53
:10562000E9E7013EE9E72DE9F7430E46012159EC90
:10563000108B1546FFF76BFDC9F30A540746C9F3F3
:10564000130334BB0193B8F1000327D002A840F83C
:10565000083DFFF701FE0099F0B1019AC0F1200367
:1056600002FA03F30B43C2407B610192019BBB61D1
:10567000002B14BF022101213961C4B1A4F23344CB
:1056800004443460C0F135002860384603B0BDE8FA
:10569000F08343F48013D5E77961E7E701A8FFF7CA
:1056A000DBFD019B7B61012139612030E5E707EBE0
:1056B0008103A0F2324030601869FFF7AEFDC0EB05
:1056C0004110E1E738B502FB01F4214600F056F83D
:1056D000054618B122460021FDF736FF284638BDA1
:1056E00038B50546002945D051F8043C0C1F002B65
:1056F000B8BFE41800F098FA1F4A1368104633B98F
:10570000636014602846BDE8384000F08EBAA342BA
:105710000CD921686218934204BF1A685B68636001
:1057200004BF521822600460ECE713465A680AB1BD
:10573000A242FAD919685818A0420BD12068014436
:10574000581882421960DDD1106852685A600144CD
:105750001960D7E702D90C232B60D3E72068211802
:105760008A4204BF11685268626004BF0918216050
:105770005C60C7E738BD00BF3802002070B5CD1CA3
:1057800025F0030508350C2D38BF0C25002D0646E5
:1057900001DBA94203D90C233360002070BD00F067
:1057A00043FA214A1468214691B9204C23681BB959
:1057B000304600F07DF920602946304600F078F947
:1057C000431C24D10C233360304600F02EFAE4E76A
:1057D0000B685B1B18D40B2B0FD90B60CD50CC186A
:1057E000304600F022FA04F10B00231D20F00700E0
:1057F000C31AD3D05A42E250D0E78C424B6816BF4E
:10580000636013600C46EBE70C464968CCE7C41CA8
:1058100024F00304A04205D0211A304600F048F9D4
:105820000130CFD02560DBE7380200203C020020A9
:105830009368013B002B10B4936008DA9469A3428B
:1058400001DB0A2903D15DF8044BFEF75DBB136849
:10585000581C1060197008465DF8044B7047F8B585
:1058600006460F461446D518AC4201D1002007E089
:105870003A4614F8011B3046FFF7DAFF431CF3D118
:10588000F8BD00002DE9F04F0C469DB017461D46AF
:10589000064618B183690BB9FFF72AFB7C4B9C4283
:1058A00058D17468A38918075ED52369002B5BD093
:1058B0000023099320238DF8293030238DF82A30D6
:1058C00003954FF0010BB846454615F8013B0BB167
:1058D000252B54D1B8EB070A0BD053463A46214644
:1058E0003046FFF7BCFF013000F0C280099B5344F3
:1058F000099398F80030002B00F0BA8000234FF095
:10590000FF32CDE90523049307938DF853301A93A2
:10591000A846052218F8011B5E48FAF731FC049BE3
:1059200078BBD90644BF20228DF853201A0744BF04
:105930002B228DF853202A782A2A2AD0079AA846A3
:1059400000200A25414611F8013B303B092B69D95B
:1059500060B324E0504B9C4201D1B468A2E74F4BA6
:105960009C4208BFF4689DE721463046FEF71EFBC7
:1059700000289DD04FF0FF301DB0BDE8F08FA84645
:10598000A2E7444A801A0BFA00F0184304904546F7
:10599000BEE7039A111D12680391002A01DB0792EA
:1059A00004E0524243F002030792049398F8003057
:1059B0002E2B0ED198F801302A2B38D1039B1A1DBB
:1059C0001B680392002BB8BF4FF0FF3308F10208A9
:1059D0000593334D98F8001003222846FAF7D0FBC0
:1059E00040B14023401B03FA00F0049B034308F13D
:1059F0000108049398F800102A488DF82810062210
:105A000008F10107FAF7BCFB002837D0264B1BBB77
:105A1000039B073323F0070308330393099B4B448D
:105A2000099350E705FB0232012088468AE70023EC
:105A300008F10108059319460A25404610F8012B84
:105A4000303A092A03D9002BC3D00591C1E705FBE1
:105A5000012101238046F0E703AB00932246134B5C
:105A600004A93046FDF70CFEB0F1FF3F8146D5D1C9
:105A7000A3895B063FF57EAF09987DE703AB0093F2
:105A800022460A4B04A93046FEF7B0F8ECE700BF07
:105A9000046200084463000824620008E46100080E
:105AA0004A6300084E630008813600085F5800080A
:105AB00038B5064C002305460846236000F0FEF882
:105AC000431C02D1236803B12B6038BD8C12002027
:105AD00010B50C46B1F90E1000F0A8F80028ABBFC5
