:020000040800F2
:10000000000001205D170008451200084712000893
:10001000491200084B1200084D12000800000000B1
:100020000000000000000000000000004F12000867
:10003000511200080000000053120008AD1700081C
:10004000AD170008AD170008AD17000855120008DD
:10005000AD170008AD170008AD170008AD17000870
:10006000AD170008AD170008AD170008AD17000860
:10007000AD170008AD170008AD170008AD17000850
:10008000AD170008AD170008AD170008AD17000840
:10009000AD170008AD170008AD170008AD17000830
:1000A000AD170008AD170008AD170008AD17000820
:1000B000AD170008AD170008AD170008AD17000810
:1000C000AD170008AD170008AD170008AD17000800
:1000D000AD170008AD170008AD170008AD170008F0
:1000E000AD170008AD170008AD170008AD170008E0
:1000F000AD170008AD170008AD170008AD170008D0
:10010000AD170008AD170008AD170008AD170008BF
:10011000AD170008AD170008AD170008AD170008AF
:10012000AD170008AD170008AD170008AD1700089F
:1001300010B5054C237833B9044B13B10448AFF321
:1001400000800123237010BDD001002000000000BA
:10015000883F000808B5034B1BB103490348AFF3C0
:10016000008008BD00000000D4010020883F000886
:10017000034613F8012B002AFBD1181A01387047E7
:1001800001F0FF01102A2BDB10F0070F08D010F848
:10019000013B013A8B422DD010F0070F42B3F6D14C
:1001A000F0B441EA012141EA014122F007047FF065
:1001B00000070023F0E80256083C85EA010586EABC
:1001C000010685FA47F5A3FA87F586FA47F6A5FAF8
:1001D00087F68EB9EED1F0BC01F0FF0102F0070204
:1001E00032B110F8013B013A83EA010313B1F8D1AF
:1001F0000020704701387047002D06BF3546033890
:10020000073815F0010F07D1013015F4807F02BFC8
:10021000013015F4C03F0130F0BC0138704700BF19
:1002200081F0004102E000BF83F0004330B54FEAA7
:1002300041044FEA430594EA050F08BF90EA020F14
:100240001FBF54EA000C55EA020C7FEA645C7FEAA7
:10025000655C00F0E2804FEA5454D4EB5555B8BFCA
:100260006D420CDD2C4480EA020281EA030382EA3B
:10027000000083EA010180EA020281EA0303362DCD
:1002800088BF30BD11F0004F4FEA01314FF4801CA0
:100290004CEA113102D0404261EB410113F0004FB2
:1002A0004FEA03334CEA133302D0524263EB430369
:1002B00094EA050F00F0A780A4F10104D5F1200E07
:1002C0000DDB02FA0EFC22FA05F2801841F1000162
:1002D00003FA0EF2801843FA05F359410EE0A5F136
:1002E00020050EF1200E012A03FA0EFC28BF4CF067
:1002F000020C43FA05F3C01851EBE37101F000451D
:1003000007D54FF0000EDCF1000C7EEB00006EEB29
:100310000101B1F5801F1BD3B1F5001F0CD34908B3
:100320005FEA30004FEA3C0C04F101044FEA44520A
:1003300012F5800F80F09A80BCF1004F08BF5FEA91
:10034000500C50F1000041EB045141EA050130BD71
:100350005FEA4C0C404141EB010111F4801FA4F114
:100360000104E9D191F0000F04BF01460020B1FA69
:1003700081F308BF2033A3F10B03B3F120020CDAA1
:100380000C3208DD02F1140CC2F10C0201FA0CF07F
:1003900021FA02F10CE002F11402D8BFC2F1200CE4
:1003A00001FA02F120FA0CFCDCBF41EA0C0190409A
:1003B000E41AA2BF01EB0451294330BD6FEA0404E3
:1003C0001F3C1CDA0C340EDC04F11404C4F12002CE
:1003D00020FA04F001FA02F340EA030021FA04F3E0
:1003E00045EA030130BDC4F10C04C4F1200220FA37
:1003F00002F001FA04F340EA0300294630BD21FA75
:1004000004F0294630BD94F0000F83F4801306BF3A
:1004100081F480110134013D4EE77FEA645C18BF2E
:100420007FEA655C29D094EA050F08BF90EA020FC5
:1004300005D054EA000C04BF1946104630BD91EABD
:10044000030F1EBF0021002030BD5FEA545C05D1C0
:100450004000494128BF41F0004130BD14F58004FF
:100460003CBF01F5801130BD01F0004545F0FE4173
:1004700041F470014FF0000030BD7FEA645C1ABFA8
:10048000194610467FEA655C1CBF0B46024650EADF
:10049000013406BF52EA033591EA030F41F400210B
:1004A00030BD00BF90F0000F04BF0021704730B591
:1004B0004FF4806404F132044FF000054FF0000166
:1004C00050E700BF90F0000F04BF0021704730B527
:1004D0004FF4806404F1320410F0004548BF4042FC
:1004E0004FF000013EE700BF42004FEAE2014FEA51
:1004F00031014FEA02701FBF12F07F4393F07F4F2C
:1005000081F06051704732F07F4208BF704793F02E
:100510007F4F04BF41F40021704730B54FF4607441
:1005200001F0004521F000411CE700BF50EA010244
:1005300008BF704730B54FF000050AE050EA0102ED
:1005400008BF704730B511F0004502D5404261EB5D
:1005500041014FF4806404F132045FEA915C3FF49E
:10056000D8AE4FF003025FEADC0C18BF03325FEA3B
:10057000DC0C18BF033202EBDC02C2F1200300FAEC
:1005800003FC20FA02F001FA03FE40EA0E0021FA11
:1005900002F11444BDE600BF70B54FF0FF0C4CF4FF
:1005A000E06C1CEA11541DBF1CEA135594EA0C0FB1
:1005B00095EA0C0F00F0DEF82C4481EA030621EAEC
:1005C0004C5123EA4C5350EA013518BF52EA033527
:1005D00041F4801143F4801338D0A0FB02CE4FF0D9
:1005E0000005E1FB02E506F00042E0FB03E54FF009
:1005F0000006E1FB03569CF0000F18BF4EF0010E01
:10060000A4F1FF04B6F5007F64F5407404D25FEAFC
:100610004E0E6D4146EB060642EAC62141EA5551AF
:100620004FEAC52040EA5E504FEACE2EB4F1FD0CF1
:1006300088BFBCF5E06F1ED8BEF1004F08BF5FEA6F
:10064000500E50F1000041EB045170BD06F0004621
:1006500046EA010140EA020081EA0301B4EB5C04CE
:10066000C2BFD4EB0C0541EA045170BD41F48011C6
:100670004FF0000E013C00F3AB8014F1360FDEBFEB
:10068000002001F0004170BDC4F10004203C35DAC7
:100690000C341BDC04F11404C4F1200500FA05F34A
:1006A00020FA04F001FA05F240EA020001F00042EB
:1006B00021F0004110EBD37021FA04F642EB060161
:1006C0005EEA430E08BF20EAD37070BDC4F10C048B
:1006D000C4F1200500FA04F320FA05F001FA04F24F
:1006E00040EA020001F0004110EBD37041F100013B
:1006F0005EEA430E08BF20EAD37070BDC4F1200546
:1007000000FA05F24EEA020E20FA04F301FA05F2AD
:1007100043EA020321FA04F001F0004121FA04F255
:1007200020EA020000EBD3705EEA430E08BF20EA25
:10073000D37070BD94F0000F0FD101F0004640005F
:1007400041EB010111F4801F08BF013CF7D041EAE1
:10075000060195F0000F18BF704703F000465200E5
:1007600043EB030313F4801F08BF013DF7D043EAB6
:100770000603704794EA0C0F0CEA135518BF95EA6C
:100780000C0F0CD050EA410618BF52EA4306D1D1F3
:1007900081EA030101F000414FF0000070BD50EA12
:1007A000410606BF1046194652EA430619D094EA9C
:1007B0000C0F02D150EA013613D195EA0C0F05D186
:1007C00052EA03361CBF104619460AD181EA0301DA
:1007D00001F0004141F0FE4141F470014FF0000092
:1007E00070BD41F0FE4141F4780170BD70B54FF02D
:1007F000FF0C4CF4E06C1CEA11541DBF1CEA1355AD
:1008000094EA0C0F95EA0C0F00F0A7F8A4EB05048E
:1008100081EA030E52EA03354FEA013100F0888085
:100820004FEA03334FF0805545EA131343EA12634E
:100830004FEA022245EA111545EA10654FEA002603
:100840000EF000419D4208BF964244F1FD0404F5BC
:10085000407402D25B084FEA3202B61A65EB030518
:100860005B084FEA32024FF480104FF4002CB6EBD5
:10087000020E75EB030E22BFB61A754640EA0C0055
:100880005B084FEA3202B6EB020E75EB030E22BF95
:10089000B61A754640EA5C005B084FEA3202B6EBD6
:1008A000020E75EB030E22BFB61A754640EA9C0095
:1008B0005B084FEA3202B6EB020E75EB030E22BF65
:1008C000B61A754640EADC0055EA060E18D04FEA23
:1008D000051545EA16754FEA06164FEAC30343EAC3
:1008E00052734FEAC2025FEA1C1CC0D111F4801F90
:1008F0000BD141EA00014FF000004FF0004CB6E789
:1009000011F4801F04BF01430020B4F1FD0C88BF27
:10091000BCF5E06F3FF6AFAEB5EB030C04BFB6EB32
:10092000020C5FEA500C50F1000041EB045170BD25
:100930000EF0004E4EEA113114EB5C04C2BFD4EB52
:100940000C0541EA045170BD41F480114FF0000ED6
:10095000013C90E645EA060E8DE60CEA135594EA52
:100960000C0F08BF95EA0C0F3FF43BAF94EA0C0F55
:100970000AD150EA01347FF434AF95EA0C0F7FF4CA
:1009800025AF104619462CE795EA0C0F06D152EA1E
:1009900003353FF4FDAE1046194622E750EA410602
:1009A00018BF52EA43067FF4C5AE50EA41047FF413
:1009B0000DAF52EA43057FF4EBAE12E74FF0FF3C78
:1009C00006E000BF4FF0010C02E000BF4FF0010C49
:1009D0004DF804CD4FEA410C7FEA6C5C4FEA430CC2
:1009E00018BF7FEA6C5C1BD001B050EA410C0CBF11
:1009F00052EA430C91EA030F02BF90EA020F002073
:100A0000704710F1000F91EA030F58BF994208BFD9
:100A100090422CBFD8176FEAE37040F00100704796
:100A20004FEA410C7FEA6C5C02D150EA013C07D1ED
:100A30004FEA430C7FEA6C5CD6D152EA033CD3D038
:100A40005DF8040B704700BF8446104662468C4632
:100A50001946634600E000BF01B5FFF7B7FF002865
:100A600048BF10F1000F01BD4DF808EDFFF7F4FF8E
:100A70000CBF012000205DF808FB00BF4DF808ED19
:100A8000FFF7EAFF34BF012000205DF808FB00BF3C
:100A90004DF808EDFFF7E0FF94BF012000205DF85E
:100AA00008FB00BF4DF808EDFFF7CEFF94BF012013
:100AB00000205DF808FB00BF4DF808EDFFF7C4FF0C
:100AC00034BF012000205DF808FB00BF4FEA410C55
:100AD0007FEA6C5C02D150EA013C0AD14FEA430C38
:100AE0007FEA6C5C02D152EA033C02D14FF0000075
:100AF00070474FF0010070474FEA410212F50012B3
:100B000015D211D56FF47873B3EB625212D94FEA54
:100B1000C12343F0004343EA505311F0004F23FA3E
:100B200002F018BF404270474FF00000704750EA93
:100B3000013005D111F0004008BF6FF00040704750
:100B40004FF00000704700BF40F0BF6040F400303D
:100B5000014BD860704700BF00ED00E070B505465E
:100B60000E461446274BDB6803F4E063B3F5E06FF1
:100B700022D0244BDB6803F4E063B3F5C06F35D0BB
:100B8000204BDB6803F4E063B3F5A06F31D01D4B5D
:100B9000DB6803F4E063B3F5806F2DD0194BDB689D
:100BA00003F4E063B3F5407F29D04FF4A060FFF772
:100BB000CBFF02231A4601E004230022C2F1040203
:100BC0009640C3F104030F2222FA03F31C4034437E
:100BD0002401E4B20C4A531983F8004305F01F01C5
:100BE0006D0901238B4042F8253070BD032301229B
:100BF000E4E702231A46E1E701230322DEE70023AC
:100C00000422DBE700ED00E000E100E0024A1368A7
:100C100043F48073136070470070004008B5204BA8
:100C200098422AD010D8A3F5006398421CD003F54F
:100C30008063984217D140F2124000F093F940F2DD
:100C4000124000F09DF90EE0164B98421ED003F5BD
:100C50006843984207D140F20E3000F083F940F229
:100C60000E3000F08DF908BD40F2114000F07AF925
:100C700040F2114000F084F9F5E740F2134000F033
:100C800071F940F2134000F07BF9ECE740F21440B8
:100C900000F068F940F2144000F072F9E3E700BF99
:100CA000004C00400050004038B504460D46174B3C
:100CB000984221D00BD8A3F50063984218D003F5D1
:100CC0008063984220D1022000F036FA09E0104BF0
:100CD000984215D003F56843984215D1032000F0DF
:100CE0002BFA00EB5500B0FBF5F080B2A06038BDE8
:100CF000022000F021FAF4E7022000F01DFAF0E7EC
:100D0000022000F019FAECE70020EAE7004C00406E
:100D100000500040C36843F40053C3607047C36889
:100D200023F008031943C1607047C36823F004032C
:100D30001943C1607047C1F30801416070474068C2
:100D4000C0F3080070478B091B5801F01F0123FAFC
:100D500001F111F0010F01D100207047012070470F
:100D6000F0B401F00F0611F0100F02D0042A02D0E7
:100D70001643002209E046F00306C26B1A43C26321
:100D8000F7E744610560013292B2072A14D80124C2
:100D900094401C40F7D0076895004FF00F0C0CFAF8
:100DA00005FC27EA0C0706FA05F53D432829E8D09B
:100DB0004829E7D10461E5E7082203E04461456082
:100DC000013292B20F2A17D8012494401C40F7D068
:100DD000476802F18045083DAD004FF00F0C0CFA5A
:100DE00005FC27EA0C0706FA05F53D432829E5D05E
:100DF0004829E4D10461E2E7F0BC7047024A136875
:100E000018431060704700BF00280040024A136872
:100E100043F010031360704704280040024A13682F
:100E200023F010031360704704280040024B1B6836
:100E300013F0200FFAD0704704280040054A1368C9
:100E400023F008031360034B1B6813F0080FFAD05C
:100E5000704700BF04280040034B1B68034A10681A
:100E600043EA0040704700BF1C280040182800409B
:100E700010B50446FFF7CAFF220C044B1A60A4B257
:100E800004331C60FFF7CAFF10BD00BF18280040E4
:100E900010B50446FFF7BAFFC4F30342034B1A60D0
:100EA000A4B204331C60FFF7B9FF10BD082800404E
:100EB000034B1B68034201D100207047012070479B
:100EC00004280040024A136823EA000010607047BB
:100ED0000428004008B500F063F800F069F808BD88
:100EE000A0F10B03DBB21F2B0AD9431EDBB2092B87
:100EF00005D800F1805000F5D8508000018070477F
:100F0000024B03449B001980704700BF051B001073
:100F1000A0F10B03DBB21F2B0BD9431EDBB2092B55
:100F20000DD800F1805000F5D8508000008880B2C4
:100F30007047044B03449B00188880B27047002020
:100F4000704700BF051B0010830903F1804303F5C0
:100F500004331A6800F01F00012101FA00F0104369
:100F600018607047830903F1804303F504331A685E
:100F700000F01F00012101FA00F0104318607047D3
:100F8000830903F1804303F504331A6800F01F005E
:100F9000012101FA00F022EA000018607047000009
:100FA000024A136843F480331360704720100240F4
:100FB000024A136823F48033136070472010024004
:100FC000034A136823F4407318431060704700BF4E
:100FD00020100240830903F1804303F504331B68AA
:100FE00000F01F0023FA00F010F0010F01D10020E3
:100FF0007047012070470000024A136843F0807375
:10100000136070472410024010B5182800F081804A
:101010000BD9B0F5106F6AD043F21003984252D04A
:10102000B0F5006F29D0002010BDC0B31028FAD150
:101030000020044603E01120FFF7CCFF013418B96B
:101040004FF6FF739C42F6D11120FFF7C3FF002833
:10105000EAD00120E8E740F60100FFF7BBFF0134CA
:1010600018B96FF07C439C42F5D140F60100FFF7C0
:10107000B1FF0028D8D00120D6E700200446EFE7D2
:101080000120FFF7A7FF013410B9B4F5A06FF7D125
:101090000120FFF79FFF0028C6D00120C4E70020F1
:1010A0000446F1E743F21100FFF794FF013410B951
:1010B000194B9C42F6D143F21100FFF78BFF002839
:1010C000B2D00120B0E700200446F0E740F601105E
:1010D000FFF780FF013410B90F4B9C42F6D140F668
:1010E0000110FFF777FF00289ED001209CE7002029
:1010F0000446F0E71920FFF76DFF013410B9064BE5
:101100009C42F7D11920FFF765FF00288CD0012001
:101110008AE700200446F1E7FFFF0F00830903F18F
:10112000804303F504331A6800F01F00012101FA1F
:1011300000F010431860704730B488B005463B4C4F
:1011400094E80F000DF1200C0CE90F0002AB1034F5
:1011500094E8030083E803006B4683E80300344B04
:101160001B68C3F38103022B54D1314B1B6813F46A
:10117000803F0ED02F4B1B6813F0804F07D12E48B5
:101180002B4B1B6813F4003F04D02C4802E02C4882
:10119000F6E72A48264A1368C3F38343126812F01D
:1011A000006F01D043F01003214A126812F0804F03
:1011B00001D043F020030E2B24D8023300FB03F0B0
:1011C0001B490B68C3F3031308AA134413F8102C2C
:1011D00020FA02F20B68C3F3022308AC234413F88D
:1011E000183C22FA03F40B68C3F3C22308A90B448A
:1011F00013F8203C22FA03F3032D0DD8DFE805F0A5
:101200000D101214A3F10F022F2A01D80133D5E7D4
:101210003F23D3E70848D3E7002008B030BC70472D
:101220001046FAE72046F8E71846F6E7A03F000820
:10123000041002402C10024000127A0000093D0008
:10124000006CDC027047FEE7FEE7FEE7FEE7704752
:101250007047704708B50120FFF72AFE00B908BDA6
:101260000120FFF72FFE084B01221A60FFF7DEFD79
:10127000FFF7F2FD054B9842F1D10020FFF7F8FD92
:10128000FFF7D4FDEBE700BFF8010020805101001B
:1012900008B5244800F046F900F054F8224800F060
:1012A00083FF0120FFF734FE4AF2A553984216D07F
:1012B0001E4800F079FF1E4800F002FF00F04DF8D4
:1012C0001C4800F0FDFE00F023F94AF2A551012070
:1012D000FFF706FEFFF790FE00F088F8FEE740F605
:1012E0001B10FFF777FE98B1134800F0E9FE40F2BB
:1012F0001C70FFF729FEFFF789FC104800F0E0FEA4
:10130000FFF79CFD0120FFF779FDFFF78FFDE1E777
:1013100040F61C10FFF75EFE0028E8D0084800F0F9
:10132000CFFEE4E700380140B83F0008D83F00088E
:10133000F03F0008104000082840000868400008FE
:101340004840000808B54FF4C060FFF7FDFB0022DD
:1013500001210320FFF702FC08BD08B540F21B7015
:10136000FFF7F2FD40F21C70FFF7EEFDFFF74EFCB9
:10137000FFF7B0FD4FF40060FFF7D0FE4FF40060C0
:10138000FFF742FE4FF48070FFF71AFE40F60F00A1
:10139000FFF7DAFDFFF752FDFFF748FD0120FFF7E9
:1013A0002DFDFFF743FD47F6FF70FFF771FDFFF7D7
:1013B0003DFD08BD10B50A49A1FB0031C90A4FF433
:1013C000616303FB1103074AA2FB03025209C2EB4C
:1013D0000214A0001B1A044800F072FE10BD00BFEA
:1013E000C5B3A291898888888840000808B5074855
:1013F00000F066FE064B1B68012BFBD1FFF72CFDAE
:10140000FFF7D8FF024B00221A60F3E738410008CB
:10141000F801002030B583B0054600240094019403
:10142000012C17D805211548FFF78DFC0028F9D0AD
:101430001248FFF784FC621C02AB03EB840343F801
:10144000080C3038092801D81446E9E70C4800F0A8
:10145000ABFEE5E7009A02EB82025300019A1344C7
:10146000A3F50473AB4202D8D8B203B030BD29460D
:10147000044800F025FEFF20F7E700BF00380140D8
:101480003C4100086841000870B51C4800F018FE97
:101490001B4800F015FEFF2503E01720FFF7BAFFF9
:1014A0000546FF2DF9D02946164800F009FE1648DA
:1014B00000F006FEFF2403E03B20FFF7ABFF0446ED
:1014C000FF2CF9D021460F4800F0FAFD0F4800F03C
:1014D000F7FDFF2603E03B20FFF79CFF0646FF2EAB
:1014E000F9D03146074800F0EBFDC4EB0414A0002E
:1014F0004FF4616303FB0500304470BDA440000855
:10150000E8400008004100080841000820410008A8
:1015100008B5FFF78BFCFFF7B7FFFFF7A9FCFFF754
:1015200085FC08BD70B50446244B984236D0A3F51F
:101530007443984234D00025214B33F81500FFF74F
:1015400003FD204B33F81500FFF7FEFC1E4B53F84C
:1015500025601E4B53F82530032218213046FFF733
:10156000FFFB1B4B53F82530032204213046FFF7C5
:10157000F7FB2046FFF752FB104B9C4212D0154B55
:101580009C4215D004212046FFF7CFFB08212046BE
:10159000FFF7C5FB2046FFF7BDFB70BD0025CBE77D
:1015A0000125C9E74FF4E1312046FFF77DFBE9E76C
:1015B0004FF416512046FFF777FBE3E70038014070
:1015C0009C41000898410008A0410008B041000873
:1015D000A84100080044004010B50446C1B20548C7
:1015E000FFF7A9FB07210348FFF7ADFB0028F9D05F
:1015F000204610BD0038014070B50E461546002447
:1016000003E0305DFFF7E8FF0134A542F9D8284632
:1016100070BD0000344A136843F480331360002324
:101620000133314A126812F4003F03D14FF6FF72C2
:101630009342F5D12C4B1B6813F4003F00D1FEE719
:101640002A4A136843F080531360294A136843F40D
:1016500040431360274B1A681A601A681A601A68A8
:1016600042F480621A601A6822F440321A601A68E2
:1016700042F440321A601A6822F0904222F470124A
:101680001A601A6842F0036242F480221A60164A15
:10169000136843F080731360134B1B6813F0007FD3
:1016A000FAD0134A136843F480331360124B1B685B
:1016B00013F4803FFAD00E4A136843F400331360EA
:1016C0000D4B1B6813F4003FFAD00A4B1A6822F046
:1016D00003021A601A6842F002021A60054B1B6886
:1016E00013F0080FFAD07047001002401C1002409F
:1016F00000700040041002400470004008B5FFF77D
:1017000089FF08BD08B5114AD2F8883043F4700348
:10171000C2F888300E4B1A6842F001021A600022AB
:101720000C490A6028310A601A6822F0847222F497
:1017300080321A60084A4FF41F0111601A6822F4BF
:1017400080221A60FFF7DAFF08BD00BF00ED00E05D
:10175000001002400410024008100240DFF834D0AC
:10176000002103E00C4B5B58435004310B480C4BF9
:1017700042189A42F6D30B4A02E0002342F8043B97
:10178000094B9A42F9D3FFF7BDFF00F011F8FFF7BC
:101790007FFDFEE7000001208844000800000020D3
:1017A000D0010020D001002000020020FEE7000050
:1017B00070B50D4E0D4CA41BA4100025A54209D1F7
:1017C0000B4E0C4C02F0E0FBA41BA4100025A5421C
:1017D00005D170BD56F8253098470135EEE756F82B
:1017E000253098470135F2E778440008784400082E
:1017F000784400087C44000802440346934200D128
:10180000704703F8011BF9E72DE9FF4755EC104B32
:101810000D9FDDF830A0002D0E4691461946B8BF49
:1018200022462B4627F02007BBBF05F100431D468B
:1018300000232D23B8BF1446462F0B7004D0452F2C
:1018400000D10136022100E0032103AB019302AB7A
:1018500000933246534645EC104B00F0F9FD472FFC
:10186000804602D119F0010F26D0462F08EB060959
:1018700011D198F80030302B0AD1002200232046E5
:101880002946FFF7F1F818B9C6F10106CAF8006059
:10189000DAF8003099440022002320462946FFF759
:1018A000E3F838B93022039B4B4505D2591C03910C
:1018B0001A70F8E7CDF80C90039B0E9AA3EB08037F
:1018C0004046136004B0BDE8F087F7B50029044630
:1018D000BABF49422D232B23092904F8022B437058
:1018E00020DD0DF107031F460A2691FBF6F506FBE6
:1018F00015113031092D03F8011C03F1FF3229467F
:1019000009DC3031023B02F8011CBB42224604D301
:10191000101A03B0F0BD1346E7E713F8012B04F8E3
:10192000012BF2E7302319448370021DC170EFE7E9
:101930002DE9F04F8DB00C46DDF8588016461F4655
:10194000054601F0B7FC036804931846FEF710FC47
:1019500000230A93D8F800300590073323F00703DB
:1019600003F1080294F818A0D4F800B0C8F80020D9
:10197000D3E90023C4E91223D4E9128929F00043F2
:101980000793CDF818804FF0FF32A74BDDE9060131
:10199000FFF79CF870BB4FF0FF32A34BDDE9060167
:1019A000FFF776F830BB0022002340464946FFF798
:1019B00065F810B12D2384F843309C4A9C4BBAF152
:1019C000470F8CBF9046984603232BF004022361F7
:1019D00022604FF00009009733460BAA21462846A3
:1019E00000F0E6F9013040F08D804FF0FF300DB08F
:1019F000BDE8F08F42464B4640464946FFF766F841
:101A000010B18C4A8C4BDAE761684B1C4BF4806256
:101A10000AA83ED1062363600023CDE9020309AB87
:101A2000009349EC108B0DF123032260CDF804A044
:101A300061682846FFF7E8FE0AF0DF03472B80467F
:101A400009D1099BD81C02DB6268934247DDAAF1E9
:101A5000020A5FFA8AFABAF1650F099924D80139A6
:101A6000524604F150000991FFF72FFF0A9A13180C
:101A7000012A8146236102DC2268D10701D50133A6
:101A800023619DF82330002BA5D02D2384F843300B
:101A9000A1E7BAF1670F00F07781BAF1470FBBD128
:101AA0000029B9D10123B6E7BAF1660F19D100298F
:101AB00063680CDD216113B92268D20702D50133B6
:101AC0000B442361099BA3654FF00009D9E713B9C3
:101AD0002268D00701D50233F3E70123F1E74FF085
:101AE000670ADDE90932934205DB22682361D107E9
:101AF000E8D50133E5E7002BD4BFC3F1020301238E
:101B00001344DEE723685A0507D423694246314669
:101B10002846B84701302BD167E7BAF1650F40F28C
:101B2000DC8000220023D4E91201FEF79DFF00288B
:101B300033D00123414A31462846B84701303FF4AB
:101B400054AFDDE909239A4202DB2368D8070FD599
:101B5000DDE9042331462846B84701303FF445AF5C
:101B60004FF0000804F11A090A9B013B434509DCC8
:101B700023689B0700F10381E0680B9B9842B8BF84
:101B8000184634E701234A4631462846B847013013
:101B90003FF42BAF08F10108E6E7099B002B2BDC93
:101BA0000123264A31462846B84701303FF41DAF8D
:101BB000099B23B90A9B13B92368D907D8D5DDE956
:101BC000042331462846B84701303FF40EAF4FF0AA
:101BD000000904F11A0A099B5B424B4501DC0A9B90
:101BE00094E70123524631462846B84701303FF476
:101BF000FCAE09F10109EEE70A9AA36D9A42A8BF6B
:101C00001A46002A914607DD1346314642462846C9
:101C1000B84701303FF4E9AE04F11A034FF0000B6E
:101C200029EAE979069315E0FFFFEF7FC04100083C
:101C3000BC410008C8410008C4410008CC4100086C
:101C40000123069A31462846B84701303FF4CDAE0D
:101C50000BF1010BD4F858A0AAEB09035B45EFDCAC
:101C6000DDE909239A42D04415DB2368DA0712D450
:101C70000A9B0999A3EB0A02A3EB010A9245A8BFAC
:101C80009246BAF1000F0EDC4FF000082AEAEA7A19
:101C900004F11A0919E0DDE9042331462846B84762
:101CA0000130E5D1A1E65346424631462846B847C1
:101CB0000130E9D199E601234A4631462846B84722
:101CC00001303FF492AE08F10108DDE909239B1AC7
:101CD000A3EB0A034345EEDC4AE70A9A012A01DC3A
:101CE000DB073AD50123424631462846B847013042
:101CF0003FF47BAEDDE9042331462846B847013086
:101D000008F101083FF471AE0A9B002203F1FF3A8B
:101D1000D4E912010023FEF7A7FEC8B95346424694
:101D200031462846B84701300ED15EE601235246BF
:101D300031462846B84701303FF457AE08F1010854
:101D40000A9B013B4345F1DC4B4604F15002DEE6C1
:101D50004FF0000804F11A0AF2E70123DFE701233C
:101D60004A4631462846B84701303FF43EAE08F1B6
:101D70000108E3680B9A9B1A4345F0DCFCE64FF040
:101D8000000804F11909F4E700293FF48BAE0023A1
:101D9000CDE9020309AB009349EC108B2260CDF82A
:101DA00004A00DF123032846FFF72EFD804648E6E8
:101DB0002DE9F04791461F468A680B69DDF82080BF
:101DC0009342B8BF1346C9F8003091F84320064645
:101DD0000C4612B10133C9F800302368990642BF9E
:101DE000D9F800300233C9F80030256815F006052F
:101DF00007D104F1190AE368D9F800209B1AAB4215
:101E000028DC94F843302268003318BF012392067F
:101E10002DD404F1430239463046C047013020D06A
:101E20002368E568D9F8002003F00603042B08BFF7
:101E3000AD1AA36822690CBF25EAE5750025934217
:101E4000C4BF9B1AED184FF000091A344D451AD142
:101E5000002008E00123524639463046C047013091
:101E600003D14FF0FF30BDE8F0870135C3E7E1183B
:101E70005A1C302081F84300224494F8451082F81F
:101E800043100233C5E70123224639463046C04796
:101E90000130E6D009F10109D8E700002DE9F0434F
:101EA00001F1430C0C46097E85B06E2917460646A3
:101EB00098460C9A00F0B38022D8632936D00AD80D
:101EC000002900F0B980582900F0838004F1420510
:101ED00084F8421032E0642901D06929F6D12068E3
:101EE0001368050603F104012AD51B681160002B55
:101EF00003DA2D225B4284F843206F480A2239E03E
:101F0000732900F09D8008D86F2920D07029DDD179
:101F1000236843F02003236003E0752917D0782954
:101F2000D4D1782384F84530644855E01368191DEE
:101F30001B68116004F1420584F8423001238CE0F3
:101F40001B68116010F0400F18BF1BB2CFE7136879
:101F50002568181D1060280601D51B6802E0680678
:101F6000FBD51B8854486F2914BF0A220822002180
:101F700084F843106568A560002DC0F29580216843
:101F800021F004012160002B3DD1002D40F08E8016
:101F90006546082A0BD12368DB0708D523696268E8
:101FA0009A42DEBF302305F8013C05F1FF35ACEB6A
:101FB00005032361CDF800803B4603AA2146304645
:101FC000FFF7F6FE01304DD14FF0FF3005B0BDE810
:101FD000F083394884F84510136821681D1D1B687B
:101FE00015600A060BD5CA0744BF41F020012160E5
:101FF0001BB9226822F0200222601022B7E74D06AA
:1020000048BF9BB2EFE76546B3FBF2F102FB113329
:10201000C35C05F8013D0B460029F5D1B9E713680B
:1020200025686169181D106028061B6801D51960B4
:1020300002E06A06FBD51980002323616546B9E7F3
:102040001368191D11601D68626800212846FEF79B
:1020500097F808B1401B606063682361002384F82F
:102060004330A7E723692A4639463046C047013046
:10207000AAD023689B0713D4E068039B9842B8BF9B
:102080001846A3E701234A4639463046C047013087
:102090009AD00135E368039A9B1AAB42F2DCEBE776
:1020A000002504F11909F5E7002BACD1037884F879
:1020B000423004F142056CE7CE410008DF410008E0
:1020C0000FB40A4B13B51C6824B1A36913B9204699
:1020D00001F066F805AB049AA1680193204601F06F
:1020E00029FD02B0BDE8104004B070470000002098
:1020F00070B50E46054618B183690BB901F050F86A
:10210000AB69AC6813B9284601F04AF8234B9C42EE
:1021100017D16C68A3891B071DD52369DBB1013E6C
:10212000A36816F8011F013BA360E9B9002B2EDA62
:1021300022460A21284600F03FF8013011D00A203B
:1021400011E0174B9C4201D1AC68E3E7154B9C4270
:1021500008BFEC68DEE72146284600F07FF800283B
:10216000DDD04FF0FF3070BD002B04DAA2699A4237
:1021700006DC0A2904D023685A1C22601970CFE7B4
:102180002246284600F018F80130C9D1E9E7236853
:102190000A205A1C22601870E5E700BF20420008A0
:1021A0004042000800420008024B01461868FFF751
:1021B0009FBF00BF00000020F8B50E46144605463C
:1021C00018B183690BB900F0EBFF214B9C422AD177
:1021D0006C68A369A360A3891A072ED5236963B32A
:1021E00023692068C01A6369F6B28342374604DC6B
:1021F0002146284600F06AFF28BBA368013BA36084
:1022000023685A1C22601E7063690130834204D027
:10221000A389DB0719D50A2E17D12146284600F0DD
:1022200055FF90B10FE00B4B9C4201D1AC68D0E759
:10223000094B9C4208BFEC68CBE72146284600F0DA
:102240000DF80028CCD04FF0FF373846F8BD00BF5E
:10225000204200084042000800420008324B70B59E
:102260001D6806460C4625B1AB6913B9284600F037
:1022700097FF2E4B9C420FD16C68B4F90C309AB288
:1022800015072CD4D00611D40922326043F0400344
:10229000A3814FF0FF303EE0254B9C4201D1AC685A
:1022A000EBE7244B9C4208BFEC68E6E7510712D5E8
:1022B000616B41B104F14403994202D0304601F010
:1022C00067FB00236363A38923F02403A381002316
:1022D000636023692360A38943F00803A381236912
:1022E0004BB9A38903F42073B3F5007F03D02146D3
:1022F000304601F011F8A28912F001030CD000233E
:10230000A36063695B42A361236953B9B4F90C30DC
:1023100013F08000BAD170BD920758BF6369A36003
:10232000F2E70020F7E700BF00000020204200088D
:1023300040420008004200082DE9F74F03690C698C
:10234000A3428046C0F28280013C01F114074FEAAB
:10235000840C00F1140657F8245056F8240006EBBC
:102360000C03013507EB0C090193B0FBF5F595B3B0
:102370004FF0000A3846B646D34650F8042B93B2C5
:1023800005FB03A34FEA134A9BB2ABEB0303120C0A
:10239000DEF800B005FB02A213FA8BF34FEA124AF3
:1023A0001FFA82FBDEF80020CBEB124202EB234245
:1023B0009BB243EA024381454FEA224B4EF8043B6D
:1023C000DBD256F80C3033B9019B043B9E421A46CF
:1023D00030D3C8F81040404601F006FA002825DB4B
:1023E000013530464FF0000C57F8042BD0F800E0D0
:1023F00093B2ACEB0303120C13FA8EF3C2EB1E4242
:1024000002EB23429BB243EA0243B9454FEA224C16
:1024100040F8043BE8D256F8242006EB84032AB99E
:10242000043B9E421A460BD3C8F81040284603B01E
:10243000BDE8F08F1268043B002ACAD1013CC5E711
:102440001268043B002AEFD1013CEAE70020EEE7E6
:102450002DE9F04F57EC106B97B0456A0691044692
:102460000B921293DDF88080CDE900673DB9102012
:1024700000F092FF6062C0E901550560C560636AC3
:10248000196851B15A684A60012393408B60204615
:1024900000F0C9FF636A00221A603B1EBBBF23F035
:1024A0000043019300230122ACBFC8F80030C8F8F4
:1024B0000020AF4BDDF8048033EA080314D1129AF0
:1024C00042F20F731360009B23B9C8F31300002876
:1024D00000F04285219BDFF8ACB2002B00F0448570
:1024E0000BF1030300F03EBDDDE90067002200238D
:1024F00030463946FEF7B8FA814668B1129A012390
:102500001360219B002B00F024859A4B219A03F144
:10251000FF3B136000F028BD14AA15A947EC106B0F
:10252000204601F0D8F9C8F30A550490002D7CD05C
:10253000C7F3130343F07F5BB2464BF4401BA5F295
:10254000FF35CDF84C9000228B4B50465946FDF795
:102550006BFE81A3D3E90023FEF71EF880A3D3E925
:102560000023FDF763FE064628460F46FDF7AAFF47
:102570007DA3D3E90023FEF70FF802460B46304651
:102580003946FDF753FE06460F46FEF7B5FA002220
:102590008246002330463946FEF770FA48B150466D
:1025A000FDF790FF32463B46FEF75EFA08B90AF1A6
:1025B000FF3ABAF1160F59D8704901EBCA01DDE9AB
:1025C0000023D1E90001FEF777FA002850D00AF184
:1025D000FF3A00230F93149B5D1BB5F1010849BF1F
:1025E000C5F10103002305934FF0000858BF059380
:1025F000BAF1000F3EDB0023D044CDF838A007939A
:10260000069B092B00F29080052BC4BF043B069368
:10261000069BA3F10203CCBF00250125032B00F28A
:102620008F80DFE803F07D7F3171DDE914531D44B5
:1026300005F23240202813DDC0F14000009B08FA6B
:1026400000F805F2124023FA00F048EA0000FDF716
:1026500029FF01238246A1F1F87B013D139372E724
:10266000009BC0F1200003FA00F0F0E70123B1E77E
:102670000F90B0E7059BA3EB0A030593CAF1000393
:10268000079300230E93BBE701230A930B9B002BB8
:1026900059DD02939946666A00227260042202F1B3
:1026A00014009842716853D9204600F088FE636A8E
:1026B0003060B9F10E0FD3F800B000F2E680002DC3
:1026C00000F0E3809DED007BBAF1000F8DED107BF3
:1026D00074DD2A4A0AF00F0302EBC30393ED007B7B
:1026E0004FEA2A16F0068DED087B65D5244BDDE90F
:1026F0001001D3E90823FEF779F8CDE9000106F0CF
:102700000F0603251E4F4CE001230A930B9B5344F5
:1027100003F1010902934B46012BB8BF0123BAE72D
:102720000023B2E70023F0E70125002306930A9572
:102730004FF0FF3302939946002212230B92AAE72F
:1027400001230A93F4E70123029399461A46F5E719
:10275000013171605200A2E761436F63A787D23FE6
:10276000B3C8608B288AC63FFB799F501344D33F80
:102770000000F07FCD4100080000F83F88420008CB
:1027800060420008F9410008F10708D5DDE90801B9
:10279000D7E90023FDF700FFCDE9080101357610E8
:1027A0000837002EF0D1DDE90823DDE90001FEF74E
:1027B0001DF8CDE900011AE00225A3E700F0A08092
:1027C000CAF100069F4BA04F06F00F0203EBC203B5
:1027D000D3E90023DDE91001FDF7DEFECDE90001BC
:1027E000361100230225002E7FD1002BE1D10F9B53
:1027F000002B00F08780DDE900670022934B304614
:102800003946FEF73BF900287CD0B9F1000F79D0AA
:10281000029B002B35DD0AF1FF3308933946002275
:102820008B4B3046FDF7B8FECDE90001029F013524
:102830002846FDF747FEDDE90023FDF7ADFE002247
:10284000844BFDF7F3FC0546A1F15076002F5DD1D6
:102850000022814BDDE90001FDF7E6FC2A46334604
:10286000CDE90001FEF728F9002840F088822A46C9
:1028700006F10043DDE90001FEF700F9002840F011
:102880007C82DDE91023CDE90023159B002BC0F2EB
:102890005081BAF10E0F00F34C816A4B03EBCA036F
:1028A00093ED007B0B9B002B8DED027B80F2D8809B
:1028B000B9F1000F00F3D48040F05E820022664B35
:1028C00051EC170BFDF768FEDDE90023FEF7EAF88F
:1028D0004F464E46002840F0348231230BF101056B
:1028E0008BF800300AF1010A2FE2F20705D5D7E98B
:1028F0000023FDF751FE013501237610083772E7FA
:10290000022574E7CDF820A04F4691E74D4B03EB2D
:10291000C70353E902010A9B002B47D002460B462E
:1029200000204E49FDF762FF2A463346FDF77CFC46
:10293000CDE90C015D46DDE90001FEF7DDF8064654
:10294000FDF7C0FD02460B46DDE90001FDF76CFC1A
:10295000303605F8016BDDE90C23CDE90001FEF707
:102960008DF8002863D1DDE9002300203749FDF709
:102970005BFCDDE90C23FEF781F8002840F0B7800E
:10298000A5EB0B039F427FF77CAF0022304BDDE9C4
:102990000C01FDF701FE0022CDE90C012C4BDDE915
:1029A0000001FDF7F9FDCDE90001C4E72A463346F1
:1029B000FDF7F2FDCDE90C010BEB07055E46DDE905
:1029C0000001FEF799F80746FDF77CFD3037024617
:1029D0000B46DDE90001FDF727FC06F8017BAE425E
:1029E000CDE900014FF0000226D11C4BDDE90C01BE
:1029F000FDF71CFC02460B46DDE90001FEF75CF822
:102A0000002874D1DDE90C2300201449FDF70CFCEB
:102A100002460B46DDE90001FEF730F800283FF4DE
:102A200030AF15F8013C302B05F1FF3202D0DDF854
:102A300020A04AE01546F4E7054BFDF7ADFDCDE9D2
:102A40000001BCE788420008604200080000F03F37
:102A50000000244000001C40000014400000E03F43
:102A6000DDE900675D46DDE9022330463946FDF7C2
:102A7000BDFEFEF741F88046FDF724FDDDE90223A7
:102A8000FDF78AFD02460B463046394608F130060E
:102A9000FDF7CAFB05F8016BA5EB0B06B145024635
:102AA0000B4639D1FDF7C2FBDDE9022306460F468E
:102AB000FEF702F8C8B9DDE9022330463946FDF7D2
:102AC000D3FF10B118F0010F0FD10499204600F088
:102AD000AAFC0023129A2B700AF101031360219BB8
:102AE000002B00F041821D603EE2CDF820A015F8D9
:102AF000012C392A05F1FF3308D19B450AD1089BE7
:102B00000133089330238BF800305B461A7801328A
:102B10001A708CE71D46EAE700229B4BFDF73CFD4F
:102B20000022002306460F46FDF79EFF00289AD09C
:102B3000CBE70A9A002A00F08B80069A012A6EDC05
:102B4000139A002A67D003F23343079F059D059A25
:102B500001211A4420460592984400F004FD0646DF
:102B6000002D0CDDB8F1000F09DD4545059A2B4617
:102B7000A8BF4346D21A0592ED1AA8EB0308079B9B
:102B8000EBB10A9B002B67D08FB131463A46204605
:102B900000F088FD049A01460646204600F0ECFC51
:102BA00004990890204600F03EFC089B0493079B84
:102BB000DA1B04D00499204600F074FD0490012132
:102BC000204600F0D0FC0E9B0746002B00F0D08181
:102BD0001A460146204600F065FD069B012B07467C
:102BE00040DC009B002B39D1019BC3F31303002B66
:102BF00036D1019B23F000431B0D1B052BB1059B18
:102C00000133059308F10108012307930E9B002B64
:102C10002AD1012030E0149BC3F1360395E7079BCE
:102C200009F1FF37BB42BFBF079B0797FA1A0E9BFC
:102C3000BBBF9B180E93DF1B0027B9F1000FB5BF78
:102C4000059B059DA3EB09054B46B8BF00237EE716
:102C5000079F059D0A9E83E7079AABE70023D4E709
:102C6000009BD2E7002307933B6907EB83031869B6
:102C700000F02BFCC0F12000404410F01F0047D0B2
:102C8000C0F12003042B3BDD059BC0F11C00034475
:102C9000059305448044059B002B05DD1A460499E5
:102CA000204600F04DFD0490B8F1000F05DD3946D7
:102CB0004246204600F044FD07460F9B53B3394679
:102CC000049800F091FD002824DA00230A220499D8
:102CD000204600F0BFFB0A9B04900AF1FF3A002B4C
:102CE00000F04D81002331460A22204600F0B2FB5D
:102CF000029B002B06464FDC069B022B4CDD11E0AD
:102D0000C9D0059A1C331A4405921D449844C2E761
:102D10000346F6E7B9F1000F38DC069B022B35DDE0
:102D2000CDF80890029B63B939460522204600F091
:102D300091FB01460746049800F056FD00283FF736
:102D4000CCAD0B9B5D466FEA030A4FF00009394694
:102D5000204600F068FB002E3FF4B7AEB9F1000F3B
:102D600005D0B14503D04946204600F05CFB314612
:102D7000204600F058FBA8E600273E46E1E7DDF8D4
:102D800020A03E46A9E500BF000024400A9BCDF8E4
:102D90000890002B00F0FA80002D05DD31462A4610
:102DA000204600F0CDFC0646079B002B4CD07168F6
:102DB000204600F004FB326902320546920006F11B
:102DC0000C010C3000F0F0FA01222946204600F0F8
:102DD000B7FC009BCDF814B003F00103B146079394
:102DE000064639460498FFF7A7FA4946054600F11A
:102DF0003008049800F0F8FC32460090394620462E
:102E000000F00CFDC368024603BB0146089004981D
:102E100000F0EAFC089A034611462046089300F0A9
:102E200002FB089BA3B9069A92B9079A82B9B8F136
:102E3000390F29D0009B002B01DD05F13108059BDE
:102E40005D1C83F8008082E73046C2E70123E3E798
:102E5000009A002A04DB25D1069A1ABB079A0ABBFE
:102E6000002BECDD01220499204600F069FC394674
:102E7000049000F0B9FC002803DCE0D118F0010F49
:102E8000DDD0B8F1390FD8D1059B059A5D1C3923E7
:102E9000137015F8013C392B05F1FF324FD0013387
:102EA000137054E7059A002B02F1010506DDB8F115
:102EB000390FE9D008F10108059BC2E7029A05F82D
:102EC000018CA5EB0B03934221D000230A22049925
:102ED000204600F0BFFAB14504904FF000034FF0D8
:102EE0000A024946204605D100F0B4FA814606465A
:102EF000059576E700F0AEFA3146814600230A22B6
:102F0000204600F0A7FA0646F2E74FF0000901223A
:102F10000499204600F014FC3946049000F064FC4B
:102F20000028B6DC02D118F0010FB2D115F8013C2F
:102F3000302B05F1FF327FF40AAF1546F6E79345D3
:102F400005D131230AF1010A8BF80030FFE615465E
:102F50009FE7DFF864B007E0219BDFF860B01BB1AA
:102F60000BF10803219A1360584617B0BDE8F08FA3
:102F7000069B012B7FF735AE0E9B079349E6029B1C
:102F8000002B03DC069B022B3FF7CCAE5D46394697
:102F90000498FFF7D1F900F1300805F8018B029A87
:102FA000A5EB0B039A42B0DD00230A2204992046C8
:102FB00000F050FA0490EAE7CC410008F041000824
:102FC0008A892DE9F041054610070C4658D44B6814
:102FD000002B05DC0B6C002B02DC0020BDE8F0812F
:102FE000E66A002EF9D0002312F480522F68216A7D
:102FF0002B6032D0606DA3895A0705D56368C01A6B
:10300000636B0BB1236CC01A00230246E66A216A87
:103010002846B047431CA38906D129681D2948D8F2
:10302000294ACA40D60744D500226260D9042269E1
:10303000226004D5421C01D12B6803B96065616B25
:103040002F600029C9D004F14403994202D02846D8
:1030500000F09EFC00206063C0E701232846B047D3
:10306000411CC8D12B68002BC5D01D2B01D0162BBD
:1030700001D12F60B1E7A38943F04003A381ADE7FD
:103080000F69002FA9D093070E6808BF4B690F6026
:1030900018BF0023A6EB07088B60B8F1000F9CDD7A
:1030A00043463A46216AA66A2846B047002806DC0D
:1030B000A38943F04003A3814FF0FF308EE707441C
:1030C000A8EB0008E9E700BF0100402038B50B6914
:1030D00005460C46DBB118B183690BB900F060F806
:1030E0000C4B9C4209D16C68B4F90C307BB1214681
:1030F0002846BDE83840FFF763BF074B9C4201D12B
:10310000AC68F1E7054B9C4208BFEC68ECE7002097
:1031100038BD00BF204200084042000800420008BD
:10312000002310B50446C0E9003383608181436603
:10313000C281C0E904338361194608225C30FEF77E
:103140005BFB054B6362054BA362054BE362054BDA
:103150002462236310BD00BF813D0008A33D000829
:10316000DB3D0008FF3D0008014900F085B800BFC5
:10317000CD30000870B54A1E682555430E4605F14E
:10318000740100F053FC044640B10021C0E9001670
:103190000C30A06005F16802FEF72EFB204670BDE2
:1031A000836910B5044633BBC0E912330365124B83
:1031B000124A1B688262984204BF0123836100F0B7
:1031C0001FF86060204600F01BF8A060204600F069
:1031D00017F80022E06004216068FFF7A1FF0122D8
:1031E0000921A068FFF79CFF02221221E068FFF787
:1031F00097FF0123A36110BDB841000869310008A1
:10320000F8B51B4B1E68B369074613B93046FFF784
:10321000C7FF4836D6E90134013B03D5336833B1E3
:103220003668F7E7B4F90C506DB16834F4E704215F
:103230003846FFF79FFF30600028F1D10C233B6038
:1032400004462046F8BD0B4B6566C4E90055A560F1
:10325000C4E90335C4E905550822294604F15C0098
:10326000FEF7CAFAC4E90D55C4E91255E9E700BFF3
:10327000B84100080100FFFF2DE9F8438046894668
:1032800000F14804002614B93046BDE8F883D4E9BB
:103290000175013F01D52468F5E7AB89012B07D9FA
:1032A000B5F90E30013303D029464046C8470643DE
:1032B0006835EEE7044B1B68186A044B002808BF0A
:1032C0001846F030704700BF000000206400002066
:1032D00070B50E46B1F90E10002996B014461D4681
:1032E00007DA00232B60B3891A0610D44FF48063E9
:1032F0000EE06A4600F0AAFD0028F2DB019A02F413
:103300007042A2F500535A425A412A60EEE7402328
:103310000020236016B070BD8B8973B59D070646EB
:103320000C4607D504F14703236023610123636141
:1033300002B070BD01AB6A46FFF7CAFF00990546AF
:10334000304600F073FB48B9B4F90C309A05EFD45D
:1033500023F0030343F00203A381E3E70D4BB362C1
:10336000A389206043F08003A381009B6361019BDC
:1033700020615BB1B4F90E10304600F079FD28B140
:10338000A38923F0030343F00103A381A3891D4311
:10339000A581CDE769310008024B0146186800F0AD
:1033A00045BB00BF0000002010B5431E0A449142F7
:1033B00000D110BD11F8014B03F8014FF7E770B5CC
:1033C000456A04460E463DB91020FFF7E5FF6062EE
:1033D000C0E901550560C560656AEB6883B1636A41
:1033E000DB6853F82600B8B9012101FA06F56A1D19
:1033F0009200204600F0BEFA60B1C0E901650EE01F
:1034000021220421204600F0B5FA636AE860DB68F7
:10341000002BE4D1002070BD026843F82620002371
:10342000C0E90333F7E770B5446A06460D463CB978
:103430001020FFF7B1FF7062C0E901440460C4606E
:103440003DB1736A6A68DB6853F82210296043F85B
:10345000225070BD2DE9F0410D691F4606460C460D
:1034600001F1140C0023DCF8000081B202FB0171B1
:103470000F0C000C02FB007089B2013301EB00411C
:103480009D424FEA10474CF8041BECDCD7B1A3680F
:10349000AB4212DC616830460131FFF790FF2269D0
:1034A000023204F10C01804692000C30FFF77CFFE1
:1034B00021463046FFF7B7FF444604EB850301354C
:1034C0005F6125612046BDE8F081020C12040346CD
:1034D000B2B90304102013F07F4F04BF1B02083061
:1034E00013F0704F04BF1B01043013F0404F04BFB2
:1034F0009B000230002B06DB5B0003D501307047D8
:103500000020E8E720207047036813F00702014617
:103510000BD0DA0723D4980749BF5B089B0801202A
:103520000B605CBF0B600220704798B2A8B91B0CFF
:10353000102013F0FF0F04BF1B0A08301A0704BF46
:103540001B0904309A0704BF9B080230DA0702D433
:103550005B0806D001300B6070471046E9E7002099
:1035600070472020704710B50C460121FFF727FF58
:1035700001224461026110BD2DE9F74F14460A692A
:1035800023699A42B8BF0B468846BCBFA0461C467A
:10359000D8F81070D4F81090D8F80830D8F8041083
:1035A00007EB0906B342B8BF0131FFF708FF00F18E
:1035B000140505EB860E2B460022734516D304F145
:1035C000140208F1140102EB890301EB8707009351
:1035D000009B019293420CD8002E03DD5EF8043D5F
:1035E000002B5DD0066103B0BDE8F08F43F8042BDB
:1035F000E3E7B2F800B0BBF1000F23D08946AC4638
:103600004FF0000859F8044BDCF800A0A3B21FFAF1
:103610008AFA0BFB03A34FEA144ADCF80040434448
:103620004FEA14480BFB0A8404EB1344E2469BB2B6
:1036300043EA04434F454FEA14484AF8043B2BD869
:10364000CCF80480019BB3F802A00432BAF1000F59
:1036500020D02B688946A8464FF0000BB9F800C06F
:10366000B8F802400AFB0C445C44C4469BB243EAEF
:1036700004434CF8043B59F8043BB8F804B01B0C65
:103680000AFB03B303EB14434F454FEA134B05D832
:10369000C8F8043004359BE7D446B3E7E046DDE7DD
:1036A000013E99E72DE9F843154612F0030206465C
:1036B0000F4607D0013A214C002354F82220FFF78F
:1036C000C9FE0746AD1035D0746A3CB91020FFF72B
:1036D00063FE7062C0E901440460C460D6F82480CF
:1036E000D8F808404CB940F271213046FFF73BFF53
:1036F0000023C8F80800044603604FF00008EB07F9
:103700000AD5394622463046FFF736FF394681460C
:103710003046FFF788FE4F466D100BD0206838B951
:10372000224621463046FFF727FF2060C0F8008080
:103730000446E4E73846BDE8F88300BF504300087C
:103740002DE9F0470C464FEA621A236949680AEBF3
:103750000309A3680746164609F10105AB4232DBAF
:103760003846FFF72CFE0023804600F114011A466C
:1037700053452BDB20692AEAEA7A04F1140316F098
:103780001F0201EB8A0103EB800C25D0C2F1200E51
:1037900000201E688A46964030434AF8040B53F8CE
:1037A000040B9C4520FA0EF014D8486008B109F1CA
:1037B0000205013D3846C8F810502146FFF733FE98
:1037C0004046BDE8F08701315B00C7E741F82320A0
:1037D0000133CDE75146DCE7043953F8042B41F8B7
:1037E000042F9C45F9D8E4E703690A699B1A30B5B0
:1037F0000CD19200143014318418114454F8045D33
:1038000051F8042D954203D005D30123184630BD4D
:10381000A042F3D3FAE74FF0FF33F7E72DE9F04783
:103820000D460746114628461446FFF7DDFF061EE3
:1038300008D131463846FFF7C2FD0123C0E90436FE
:10384000BDE8F087A4BF23462C4638466168A6BF72
:103850001D4600260126FFF7B2FD2B69C6602669CA
:1038600005F1140904F1140202EB860709EB830841
:1038700000F114054FF0000E52F804AB59F8044B58
:103880001EFA8AF1A3B2C91A230CC3EB1A4303EB45
:10389000214389B24FEA234EC84541EA0343944687
:1038A00045F8043BE8D8BC4504D355F8043D83B142
:1038B0000661C5E75CF8041B1EFA81F31A1402EBDB
:1038C00011429BB243EA02434FEA224E45F8043BC1
:1038D000E9E7013EE9E72DE9F7430E46012159ECFE
:1038E000108B1546FFF76BFDC9F30A540746C9F361
:1038F000130334BB0193B8F1000327D002A840F8AA
:10390000083DFFF701FE0099F0B1019AC0F12003D4
:1039100002FA03F30B43C2407B610192019BBB613E
:10392000002B14BF022101213961C4B1A4F2334438
:1039300004443460C0F135002860384603B0BDE867
:10394000F08343F48013D5E77961E7E701A8FFF737
:10395000DBFD019B7B61012139612030E5E707EB4D
:103960008103A0F2324030601869FFF7AEFDC0EB72
:103970004110E1E738B502FB01F4214600F056F8AA
:10398000054618B122460021FDF736FF284638BD0E
:1039900038B50546002945D051F8043C0C1F002BD2
:1039A000B8BFE41800F098FA1F4A1368104633B9FC
:1039B000636014602846BDE8384000F08EBAA34228
:1039C0000CD921686218934204BF1A685B6863606F
:1039D00004BF521822600460ECE713465A680AB12B
:1039E000A242FAD919685818A0420BD120680144A4
:1039F000581882421960DDD1106852685A6001443B
:103A00001960D7E702D90C232B60D3E7206821186F
:103A10008A4204BF11685268626004BF09182160BD
:103A20005C60C7E738BD00BFEC01002070B5CD1C5D
:103A300025F0030508350C2D38BF0C25002D064652
:103A400001DBA94203D90C233360002070BD00F0D4
:103A500043FA214A1468214691B9204C23681BB9C6
:103A6000304600F07DF920602946304600F078F9B4
:103A7000431C24D10C233360304600F02EFAE4E7D7
:103A80000B685B1B18D40B2B0FD90B60CD50CC18D7
:103A9000304600F022FA04F10B00231D20F007004D
:103AA000C31AD3D05A42E250D0E78C424B6816BFBB
:103AB000636013600C46EBE70C464968CCE7C41C16
:103AC00024F00304A04205D0211A304600F048F942
:103AD0000130CFD02560DBE7EC010020F0010020B1
:103AE0009368013B002B10B4936008DA9469A342F9
:103AF00001DB0A2903D15DF8044BFEF75DBB1368B7
:103B0000581C1060197008465DF8044B7047F8B5F2
:103B100006460F461446D518AC4201D1002007E0F6
:103B20003A4614F8011B3046FFF7DAFF431CF3D185
:103B3000F8BD00002DE9F04F0C469DB017461D461C
:103B4000064618B183690BB9FFF72AFB7C4B9C42F0
:103B500058D17468A38918075ED52369002B5BD000
:103B60000023099320238DF8293030238DF82A3043
:103B700003954FF0010BB846454615F8013B0BB1D4
:103B8000252B54D1B8EB070A0BD053463A462146B1
:103B90003046FFF7BCFF013000F0C280099B534460
:103BA000099398F80030002B00F0BA8000234FF002
:103BB000FF32CDE90523049307938DF853301A9310
:103BC000A846052218F8011B5E48FCF7D9FA049BA9
:103BD00078BBD90644BF20228DF853201A0744BF72
:103BE0002B228DF853202A782A2A2AD0079AA84611
:103BF00000200A25414611F8013B303B092B69D9C9
:103C000060B324E0504B9C4201D1B468A2E74F4B13
:103C10009C4208BFF4689DE721463046FEF71EFB34
:103C200000289DD04FF0FF301DB0BDE8F08FA846B2
:103C3000A2E7444A801A0BFA00F018430490454664
:103C4000BEE7039A111D12680391002A01DB079257
:103C500004E0524243F002030792049398F80030C4
:103C60002E2B0ED198F801302A2B38D1039B1A1D28
:103C70001B680392002BB8BF4FF0FF3308F1020816
:103C80000593334D98F8001003222846FCF778FA84
:103C900040B14023401B03FA00F0049B034308F1AA
:103CA0000108049398F800102A488DF8281006227D
:103CB00008F10107FCF764FA002837D0264B1BBB3C
:103CC000039B073323F0070308330393099B4B44FB
:103CD000099350E705FB0232012088468AE700235A
:103CE00008F10108059319460A25404610F8012BF2
:103CF000303A092A03D9002BC3D00591C1E705FB4F
:103D0000012101238046F0E703AB00932246134BC9
:103D100004A93046FDF70CFEB0F1FF3F8146D5D136
:103D2000A3895B063FF57EAF09987DE703AB00935F
:103D300022460A4B04A93046FEF7B0F8ECE700BF74
:103D4000204200085C43000840420008004200088E
:103D50006243000866430008311900080F3B000861
:103D600038B5064C002305460846236000F0FEF8EF
:103D7000431C02D1236803B12B6038BDFC01002035
:103D800010B50C46B1F90E1000F0A8F80028ABBF32
:103D9000636DA3891B1823F48053ACBF6365A381B3
:103DA00010BD2DE9F0411F468B89DB0505460C4609
:103DB000164605D502230022B1F90E1000F068F86E
:103DC000A389B4F90E1023F48053A38132463B46F5
:103DD0002846BDE8F04100F017B810B50C46B1F91F
:103DE0000E1000F055F8431CA38915BF606523F43D
:103DF000805343F48053A38118BFA38110BDB1F950
:103E00000E1000F013B8000038B5074C0546084600
:103E10001146002222601A46FDF7EEFB431C02D138
:103E2000236803B12B6038BDFC01002038B5064C77
:103E3000002305460846236000F070F8431C02D1B9
:103E4000236803B12B6038BDFC01002038B5074C56
:103E50000023054608461146236000F067F8431C1E
:103E600002D1236803B12B6038BD00BFFC010020E4
:103E700038B5064C002305460846236000F05EF87E
:103E8000431C02D1236803B12B6038BDFC01002024
:103E900038B5074C054608461146002222601A46EE
:103EA00000F054F8431C02D1236803B12B6038BDE5
:103EB000FC01002082B001B901A942B14BB11378D5
:103EC0000B601278101C18BF012002B0704710461A
:103ED000FBE76FF00100F8E77047704738B5074C13
:103EE000054608461146002222601A4600F036F8C0
:103EF000431C02D1236803B12B6038BDFC010020B4
:103F000049B1FF2A85BF8A2303600A704FF0FF3052
:103F100098BF01207047084670470000024B5822A6
:103F20001A604FF0FF307047FC010020024B58220E
:103F30001A604FF0FF307047FC010020024B5822FE
:103F40001A600020704700BFFC010020024B58227D
:103F50001A604FF0FF307047FC010020024B5822DE
:103F60001A604FF0FF307047FC010020044A0549F9
:103F70001368002B08BF0B461844106018467047A2
:103F8000F401002000020020F8B500BFF8BC08BC16
:103F90009E467047F8B500BFF8BC08BC9E46704707
:103FA00000000000000000000102030406070809E9
:103FB00000000000010203040D0A20546869732008
:103FC00069732061205254432064656D6F2E2E2E3C
:103FD0002E2E2E200D0000000D0A546869732069F2
:103FE000732061205254432064656D6F210D0000E1
:103FF0000D0A0A20525443206E6F74207965742094
:10400000636F6E666967757265642E2E2E2E0000D2
:104010000D0A2052544320636F6E6669677572659E
:10402000642E2E2E2E0000000D0A0A20506F776598
:1040300072204F6E205265736574206F63637572D2
:104040007265642E2E2E2E000D0A0A2045787465A6
:10405000726E616C205265736574206F6363757254
:104060007265642E2E2E2E000D0A204E6F206E6576
:10407000656420746F20636F6E6669677572652072
:104080005254432E2E2E2E002054696D653A202561
:10409000302E32643A25302E32643A25302E326486
:1040A0000D0A00000D0A3D3D3D3D3D3D3D3D3D3D80
:1040B0003D3D3D3D54696D652053657474696E677F
:1040C000733D3D3D3D3D3D3D3D3D3D3D3D3D3D3DEA
:1040D0003D3D3D3D3D3D3D3D3D3D3D3D3D3D3D3D10
:1040E0003D3D3D3D3D3D00000D0A2020506C656189
:1040F00073652053657420486F757273000000006B
:104100003A202025640000000D0A2020506C6561D3
:10411000736520536574204D696E75746573000076
:104120000D0A2020506C656173652053657420531F
:1041300065636F6E647300000A0D00000A0D506C19
:104140006561736520656E7465722076616C696463
:10415000206E756D626572206265747765656E208C
:104160003020616E642039000A0D506C6561736502
:1041700020656E7465722076616C6964206E756D61
:10418000626572206265747765656E203020616EAD
:10419000642025640A0000000E06110702060206CC
:1041A0000008014000080140000400000800000071
:1041B000000200000400000004000020494E4600F8
:1041C000696E66004E414E006E616E003000303107
:1041D000323334353637383941424344454600306E
:1041E000313233343536373839616263646566009D
:1041F000496E66696E697479004E614E0000000078
:1042000000000000000000000000000000000000AE
:10421000000000000000000000000000000000009E
:10422000000000000000000000000000000000008E
:10423000000000000000000000000000000000007E
:10424000000000000000000000000000000000006E
:10425000000000000000000000000000000000005E
:104260000080E03779C34143176E05B5B5B8934672
:10427000F5F93FE9034F384D321D30F94877825A3E
:104280003CBF737FDD4F1575000000000000F03F5C
:104290000000000000002440000000000000594021
:1042A0000000000000408F40000000000088C34074
:1042B00000000000006AF8400000000080842E41E9
:1042C00000000000D01263410000000084D7974135
:1042D0000000000065CDCD41000000205FA002423B
:1042E000000000E876483742000000A2941A6D42B0
:1042F000000040E59C30A2420000901EC4BCD642A3
:1043000000003426F56B0C430080E03779C341434D
:1043100000A0D8855734764300C84E676DC1AB43C3
:10432000003D9160E458E143408CB5781DAF1544E1
:1043300050EFE2D6E41A4B4492D54D06CFF08044BC
:10434000F64AE1C7022DB544B49DD9794378EA44D1
:1043500005000000190000007D000000232D302B17
:104360002000686C4C006566674546470043005076
:104370004F534958002E00002020202020202020CC
:104380002028282828282020202020202020202005
:104390002020202020202020881010101010101025
:1043A000101010101010101004040404040404046D
:1043B00004041010101010101041414141414101FE
:1043C00001010101010101010101010101010101DD
:1043D00001010110101010101042424242424202EC
:1043E00002020202020202020202020202020202AD
:1043F0000202021010101020000000000000000057
:1044000000000000000000000000000000000000AC
:10441000000000000000000000000000000000009C
:10442000000000000000000000000000000000008C
:10443000000000000000000000000000000000007C
:10444000000000000000000000000000000000006C
:10445000000000000000000000000000000000005C
:10446000000000000000000000000000000000004C
:08447000000000000000000044
:084478005501000800000000DE
:084480003101000800000000FA
:10448800040000200000000020420008404200080C
:1044980000420008000000000000000000000000CA
:1044A8000000000000000000000000000000000004
:1044B80000000000000000000000000000000000F4
:1044C80000000000000000000000000000000000E4
:1044D80000000000000000000000000000000000D4
:1044E8000000000043000000000000000000000081
:1044F80000000000000000000000000000000000B4
:104508000000000043000000000000000000000060
:104518000000000000000000000000000000000093
:104528000000000043000000000000000000000040
:104538000000000000000000000000000000000073
:104548000000000043000000000000000000000020
:104558000000000000000000000000000000000053
:104568000000000043000000000000000000000000
:104578000000000000000000000000000000000033
:1045880000000000430000000000000000000000E0
:104598000000000000000000000000000000000013
:1045A80000000000430000000000000000000000C0
:1045B80000000000000000000000000000000000F3
:1045C80000000000013F0008B53E000800000000A0
:1045D80077430008754300086143000861430008F9
:1045E8006143000861430008614300086143000813
:1045F800614300086143000861430008FFFFFFFFB3
:10460800FFFFFFFFFFFFFFFFFFFF00000100415317
:1046180043494900000000000000000000000000BD
:1046280000000000000000000000000000004153EE
:10463800434949000000000000000000000000009D
:104648000000000000000000000000000000000062
:040000050800175D7B
:00000001FF
